{
  "contractName": "DeedSale",
  "abi": [
    {
      "inputs": [
        {
          "internalType": "contract DeedNFT",
          "name": "_address",
          "type": "address"
        }
      ],
      "stateMutability": "nonpayable",
      "type": "constructor"
    },
    {
      "anonymous": false,
      "inputs": [
        {
          "indexed": true,
          "internalType": "uint256",
          "name": "_tokenId",
          "type": "uint256"
        },
        {
          "indexed": false,
          "internalType": "address",
          "name": "_oldOwner",
          "type": "address"
        },
        {
          "indexed": false,
          "internalType": "address",
          "name": "_newOwner",
          "type": "address"
        },
        {
          "indexed": false,
          "internalType": "uint256",
          "name": "_timestamp",
          "type": "uint256"
        },
        {
          "indexed": false,
          "internalType": "uint256",
          "name": "_price",
          "type": "uint256"
        }
      ],
      "name": "BuyTitleDeed",
      "type": "event"
    },
    {
      "anonymous": false,
      "inputs": [
        {
          "indexed": true,
          "internalType": "address",
          "name": "_sender",
          "type": "address"
        },
        {
          "indexed": false,
          "internalType": "uint256",
          "name": "_tokenId",
          "type": "uint256"
        },
        {
          "indexed": false,
          "internalType": "uint256",
          "name": "_price",
          "type": "uint256"
        }
      ],
      "name": "PutOnSale",
      "type": "event"
    },
    {
      "anonymous": false,
      "inputs": [
        {
          "indexed": true,
          "internalType": "address",
          "name": "_sender",
          "type": "address"
        },
        {
          "indexed": false,
          "internalType": "uint256",
          "name": "_tokenId",
          "type": "uint256"
        }
      ],
      "name": "RemoveFromSale",
      "type": "event"
    },
    {
      "inputs": [],
      "name": "contractRef",
      "outputs": [
        {
          "internalType": "contract DeedNFT",
          "name": "",
          "type": "address"
        }
      ],
      "stateMutability": "view",
      "type": "function",
      "constant": true
    },
    {
      "inputs": [
        {
          "internalType": "uint256",
          "name": "_tokenId",
          "type": "uint256"
        },
        {
          "internalType": "uint256",
          "name": "_price",
          "type": "uint256"
        }
      ],
      "name": "putOnSale",
      "outputs": [],
      "stateMutability": "nonpayable",
      "type": "function"
    },
    {
      "inputs": [
        {
          "internalType": "uint256",
          "name": "_tokenId",
          "type": "uint256"
        }
      ],
      "name": "removeFromSale",
      "outputs": [],
      "stateMutability": "nonpayable",
      "type": "function"
    },
    {
      "inputs": [
        {
          "internalType": "uint256",
          "name": "_tokenId",
          "type": "uint256"
        }
      ],
      "name": "buyTitleDeed",
      "outputs": [],
      "stateMutability": "payable",
      "type": "function",
      "payable": true
    }
  ],
  "bytecode": "0x608060405234801561001057600080fd5b5060405161092638038061092683398181016040528101906100329190610118565b806000806101000a81548173ffffffffffffffffffffffffffffffffffffffff021916908373ffffffffffffffffffffffffffffffffffffffff16021790555060008054906101000a900473ffffffffffffffffffffffffffffffffffffffff1673ffffffffffffffffffffffffffffffffffffffff1663f85ea2ab306040518263ffffffff1660e01b81526004016100cb9190610150565b600060405180830381600087803b1580156100e557600080fd5b505af11580156100f9573d6000803e3d6000fd5b50505050506101c6565b600081519050610112816101af565b92915050565b60006020828403121561012a57600080fd5b600061013884828501610103565b91505092915050565b61014a8161016b565b82525050565b60006020820190506101656000830184610141565b92915050565b60006101768261018f565b9050919050565b60006101888261016b565b9050919050565b600073ffffffffffffffffffffffffffffffffffffffff82169050919050565b6101b88161017d565b81146101c357600080fd5b50565b610751806101d56000396000f3fe60806040526004361061003f5760003560e01c80631361a3b6146100445780632c88cafa1461006d57806336f7992b1461008957806375ca533f146100b2575b600080fd5b34801561005057600080fd5b5061006b6004803603810190610066919061045a565b6100dd565b005b6100876004803603810190610082919061045a565b6101c0565b005b34801561009557600080fd5b506100b060048036038101906100ab9190610483565b6102fd565b005b3480156100be57600080fd5b506100c76103e3565b6040516100d4919061054f565b60405180910390f35b60008054906101000a900473ffffffffffffffffffffffffffffffffffffffff1673ffffffffffffffffffffffffffffffffffffffff16638804c1e182600080336040518563ffffffff1660e01b815260040161013d94939291906105bc565b600060405180830381600087803b15801561015757600080fd5b505af115801561016b573d6000803e3d6000fd5b505050503373ffffffffffffffffffffffffffffffffffffffff167fbfbf7e7677a0c423106146f1ee86ac042526b53581de06ba54c51e8acfeac746826040516101b5919061056a565b60405180910390a250565b60008060009054906101000a900473ffffffffffffffffffffffffffffffffffffffff1673ffffffffffffffffffffffffffffffffffffffff166336f699a98333346040518463ffffffff1660e01b815260040161022093929190610585565b602060405180830381600087803b15801561023a57600080fd5b505af115801561024e573d6000803e3d6000fd5b505050506040513d601f19601f820116820180604052508101906102729190610431565b90508073ffffffffffffffffffffffffffffffffffffffff166108fc349081150290604051600060405180830381858888f193505050501580156102ba573d6000803e3d6000fd5b50817ff97e69761bc1de1b92d616e4e8801efb275c2bce9514b7f6fe31896e8ae3e1e6823342346040516102f1949392919061050a565b60405180910390a25050565b60008054906101000a900473ffffffffffffffffffffffffffffffffffffffff1673ffffffffffffffffffffffffffffffffffffffff16638804c1e183836001336040518563ffffffff1660e01b815260040161035d949392919061062a565b600060405180830381600087803b15801561037757600080fd5b505af115801561038b573d6000803e3d6000fd5b505050503373ffffffffffffffffffffffffffffffffffffffff167f6bf1757145125508e9809d083ac4404861803c9e3f51dcfa27647a7080dc545383836040516103d7929190610601565b60405180910390a25050565b60008054906101000a900473ffffffffffffffffffffffffffffffffffffffff1681565b600081519050610416816106ed565b92915050565b60008135905061042b81610704565b92915050565b60006020828403121561044357600080fd5b600061045184828501610407565b91505092915050565b60006020828403121561046c57600080fd5b600061047a8482850161041c565b91505092915050565b6000806040838503121561049657600080fd5b60006104a48582860161041c565b92505060206104b58582860161041c565b9150509250929050565b6104c88161066f565b82525050565b6104d781610681565b82525050565b6104e6816106b7565b82525050565b6104f5816106db565b82525050565b610504816106ad565b82525050565b600060808201905061051f60008301876104bf565b61052c60208301866104bf565b61053960408301856104fb565b61054660608301846104fb565b95945050505050565b600060208201905061056460008301846104dd565b92915050565b600060208201905061057f60008301846104fb565b92915050565b600060608201905061059a60008301866104fb565b6105a760208301856104bf565b6105b460408301846104fb565b949350505050565b60006080820190506105d160008301876104fb565b6105de60208301866104ec565b6105eb60408301856104ce565b6105f860608301846104bf565b95945050505050565b600060408201905061061660008301856104fb565b61062360208301846104fb565b9392505050565b600060808201905061063f60008301876104fb565b61064c60208301866104fb565b61065960408301856104ce565b61066660608301846104bf565b95945050505050565b600061067a8261068d565b9050919050565b60008115159050919050565b600073ffffffffffffffffffffffffffffffffffffffff82169050919050565b6000819050919050565b60006106c2826106c9565b9050919050565b60006106d48261068d565b9050919050565b60006106e6826106ad565b9050919050565b6106f68161066f565b811461070157600080fd5b50565b61070d816106ad565b811461071857600080fd5b5056fea264697066735822122071a6c47b3aecedc2ca54fc65f84369bf68148b91bc803af9f1923162358f153064736f6c63430008010033",
  "immutableReferences": {},
  "source": "// SPDX-License-Identifier: MIT\r\npragma solidity >=0.8.0 <0.9.0;\r\n\r\nimport \"./DeedNFT.sol\";\r\n\r\ncontract DeedSale {\r\n\r\n  DeedNFT public contractRef;\r\n\r\n  event PutOnSale(address indexed _sender, uint256 _tokenId, uint256 _price);\r\n  event RemoveFromSale(address indexed _sender, uint256 _tokenId);\r\n  event BuyTitleDeed(uint256 indexed _tokenId, address _oldOwner, address _newOwner, uint256 _timestamp, uint256 _price);\r\n\r\n  constructor(DeedNFT _address) {\r\n    contractRef = _address;\r\n    contractRef.setMarketContract(address(this));\r\n  }\r\n\r\n  function putOnSale(uint256 _tokenId, uint256 _price) public {\r\n    contractRef.updateDeedForSale(_tokenId, _price, true, msg.sender);\r\n    emit PutOnSale(msg.sender, _tokenId, _price);\r\n  }\r\n\r\n  function removeFromSale(uint256 _tokenId) public {\r\n    contractRef.updateDeedForSale(_tokenId, 0, false, msg.sender);\r\n    emit RemoveFromSale(msg.sender, _tokenId);\r\n  }\r\n\r\n  function buyTitleDeed(uint256 _tokenId) public payable {\r\n    address _oldOwner = contractRef.buyTitleDeed(_tokenId, msg.sender, msg.value);\r\n    payable(_oldOwner).transfer(msg.value);\r\n    emit BuyTitleDeed(_tokenId, _oldOwner, msg.sender, block.timestamp, msg.value);\r\n  }\r\n}",
  "sourcePath": "C:\\Users\\Fatih\\Desktop\\Fatih\\Projeler devler\\Blockchain Projects\\DeedNFTApp\\truffle\\contracts\\DeedSale.sol",
  "compiler": {
    "name": "solc",
    "version": "0.8.1+commit.df193b15.Emscripten.clang"
  },
  "schemaVersion": "3.4.7",
  "updatedAt": "2022-05-17T13:37:30.015Z",
  "networkType": "ethereum",
  "devdoc": {
    "kind": "dev",
    "methods": {},
    "version": 1
  },
  "userdoc": {
    "kind": "user",
    "methods": {},
    "version": 1
  }
}