{
  "contractName": "DeedNFT",
  "abi": [
    {
      "inputs": [],
      "stateMutability": "nonpayable",
      "type": "constructor"
    },
    {
      "anonymous": false,
      "inputs": [
        {
          "indexed": true,
          "internalType": "address",
          "name": "owner",
          "type": "address"
        },
        {
          "indexed": true,
          "internalType": "address",
          "name": "approved",
          "type": "address"
        },
        {
          "indexed": true,
          "internalType": "uint256",
          "name": "tokenId",
          "type": "uint256"
        }
      ],
      "name": "Approval",
      "type": "event"
    },
    {
      "anonymous": false,
      "inputs": [
        {
          "indexed": true,
          "internalType": "address",
          "name": "owner",
          "type": "address"
        },
        {
          "indexed": true,
          "internalType": "address",
          "name": "operator",
          "type": "address"
        },
        {
          "indexed": false,
          "internalType": "bool",
          "name": "approved",
          "type": "bool"
        }
      ],
      "name": "ApprovalForAll",
      "type": "event"
    },
    {
      "anonymous": false,
      "inputs": [
        {
          "indexed": true,
          "internalType": "address",
          "name": "from",
          "type": "address"
        },
        {
          "indexed": true,
          "internalType": "address",
          "name": "to",
          "type": "address"
        },
        {
          "indexed": true,
          "internalType": "uint256",
          "name": "tokenId",
          "type": "uint256"
        }
      ],
      "name": "Transfer",
      "type": "event"
    },
    {
      "inputs": [
        {
          "internalType": "uint256",
          "name": "",
          "type": "uint256"
        }
      ],
      "name": "allTitleDeeds",
      "outputs": [
        {
          "internalType": "uint256",
          "name": "ID",
          "type": "uint256"
        },
        {
          "internalType": "uint256",
          "name": "price",
          "type": "uint256"
        },
        {
          "internalType": "address",
          "name": "owner",
          "type": "address"
        },
        {
          "internalType": "string",
          "name": "province",
          "type": "string"
        },
        {
          "internalType": "string",
          "name": "area",
          "type": "string"
        },
        {
          "internalType": "string",
          "name": "county",
          "type": "string"
        },
        {
          "internalType": "string",
          "name": "district",
          "type": "string"
        },
        {
          "internalType": "string",
          "name": "coordinates",
          "type": "string"
        },
        {
          "internalType": "bool",
          "name": "forSale",
          "type": "bool"
        }
      ],
      "stateMutability": "view",
      "type": "function",
      "constant": true
    },
    {
      "inputs": [
        {
          "internalType": "address",
          "name": "owner",
          "type": "address"
        }
      ],
      "name": "balanceOf",
      "outputs": [
        {
          "internalType": "uint256",
          "name": "",
          "type": "uint256"
        }
      ],
      "stateMutability": "view",
      "type": "function",
      "constant": true
    },
    {
      "inputs": [
        {
          "internalType": "uint256",
          "name": "tokenId",
          "type": "uint256"
        }
      ],
      "name": "getApproved",
      "outputs": [
        {
          "internalType": "address",
          "name": "",
          "type": "address"
        }
      ],
      "stateMutability": "view",
      "type": "function",
      "constant": true
    },
    {
      "inputs": [
        {
          "internalType": "address",
          "name": "owner",
          "type": "address"
        },
        {
          "internalType": "address",
          "name": "operator",
          "type": "address"
        }
      ],
      "name": "isApprovedForAll",
      "outputs": [
        {
          "internalType": "bool",
          "name": "",
          "type": "bool"
        }
      ],
      "stateMutability": "view",
      "type": "function",
      "constant": true
    },
    {
      "inputs": [],
      "name": "name",
      "outputs": [
        {
          "internalType": "string",
          "name": "",
          "type": "string"
        }
      ],
      "stateMutability": "view",
      "type": "function",
      "constant": true
    },
    {
      "inputs": [
        {
          "internalType": "uint256",
          "name": "tokenId",
          "type": "uint256"
        }
      ],
      "name": "ownerOf",
      "outputs": [
        {
          "internalType": "address",
          "name": "",
          "type": "address"
        }
      ],
      "stateMutability": "view",
      "type": "function",
      "constant": true
    },
    {
      "inputs": [
        {
          "internalType": "address",
          "name": "from",
          "type": "address"
        },
        {
          "internalType": "address",
          "name": "to",
          "type": "address"
        },
        {
          "internalType": "uint256",
          "name": "tokenId",
          "type": "uint256"
        }
      ],
      "name": "safeTransferFrom",
      "outputs": [],
      "stateMutability": "nonpayable",
      "type": "function"
    },
    {
      "inputs": [
        {
          "internalType": "address",
          "name": "from",
          "type": "address"
        },
        {
          "internalType": "address",
          "name": "to",
          "type": "address"
        },
        {
          "internalType": "uint256",
          "name": "tokenId",
          "type": "uint256"
        },
        {
          "internalType": "bytes",
          "name": "_data",
          "type": "bytes"
        }
      ],
      "name": "safeTransferFrom",
      "outputs": [],
      "stateMutability": "nonpayable",
      "type": "function"
    },
    {
      "inputs": [
        {
          "internalType": "address",
          "name": "operator",
          "type": "address"
        },
        {
          "internalType": "bool",
          "name": "approved",
          "type": "bool"
        }
      ],
      "name": "setApprovalForAll",
      "outputs": [],
      "stateMutability": "nonpayable",
      "type": "function"
    },
    {
      "inputs": [
        {
          "internalType": "bytes4",
          "name": "interfaceId",
          "type": "bytes4"
        }
      ],
      "name": "supportsInterface",
      "outputs": [
        {
          "internalType": "bool",
          "name": "",
          "type": "bool"
        }
      ],
      "stateMutability": "view",
      "type": "function",
      "constant": true
    },
    {
      "inputs": [],
      "name": "symbol",
      "outputs": [
        {
          "internalType": "string",
          "name": "",
          "type": "string"
        }
      ],
      "stateMutability": "view",
      "type": "function",
      "constant": true
    },
    {
      "inputs": [
        {
          "internalType": "uint256",
          "name": "index",
          "type": "uint256"
        }
      ],
      "name": "tokenByIndex",
      "outputs": [
        {
          "internalType": "uint256",
          "name": "",
          "type": "uint256"
        }
      ],
      "stateMutability": "view",
      "type": "function",
      "constant": true
    },
    {
      "inputs": [
        {
          "internalType": "address",
          "name": "owner",
          "type": "address"
        },
        {
          "internalType": "uint256",
          "name": "index",
          "type": "uint256"
        }
      ],
      "name": "tokenOfOwnerByIndex",
      "outputs": [
        {
          "internalType": "uint256",
          "name": "",
          "type": "uint256"
        }
      ],
      "stateMutability": "view",
      "type": "function",
      "constant": true
    },
    {
      "inputs": [
        {
          "internalType": "uint256",
          "name": "tokenId",
          "type": "uint256"
        }
      ],
      "name": "tokenURI",
      "outputs": [
        {
          "internalType": "string",
          "name": "",
          "type": "string"
        }
      ],
      "stateMutability": "view",
      "type": "function",
      "constant": true
    },
    {
      "inputs": [],
      "name": "totalSupply",
      "outputs": [
        {
          "internalType": "uint256",
          "name": "",
          "type": "uint256"
        }
      ],
      "stateMutability": "view",
      "type": "function",
      "constant": true
    },
    {
      "inputs": [
        {
          "internalType": "address",
          "name": "from",
          "type": "address"
        },
        {
          "internalType": "address",
          "name": "to",
          "type": "address"
        },
        {
          "internalType": "uint256",
          "name": "tokenId",
          "type": "uint256"
        }
      ],
      "name": "transferFrom",
      "outputs": [],
      "stateMutability": "nonpayable",
      "type": "function"
    },
    {
      "inputs": [
        {
          "internalType": "string",
          "name": "_province",
          "type": "string"
        },
        {
          "internalType": "string",
          "name": "_area",
          "type": "string"
        },
        {
          "internalType": "string",
          "name": "_county",
          "type": "string"
        },
        {
          "internalType": "string",
          "name": "_district",
          "type": "string"
        },
        {
          "internalType": "string",
          "name": "_coordinates",
          "type": "string"
        }
      ],
      "name": "mint",
      "outputs": [],
      "stateMutability": "nonpayable",
      "type": "function"
    },
    {
      "inputs": [
        {
          "internalType": "address",
          "name": "_to",
          "type": "address"
        },
        {
          "internalType": "uint256",
          "name": "_tokenId",
          "type": "uint256"
        }
      ],
      "name": "approve",
      "outputs": [],
      "stateMutability": "nonpayable",
      "type": "function"
    },
    {
      "inputs": [
        {
          "internalType": "uint256",
          "name": "_tokenId",
          "type": "uint256"
        },
        {
          "internalType": "uint256",
          "name": "_price",
          "type": "uint256"
        },
        {
          "internalType": "bool",
          "name": "_forSale",
          "type": "bool"
        },
        {
          "internalType": "address",
          "name": "_sender",
          "type": "address"
        }
      ],
      "name": "updateDeedForSale",
      "outputs": [],
      "stateMutability": "nonpayable",
      "type": "function"
    },
    {
      "inputs": [
        {
          "internalType": "uint256",
          "name": "_tokenId",
          "type": "uint256"
        },
        {
          "internalType": "address",
          "name": "_sender",
          "type": "address"
        },
        {
          "internalType": "uint256",
          "name": "_value",
          "type": "uint256"
        }
      ],
      "name": "buyTitleDeed",
      "outputs": [
        {
          "internalType": "address",
          "name": "",
          "type": "address"
        }
      ],
      "stateMutability": "nonpayable",
      "type": "function"
    },
    {
      "inputs": [
        {
          "internalType": "uint256",
          "name": "_tokenId",
          "type": "uint256"
        }
      ],
      "name": "getDeed",
      "outputs": [
        {
          "internalType": "uint256",
          "name": "",
          "type": "uint256"
        },
        {
          "internalType": "address",
          "name": "",
          "type": "address"
        },
        {
          "internalType": "bool",
          "name": "",
          "type": "bool"
        }
      ],
      "stateMutability": "view",
      "type": "function",
      "constant": true
    },
    {
      "inputs": [
        {
          "internalType": "uint256",
          "name": "_tokenId",
          "type": "uint256"
        }
      ],
      "name": "buildImage",
      "outputs": [
        {
          "internalType": "string",
          "name": "",
          "type": "string"
        }
      ],
      "stateMutability": "view",
      "type": "function",
      "constant": true
    },
    {
      "inputs": [
        {
          "internalType": "address",
          "name": "to",
          "type": "address"
        }
      ],
      "name": "withdraw",
      "outputs": [],
      "stateMutability": "payable",
      "type": "function",
      "payable": true
    }
  ],
  "bytecode": "0x60806040523480156200001157600080fd5b506040518060400160405280600e81526020017f5469746c652044656564204e46540000000000000000000000000000000000008152506040518060400160405280600481526020017f444e465400000000000000000000000000000000000000000000000000000000815250816000908051906020019062000096929190620000f9565b508060019080519060200190620000af929190620000f9565b50505033600a60006101000a81548173ffffffffffffffffffffffffffffffffffffffff021916908373ffffffffffffffffffffffffffffffffffffffff1602179055506200020e565b8280546200010790620001a9565b90600052602060002090601f0160209004810192826200012b576000855562000177565b82601f106200014657805160ff191683800117855562000177565b8280016001018555821562000177579182015b828111156200017657825182559160200191906001019062000159565b5b5090506200018691906200018a565b5090565b5b80821115620001a55760008160009055506001016200018b565b5090565b60006002820490506001821680620001c257607f821691505b60208210811415620001d957620001d8620001df565b5b50919050565b7f4e487b7100000000000000000000000000000000000000000000000000000000600052602260045260246000fd5b615a64806200021e6000396000f3fe6080604052600436106101405760003560e01c806351cff8d9116100b657806395d89b411161006f57806395d89b41146104ab578063a22cb465146104d6578063b88d4fde146104ff578063c87b56dd14610528578063e728fae914610565578063e985e9c5146105aa57610140565b806351cff8d9146103845780636352211e146103a0578063683ad727146103dd57806370a082311461041c57806386833e91146104595780638804c1e11461048257610140565b806323b872dd1161010857806323b872dd1461023e5780632ba80eba146102675780632f745c59146102a457806336f699a9146102e157806342842e0e1461031e5780634f6ccce71461034757610140565b806301ffc9a71461014557806306fdde0314610182578063081812fc146101ad578063095ea7b3146101ea57806318160ddd14610213575b600080fd5b34801561015157600080fd5b5061016c6004803603810190610167919061355a565b6105e7565b604051610179919061406b565b60405180910390f35b34801561018e57600080fd5b50610197610661565b6040516101a49190614086565b60405180910390f35b3480156101b957600080fd5b506101d460048036038101906101cf919061369b565b6106f3565b6040516101e19190614004565b60405180910390f35b3480156101f657600080fd5b50610211600480360381019061020c919061351e565b610778565b005b34801561021f57600080fd5b50610228610786565b6040516102359190614348565b60405180910390f35b34801561024a57600080fd5b5061026560048036038101906102609190613418565b610793565b005b34801561027357600080fd5b5061028e6004803603810190610289919061369b565b6107f3565b60405161029b9190614086565b60405180910390f35b3480156102b057600080fd5b506102cb60048036038101906102c6919061351e565b610bd1565b6040516102d89190614348565b60405180910390f35b3480156102ed57600080fd5b50610308600480360381019061030391906136c4565b610c76565b6040516103159190614004565b60405180910390f35b34801561032a57600080fd5b5061034560048036038101906103409190613418565b610f41565b005b34801561035357600080fd5b5061036e6004803603810190610369919061369b565b610f61565b60405161037b9190614348565b60405180910390f35b61039e600480360381019061039991906133b3565b610ff8565b005b3480156103ac57600080fd5b506103c760048036038101906103c2919061369b565b611102565b6040516103d49190614004565b60405180910390f35b3480156103e957600080fd5b5061040460048036038101906103ff919061369b565b6111b4565b60405161041393929190614363565b60405180910390f35b34801561042857600080fd5b50610443600480360381019061043e91906133b3565b611558565b6040516104509190614348565b60405180910390f35b34801561046557600080fd5b50610480600480360381019061047b91906135ac565b611610565b005b34801561048e57600080fd5b506104a960048036038101906104a49190613713565b6117d5565b005b3480156104b757600080fd5b506104c06118d6565b6040516104cd9190614086565b60405180910390f35b3480156104e257600080fd5b506104fd60048036038101906104f891906134e2565b611968565b005b34801561050b57600080fd5b5061052660048036038101906105219190613467565b61197e565b005b34801561053457600080fd5b5061054f600480360381019061054a919061369b565b6119e0565b60405161055c9190614086565b60405180910390f35b34801561057157600080fd5b5061058c6004803603810190610587919061369b565b611a87565b6040516105a19998979695949392919061439a565b60405180910390f35b3480156105b657600080fd5b506105d160048036038101906105cc91906133dc565b611daa565b6040516105de919061406b565b60405180910390f35b60007f780e9d63000000000000000000000000000000000000000000000000000000007bffffffffffffffffffffffffffffffffffffffffffffffffffffffff1916827bffffffffffffffffffffffffffffffffffffffffffffffffffffffff1916148061065a575061065982611e3e565b5b9050919050565b606060008054610670906146ea565b80601f016020809104026020016040519081016040528092919081815260200182805461069c906146ea565b80156106e95780601f106106be576101008083540402835291602001916106e9565b820191906000526020600020905b8154815290600101906020018083116106cc57829003601f168201915b5050505050905090565b60006106fe82611f20565b61073d576040517f08c379a000000000000000000000000000000000000000000000000000000000815260040161073490614268565b60405180910390fd5b6004600083815260200190815260200160002060009054906101000a900473ffffffffffffffffffffffffffffffffffffffff169050919050565b6107828282611f8c565b5050565b6000600880549050905090565b6107a461079e612045565b8261204d565b6107e3576040517f08c379a00000000000000000000000000000000000000000000000000000000081526004016107da906142c8565b60405180910390fd5b6107ee83838361212b565b505050565b60606000600b60008481526020019081526020016000206040518061012001604052908160008201548152602001600182015481526020016002820160009054906101000a900473ffffffffffffffffffffffffffffffffffffffff1673ffffffffffffffffffffffffffffffffffffffff1673ffffffffffffffffffffffffffffffffffffffff168152602001600382018054610890906146ea565b80601f01602080910402602001604051908101604052809291908181526020018280546108bc906146ea565b80156109095780601f106108de57610100808354040283529160200191610909565b820191906000526020600020905b8154815290600101906020018083116108ec57829003601f168201915b50505050508152602001600482018054610922906146ea565b80601f016020809104026020016040519081016040528092919081815260200182805461094e906146ea565b801561099b5780601f106109705761010080835404028352916020019161099b565b820191906000526020600020905b81548152906001019060200180831161097e57829003601f168201915b505050505081526020016005820180546109b4906146ea565b80601f01602080910402602001604051908101604052809291908181526020018280546109e0906146ea565b8015610a2d5780601f10610a0257610100808354040283529160200191610a2d565b820191906000526020600020905b815481529060010190602001808311610a1057829003601f168201915b50505050508152602001600682018054610a46906146ea565b80601f0160208091040260200160405190810160405280929190818152602001828054610a72906146ea565b8015610abf5780601f10610a9457610100808354040283529160200191610abf565b820191906000526020600020905b815481529060010190602001808311610aa257829003601f168201915b50505050508152602001600782018054610ad8906146ea565b80601f0160208091040260200160405190810160405280929190818152602001828054610b04906146ea565b8015610b515780601f10610b2657610100808354040283529160200191610b51565b820191906000526020600020905b815481529060010190602001808311610b3457829003601f168201915b505050505081526020016008820160009054906101000a900460ff1615151515815250509050610bc9610b878260000151612392565b82606001518360a001518460c0015185608001518660e00151604051602001610bb596959493929190613e6e565b60405160208183030381529060405261253f565b915050919050565b6000610bdc83611558565b8210610c1d576040517f08c379a0000000000000000000000000000000000000000000000000000000008152600401610c14906140c8565b60405180910390fd5b600660008473ffffffffffffffffffffffffffffffffffffffff1673ffffffffffffffffffffffffffffffffffffffff168152602001908152602001600020600083815260200190815260200160002054905092915050565b60008073ffffffffffffffffffffffffffffffffffffffff168373ffffffffffffffffffffffffffffffffffffffff161415610ce7576040517f08c379a0000000000000000000000000000000000000000000000000000000008152600401610cde90614328565b60405180910390fd5b610cf084611f20565b610d2f576040517f08c379a0000000000000000000000000000000000000000000000000000000008152600401610d2690614308565b60405180910390fd5b6000610d3a85611102565b9050600073ffffffffffffffffffffffffffffffffffffffff168173ffffffffffffffffffffffffffffffffffffffff161415610dac576040517f08c379a0000000000000000000000000000000000000000000000000000000008152600401610da390614328565b60405180910390fd5b8373ffffffffffffffffffffffffffffffffffffffff168173ffffffffffffffffffffffffffffffffffffffff161415610e1b576040517f08c379a0000000000000000000000000000000000000000000000000000000008152600401610e1290614248565b60405180910390fd5b6000600b600087815260200190815260200160002090508060010154841015610e79576040517f08c379a0000000000000000000000000000000000000000000000000000000008152600401610e70906140a8565b60405180910390fd5b8060080160009054906101000a900460ff16610eca576040517f08c379a0000000000000000000000000000000000000000000000000000000008152600401610ec1906141c8565b60405180910390fd5b610ed5828688610793565b848160020160006101000a81548173ffffffffffffffffffffffffffffffffffffffff021916908373ffffffffffffffffffffffffffffffffffffffff16021790555060008160080160006101000a81548160ff02191690831515021790555081925050509392505050565b610f5c8383836040518060200160405280600081525061197e565b505050565b6000610f6b610786565b8210610fac576040517f08c379a0000000000000000000000000000000000000000000000000000000008152600401610fa3906142e8565b60405180910390fd5b60088281548110610fe6577f4e487b7100000000000000000000000000000000000000000000000000000000600052603260045260246000fd5b90600052602060002001549050919050565b600a60009054906101000a900473ffffffffffffffffffffffffffffffffffffffff1673ffffffffffffffffffffffffffffffffffffffff163373ffffffffffffffffffffffffffffffffffffffff1614611088576040517f08c379a000000000000000000000000000000000000000000000000000000000815260040161107f90614288565b60405180910390fd5b60008173ffffffffffffffffffffffffffffffffffffffff16476040516110ae90613fef565b60006040518083038185875af1925050503d80600081146110eb576040519150601f19603f3d011682016040523d82523d6000602084013e6110f0565b606091505b50509050806110fe57600080fd5b5050565b6000806002600084815260200190815260200160002060009054906101000a900473ffffffffffffffffffffffffffffffffffffffff169050600073ffffffffffffffffffffffffffffffffffffffff168173ffffffffffffffffffffffffffffffffffffffff1614156111ab576040517f08c379a00000000000000000000000000000000000000000000000000000000081526004016111a290614208565b60405180910390fd5b80915050919050565b600080600080600b60008681526020019081526020016000206040518061012001604052908160008201548152602001600182015481526020016002820160009054906101000a900473ffffffffffffffffffffffffffffffffffffffff1673ffffffffffffffffffffffffffffffffffffffff1673ffffffffffffffffffffffffffffffffffffffff168152602001600382018054611253906146ea565b80601f016020809104026020016040519081016040528092919081815260200182805461127f906146ea565b80156112cc5780601f106112a1576101008083540402835291602001916112cc565b820191906000526020600020905b8154815290600101906020018083116112af57829003601f168201915b505050505081526020016004820180546112e5906146ea565b80601f0160208091040260200160405190810160405280929190818152602001828054611311906146ea565b801561135e5780601f106113335761010080835404028352916020019161135e565b820191906000526020600020905b81548152906001019060200180831161134157829003601f168201915b50505050508152602001600582018054611377906146ea565b80601f01602080910402602001604051908101604052809291908181526020018280546113a3906146ea565b80156113f05780601f106113c5576101008083540402835291602001916113f0565b820191906000526020600020905b8154815290600101906020018083116113d357829003601f168201915b50505050508152602001600682018054611409906146ea565b80601f0160208091040260200160405190810160405280929190818152602001828054611435906146ea565b80156114825780601f1061145757610100808354040283529160200191611482565b820191906000526020600020905b81548152906001019060200180831161146557829003601f168201915b5050505050815260200160078201805461149b906146ea565b80601f01602080910402602001604051908101604052809291908181526020018280546114c7906146ea565b80156115145780601f106114e957610100808354040283529160200191611514565b820191906000526020600020905b8154815290600101906020018083116114f757829003601f168201915b505050505081526020016008820160009054906101000a900460ff161515151581525050905080602001518160400151826101000151935093509350509193909250565b60008073ffffffffffffffffffffffffffffffffffffffff168273ffffffffffffffffffffffffffffffffffffffff1614156115c9576040517f08c379a00000000000000000000000000000000000000000000000000000000081526004016115c0906141e8565b60405180910390fd5b600360008373ffffffffffffffffffffffffffffffffffffffff1673ffffffffffffffffffffffffffffffffffffffff168152602001908152602001600020549050919050565b600061161a610786565b90506000604051806101200160405280600184611637919061451f565b8152602001600081526020013373ffffffffffffffffffffffffffffffffffffffff16815260200188815260200187815260200186815260200185815260200184815260200160001515815250905080600b6000600185611698919061451f565b8152602001908152602001600020600082015181600001556020820151816001015560408201518160020160006101000a81548173ffffffffffffffffffffffffffffffffffffffff021916908373ffffffffffffffffffffffffffffffffffffffff160217905550606082015181600301908051906020019061171d9291906131d7565b50608082015181600401908051906020019061173a9291906131d7565b5060a08201518160050190805190602001906117579291906131d7565b5060c08201518160060190805190602001906117749291906131d7565b5060e08201518160070190805190602001906117919291906131d7565b506101008201518160080160006101000a81548160ff0219169083151502179055509050506117cc336001846117c7919061451f565b6126ea565b50505050505050565b6117de84611f20565b61181d576040517f08c379a000000000000000000000000000000000000000000000000000000000815260040161181490614308565b60405180910390fd5b8073ffffffffffffffffffffffffffffffffffffffff1661183d85611102565b73ffffffffffffffffffffffffffffffffffffffff1614611893576040517f08c379a000000000000000000000000000000000000000000000000000000000815260040161188a90614188565b60405180910390fd5b6000600b60008681526020019081526020016000209050838160010181905550828160080160006101000a81548160ff0219169083151502179055505050505050565b6060600180546118e5906146ea565b80601f0160208091040260200160405190810160405280929190818152602001828054611911906146ea565b801561195e5780601f106119335761010080835404028352916020019161195e565b820191906000526020600020905b81548152906001019060200180831161194157829003601f168201915b5050505050905090565b61197a611973612045565b8383612708565b5050565b61198f611989612045565b8361204d565b6119ce576040517f08c379a00000000000000000000000000000000000000000000000000000000081526004016119c5906142c8565b60405180910390fd5b6119da84848484612875565b50505050565b60606119eb82611f20565b611a2a576040517f08c379a0000000000000000000000000000000000000000000000000000000008152600401611a21906142a8565b60405180910390fd5b6000611a346128d1565b90506000815111611a545760405180602001604052806000815250611a7f565b80611a5e84612392565b604051602001611a6f929190613e4a565b6040516020818303038152906040525b915050919050565b600b6020528060005260406000206000915090508060000154908060010154908060020160009054906101000a900473ffffffffffffffffffffffffffffffffffffffff1690806003018054611adc906146ea565b80601f0160208091040260200160405190810160405280929190818152602001828054611b08906146ea565b8015611b555780601f10611b2a57610100808354040283529160200191611b55565b820191906000526020600020905b815481529060010190602001808311611b3857829003601f168201915b505050505090806004018054611b6a906146ea565b80601f0160208091040260200160405190810160405280929190818152602001828054611b96906146ea565b8015611be35780601f10611bb857610100808354040283529160200191611be3565b820191906000526020600020905b815481529060010190602001808311611bc657829003601f168201915b505050505090806005018054611bf8906146ea565b80601f0160208091040260200160405190810160405280929190818152602001828054611c24906146ea565b8015611c715780601f10611c4657610100808354040283529160200191611c71565b820191906000526020600020905b815481529060010190602001808311611c5457829003601f168201915b505050505090806006018054611c86906146ea565b80601f0160208091040260200160405190810160405280929190818152602001828054611cb2906146ea565b8015611cff5780601f10611cd457610100808354040283529160200191611cff565b820191906000526020600020905b815481529060010190602001808311611ce257829003601f168201915b505050505090806007018054611d14906146ea565b80601f0160208091040260200160405190810160405280929190818152602001828054611d40906146ea565b8015611d8d5780601f10611d6257610100808354040283529160200191611d8d565b820191906000526020600020905b815481529060010190602001808311611d7057829003601f168201915b5050505050908060080160009054906101000a900460ff16905089565b6000600560008473ffffffffffffffffffffffffffffffffffffffff1673ffffffffffffffffffffffffffffffffffffffff16815260200190815260200160002060008373ffffffffffffffffffffffffffffffffffffffff1673ffffffffffffffffffffffffffffffffffffffff16815260200190815260200160002060009054906101000a900460ff16905092915050565b60007f80ac58cd000000000000000000000000000000000000000000000000000000007bffffffffffffffffffffffffffffffffffffffffffffffffffffffff1916827bffffffffffffffffffffffffffffffffffffffffffffffffffffffff19161480611f0957507f5b5e139f000000000000000000000000000000000000000000000000000000007bffffffffffffffffffffffffffffffffffffffffffffffffffffffff1916827bffffffffffffffffffffffffffffffffffffffffffffffffffffffff1916145b80611f195750611f18826128e8565b5b9050919050565b60008073ffffffffffffffffffffffffffffffffffffffff166002600084815260200190815260200160002060009054906101000a900473ffffffffffffffffffffffffffffffffffffffff1673ffffffffffffffffffffffffffffffffffffffff1614159050919050565b816004600083815260200190815260200160002060006101000a81548173ffffffffffffffffffffffffffffffffffffffff021916908373ffffffffffffffffffffffffffffffffffffffff160217905550808273ffffffffffffffffffffffffffffffffffffffff16611fff83611102565b73ffffffffffffffffffffffffffffffffffffffff167f8c5be1e5ebec7d5bd14f71427d1e84f3dd0314c0f7b2291e5b200ac8c7c3b92560405160405180910390a45050565b600033905090565b600061205882611f20565b612097576040517f08c379a000000000000000000000000000000000000000000000000000000000815260040161208e906141a8565b60405180910390fd5b60006120a283611102565b90508073ffffffffffffffffffffffffffffffffffffffff168473ffffffffffffffffffffffffffffffffffffffff16148061211157508373ffffffffffffffffffffffffffffffffffffffff166120f9846106f3565b73ffffffffffffffffffffffffffffffffffffffff16145b8061212257506121218185611daa565b5b91505092915050565b8273ffffffffffffffffffffffffffffffffffffffff1661214b82611102565b73ffffffffffffffffffffffffffffffffffffffff16146121a1576040517f08c379a000000000000000000000000000000000000000000000000000000000815260040161219890614108565b60405180910390fd5b600073ffffffffffffffffffffffffffffffffffffffff168273ffffffffffffffffffffffffffffffffffffffff161415612211576040517f08c379a000000000000000000000000000000000000000000000000000000000815260040161220890614148565b60405180910390fd5b61221c838383612952565b612227600082611f8c565b6001600360008573ffffffffffffffffffffffffffffffffffffffff1673ffffffffffffffffffffffffffffffffffffffff16815260200190815260200160002060008282546122779190614600565b925050819055506001600360008473ffffffffffffffffffffffffffffffffffffffff1673ffffffffffffffffffffffffffffffffffffffff16815260200190815260200160002060008282546122ce919061451f565b92505081905550816002600083815260200190815260200160002060006101000a81548173ffffffffffffffffffffffffffffffffffffffff021916908373ffffffffffffffffffffffffffffffffffffffff160217905550808273ffffffffffffffffffffffffffffffffffffffff168473ffffffffffffffffffffffffffffffffffffffff167fddf252ad1be2c89b69c2b068fc378daa952ba7f163c4a11628f55a4df523b3ef60405160405180910390a461238d838383612a66565b505050565b606060008214156123da576040518060400160405280600181526020017f3000000000000000000000000000000000000000000000000000000000000000815250905061253a565b600082905060005b6000821461240c5780806123f59061474d565b915050600a826124059190614575565b91506123e2565b60008167ffffffffffffffff81111561244e577f4e487b7100000000000000000000000000000000000000000000000000000000600052604160045260246000fd5b6040519080825280601f01601f1916602001820160405280156124805781602001600182028036833780820191505090505b5090505b60008514612533576001826124999190614600565b9150600a856124a89190614796565b60306124b4919061451f565b60f81b8183815181106124f0577f4e487b7100000000000000000000000000000000000000000000000000000000600052603260045260246000fd5b60200101907effffffffffffffffffffffffffffffffffffffffffffffffffffffffffffff1916908160001a905350600a8561252c9190614575565b9450612484565b8093505050505b919050565b6060600082511415612562576040518060200160405280600081525090506126e5565b60006040518060600160405280604081526020016159ef6040913990506000600360028551612591919061451f565b61259b9190614575565b60046125a791906145a6565b905060006020826125b8919061451f565b67ffffffffffffffff8111156125f7577f4e487b7100000000000000000000000000000000000000000000000000000000600052604160045260246000fd5b6040519080825280601f01601f1916602001820160405280156126295781602001600182028036833780820191505090505b509050818152600183018586518101602084015b818310156126a4576003830192508251603f8160121c1685015160f81b8252600182019150603f81600c1c1685015160f81b8252600182019150603f8160061c1685015160f81b8252600182019150603f811685015160f81b82526001820191505061263d565b6003895106600181146126be57600281146126ce576126d9565b613d3d60f01b60028303526126d9565b603d60f81b60018303525b50505050508093505050505b919050565b612704828260405180602001604052806000815250612a6b565b5050565b8173ffffffffffffffffffffffffffffffffffffffff168373ffffffffffffffffffffffffffffffffffffffff161415612777576040517f08c379a000000000000000000000000000000000000000000000000000000000815260040161276e90614168565b60405180910390fd5b80600560008573ffffffffffffffffffffffffffffffffffffffff1673ffffffffffffffffffffffffffffffffffffffff16815260200190815260200160002060008473ffffffffffffffffffffffffffffffffffffffff1673ffffffffffffffffffffffffffffffffffffffff16815260200190815260200160002060006101000a81548160ff0219169083151502179055508173ffffffffffffffffffffffffffffffffffffffff168373ffffffffffffffffffffffffffffffffffffffff167f17307eab39ab6107e8899845ad3d59bd9653f200f220920489ca2b5937696c3183604051612868919061406b565b60405180910390a3505050565b61288084848461212b565b61288c84848484612ac6565b6128cb576040517f08c379a00000000000000000000000000000000000000000000000000000000081526004016128c2906140e8565b60405180910390fd5b50505050565b606060405180602001604052806000815250905090565b60007f01ffc9a7000000000000000000000000000000000000000000000000000000007bffffffffffffffffffffffffffffffffffffffffffffffffffffffff1916827bffffffffffffffffffffffffffffffffffffffffffffffffffffffff1916149050919050565b61295d838383612c5d565b600073ffffffffffffffffffffffffffffffffffffffff168373ffffffffffffffffffffffffffffffffffffffff1614156129a05761299b81612c62565b6129df565b8173ffffffffffffffffffffffffffffffffffffffff168373ffffffffffffffffffffffffffffffffffffffff16146129de576129dd8382612cab565b5b5b600073ffffffffffffffffffffffffffffffffffffffff168273ffffffffffffffffffffffffffffffffffffffff161415612a2257612a1d81612e18565b612a61565b8273ffffffffffffffffffffffffffffffffffffffff168273ffffffffffffffffffffffffffffffffffffffff1614612a6057612a5f8282612f5b565b5b5b505050565b505050565b612a758383612fda565b612a826000848484612ac6565b612ac1576040517f08c379a0000000000000000000000000000000000000000000000000000000008152600401612ab8906140e8565b60405180910390fd5b505050565b6000612ae78473ffffffffffffffffffffffffffffffffffffffff166131b4565b15612c50578373ffffffffffffffffffffffffffffffffffffffff1663150b7a02612b10612045565b8786866040518563ffffffff1660e01b8152600401612b32949392919061401f565b602060405180830381600087803b158015612b4c57600080fd5b505af1925050508015612b7d57506040513d601f19601f82011682018060405250810190612b7a9190613583565b60015b612c00573d8060008114612bad576040519150601f19603f3d011682016040523d82523d6000602084013e612bb2565b606091505b50600081511415612bf8576040517f08c379a0000000000000000000000000000000000000000000000000000000008152600401612bef906140e8565b60405180910390fd5b805181602001fd5b63150b7a0260e01b7bffffffffffffffffffffffffffffffffffffffffffffffffffffffff1916817bffffffffffffffffffffffffffffffffffffffffffffffffffffffff191614915050612c55565b600190505b949350505050565b505050565b6008805490506009600083815260200190815260200160002081905550600881908060018154018082558091505060019003906000526020600020016000909190919091505550565b60006001612cb884611558565b612cc29190614600565b9050600060076000848152602001908152602001600020549050818114612da7576000600660008673ffffffffffffffffffffffffffffffffffffffff1673ffffffffffffffffffffffffffffffffffffffff168152602001908152602001600020600084815260200190815260200160002054905080600660008773ffffffffffffffffffffffffffffffffffffffff1673ffffffffffffffffffffffffffffffffffffffff168152602001908152602001600020600084815260200190815260200160002081905550816007600083815260200190815260200160002081905550505b6007600084815260200190815260200160002060009055600660008573ffffffffffffffffffffffffffffffffffffffff1673ffffffffffffffffffffffffffffffffffffffff16815260200190815260200160002060008381526020019081526020016000206000905550505050565b60006001600880549050612e2c9190614600565b9050600060096000848152602001908152602001600020549050600060088381548110612e82577f4e487b7100000000000000000000000000000000000000000000000000000000600052603260045260246000fd5b906000526020600020015490508060088381548110612eca577f4e487b7100000000000000000000000000000000000000000000000000000000600052603260045260246000fd5b906000526020600020018190555081600960008381526020019081526020016000208190555060096000858152602001908152602001600020600090556008805480612f3f577f4e487b7100000000000000000000000000000000000000000000000000000000600052603160045260246000fd5b6001900381819060005260206000200160009055905550505050565b6000612f6683611558565b905081600660008573ffffffffffffffffffffffffffffffffffffffff1673ffffffffffffffffffffffffffffffffffffffff168152602001908152602001600020600083815260200190815260200160002081905550806007600084815260200190815260200160002081905550505050565b600073ffffffffffffffffffffffffffffffffffffffff168273ffffffffffffffffffffffffffffffffffffffff16141561304a576040517f08c379a000000000000000000000000000000000000000000000000000000000815260040161304190614228565b60405180910390fd5b61305381611f20565b15613093576040517f08c379a000000000000000000000000000000000000000000000000000000000815260040161308a90614128565b60405180910390fd5b61309f60008383612952565b6001600360008473ffffffffffffffffffffffffffffffffffffffff1673ffffffffffffffffffffffffffffffffffffffff16815260200190815260200160002060008282546130ef919061451f565b92505081905550816002600083815260200190815260200160002060006101000a81548173ffffffffffffffffffffffffffffffffffffffff021916908373ffffffffffffffffffffffffffffffffffffffff160217905550808273ffffffffffffffffffffffffffffffffffffffff16600073ffffffffffffffffffffffffffffffffffffffff167fddf252ad1be2c89b69c2b068fc378daa952ba7f163c4a11628f55a4df523b3ef60405160405180910390a46131b060008383612a66565b5050565b6000808273ffffffffffffffffffffffffffffffffffffffff163b119050919050565b8280546131e3906146ea565b90600052602060002090601f016020900481019282613205576000855561324c565b82601f1061321e57805160ff191683800117855561324c565b8280016001018555821561324c579182015b8281111561324b578251825591602001919060010190613230565b5b509050613259919061325d565b5090565b5b8082111561327657600081600090555060010161325e565b5090565b600061328d6132888461446f565b61444a565b9050828152602081018484840111156132a557600080fd5b6132b08482856146a8565b509392505050565b60006132cb6132c6846144a0565b61444a565b9050828152602081018484840111156132e357600080fd5b6132ee8482856146a8565b509392505050565b60008135905061330581615992565b92915050565b60008135905061331a816159a9565b92915050565b60008135905061332f816159c0565b92915050565b600081519050613344816159c0565b92915050565b600082601f83011261335b57600080fd5b813561336b84826020860161327a565b91505092915050565b600082601f83011261338557600080fd5b81356133958482602086016132b8565b91505092915050565b6000813590506133ad816159d7565b92915050565b6000602082840312156133c557600080fd5b60006133d3848285016132f6565b91505092915050565b600080604083850312156133ef57600080fd5b60006133fd858286016132f6565b925050602061340e858286016132f6565b9150509250929050565b60008060006060848603121561342d57600080fd5b600061343b868287016132f6565b935050602061344c868287016132f6565b925050604061345d8682870161339e565b9150509250925092565b6000806000806080858703121561347d57600080fd5b600061348b878288016132f6565b945050602061349c878288016132f6565b93505060406134ad8782880161339e565b925050606085013567ffffffffffffffff8111156134ca57600080fd5b6134d68782880161334a565b91505092959194509250565b600080604083850312156134f557600080fd5b6000613503858286016132f6565b92505060206135148582860161330b565b9150509250929050565b6000806040838503121561353157600080fd5b600061353f858286016132f6565b92505060206135508582860161339e565b9150509250929050565b60006020828403121561356c57600080fd5b600061357a84828501613320565b91505092915050565b60006020828403121561359557600080fd5b60006135a384828501613335565b91505092915050565b600080600080600060a086880312156135c457600080fd5b600086013567ffffffffffffffff8111156135de57600080fd5b6135ea88828901613374565b955050602086013567ffffffffffffffff81111561360757600080fd5b61361388828901613374565b945050604086013567ffffffffffffffff81111561363057600080fd5b61363c88828901613374565b935050606086013567ffffffffffffffff81111561365957600080fd5b61366588828901613374565b925050608086013567ffffffffffffffff81111561368257600080fd5b61368e88828901613374565b9150509295509295909350565b6000602082840312156136ad57600080fd5b60006136bb8482850161339e565b91505092915050565b6000806000606084860312156136d957600080fd5b60006136e78682870161339e565b93505060206136f8868287016132f6565b92505060406137098682870161339e565b9150509250925092565b6000806000806080858703121561372957600080fd5b60006137378782880161339e565b94505060206137488782880161339e565b93505060406137598782880161330b565b925050606061376a878288016132f6565b91505092959194509250565b61377f81614634565b82525050565b61378e81614646565b82525050565b600061379f826144d1565b6137a981856144e7565b93506137b98185602086016146b7565b6137c281614883565b840191505092915050565b60006137d8826144dc565b6137e28185614503565b93506137f28185602086016146b7565b6137fb81614883565b840191505092915050565b6000613811826144dc565b61381b8185614514565b935061382b8185602086016146b7565b80840191505092915050565b6000613844606e83614514565b915061384f82614894565b606e82019050919050565b6000613867600f83614503565b91506138728261492f565b602082019050919050565b600061388a606883614514565b915061389582614958565b606882019050919050565b60006138ad602b83614503565b91506138b8826149f3565b604082019050919050565b60006138d0603283614503565b91506138db82614a42565b604082019050919050565b60006138f3608583614514565b91506138fe82614a91565b608582019050919050565b6000613916604183614514565b915061392182614b52565b604182019050919050565b6000613939602583614503565b915061394482614bc7565b604082019050919050565b600061395c601c83614503565b915061396782614c16565b602082019050919050565b600061397f606783614514565b915061398a82614c3f565b606782019050919050565b60006139a2606f83614514565b91506139ad82614cda565b606f82019050919050565b60006139c5602483614503565b91506139d082614d75565b604082019050919050565b60006139e8601983614503565b91506139f382614dc4565b602082019050919050565b6000613a0b601d83614503565b9150613a1682614ded565b602082019050919050565b6000613a2e602c83614503565b9150613a3982614e16565b604082019050919050565b6000613a51607a83614514565b9150613a5c82614e65565b607a82019050919050565b6000613a74601783614503565b9150613a7f82614f00565b602082019050919050565b6000613a97602a83614503565b9150613aa282614f29565b604082019050919050565b6000613aba602983614503565b9150613ac582614f78565b604082019050919050565b6000613add606f83614514565b9150613ae882614fc7565b606f82019050919050565b6000613b00604283614514565b9150613b0b82615062565b604282019050919050565b6000613b23606883614514565b9150613b2e826150d7565b606882019050919050565b6000613b46607383614514565b9150613b5182615172565b607382019050919050565b6000613b69606f83614514565b9150613b748261520d565b606f82019050919050565b6000613b8c600783614514565b9150613b97826152a8565b600782019050919050565b6000613baf602083614503565b9150613bba826152d1565b602082019050919050565b6000613bd2601c83614503565b9150613bdd826152fa565b602082019050919050565b6000613bf5602c83614503565b9150613c0082615323565b604082019050919050565b6000613c18601283614503565b9150613c2382615372565b602082019050919050565b6000613c3b602f83614503565b9150613c468261539b565b604082019050919050565b6000613c5e606c83614514565b9150613c69826153ea565b606c82019050919050565b6000613c81604683614514565b9150613c8c82615485565b604682019050919050565b6000613ca46000836144f8565b9150613caf826154fa565b600082019050919050565b6000613cc7603183614503565b9150613cd2826154fd565b604082019050919050565b6000613cea604283614514565b9150613cf58261554c565b604282019050919050565b6000613d0d602c83614503565b9150613d18826155c1565b604082019050919050565b6000613d30606883614514565b9150613d3b82615610565b606882019050919050565b6000613d53606883614514565b9150613d5e826156ab565b606882019050919050565b6000613d76601483614503565b9150613d8182615746565b602082019050919050565b6000613d99606883614514565b9150613da48261576f565b606882019050919050565b6000613dbc600e83614503565b9150613dc78261580a565b602082019050919050565b6000613ddf600683614514565b9150613dea82615833565b600682019050919050565b6000613e02607783614514565b9150613e0d8261585c565b607782019050919050565b6000613e25607283614514565b9150613e30826158f7565b607282019050919050565b613e448161469e565b82525050565b6000613e568285613806565b9150613e628284613806565b91508190509392505050565b6000613e7982613909565b9150613e8482613c74565b9150613e8f82613af3565b9150613e9a82613a44565b9150613ea582613ad0565b9150613eb082613972565b9150613ebc8289613806565b9150613ec782613b7f565b9150613ed282613c51565b9150613edd82613d23565b9150613ee98288613806565b9150613ef482613b7f565b9150613eff82613995565b9150613f0a82613d46565b9150613f168287613806565b9150613f2182613b7f565b9150613f2c82613b5c565b9150613f3782613b16565b9150613f438286613806565b9150613f4e82613b7f565b9150613f5982613df5565b9150613f6482613d8c565b9150613f708285613806565b9150613f7b82613b7f565b9150613f8682613e18565b9150613f918261387d565b9150613f9d8284613806565b9150613fa882613b7f565b9150613fb382613cdd565b9150613fbe82613837565b9150613fc9826138e6565b9150613fd482613b39565b9150613fdf82613dd2565b9150819050979650505050505050565b6000613ffa82613c97565b9150819050919050565b60006020820190506140196000830184613776565b92915050565b60006080820190506140346000830187613776565b6140416020830186613776565b61404e6040830185613e3b565b81810360608301526140608184613794565b905095945050505050565b60006020820190506140806000830184613785565b92915050565b600060208201905081810360008301526140a081846137cd565b905092915050565b600060208201905081810360008301526140c18161385a565b9050919050565b600060208201905081810360008301526140e1816138a0565b9050919050565b60006020820190508181036000830152614101816138c3565b9050919050565b600060208201905081810360008301526141218161392c565b9050919050565b600060208201905081810360008301526141418161394f565b9050919050565b60006020820190508181036000830152614161816139b8565b9050919050565b60006020820190508181036000830152614181816139db565b9050919050565b600060208201905081810360008301526141a1816139fe565b9050919050565b600060208201905081810360008301526141c181613a21565b9050919050565b600060208201905081810360008301526141e181613a67565b9050919050565b6000602082019050818103600083015261420181613a8a565b9050919050565b6000602082019050818103600083015261422181613aad565b9050919050565b6000602082019050818103600083015261424181613ba2565b9050919050565b6000602082019050818103600083015261426181613bc5565b9050919050565b6000602082019050818103600083015261428181613be8565b9050919050565b600060208201905081810360008301526142a181613c0b565b9050919050565b600060208201905081810360008301526142c181613c2e565b9050919050565b600060208201905081810360008301526142e181613cba565b9050919050565b6000602082019050818103600083015261430181613d00565b9050919050565b6000602082019050818103600083015261432181613d69565b9050919050565b6000602082019050818103600083015261434181613daf565b9050919050565b600060208201905061435d6000830184613e3b565b92915050565b60006060820190506143786000830186613e3b565b6143856020830185613776565b6143926040830184613785565b949350505050565b6000610120820190506143b0600083018c613e3b565b6143bd602083018b613e3b565b6143ca604083018a613776565b81810360608301526143dc81896137cd565b905081810360808301526143f081886137cd565b905081810360a083015261440481876137cd565b905081810360c083015261441881866137cd565b905081810360e083015261442c81856137cd565b905061443c610100830184613785565b9a9950505050505050505050565b6000614454614465565b9050614460828261471c565b919050565b6000604051905090565b600067ffffffffffffffff82111561448a57614489614854565b5b61449382614883565b9050602081019050919050565b600067ffffffffffffffff8211156144bb576144ba614854565b5b6144c482614883565b9050602081019050919050565b600081519050919050565b600081519050919050565b600082825260208201905092915050565b600081905092915050565b600082825260208201905092915050565b600081905092915050565b600061452a8261469e565b91506145358361469e565b9250827fffffffffffffffffffffffffffffffffffffffffffffffffffffffffffffffff0382111561456a576145696147c7565b5b828201905092915050565b60006145808261469e565b915061458b8361469e565b92508261459b5761459a6147f6565b5b828204905092915050565b60006145b18261469e565b91506145bc8361469e565b9250817fffffffffffffffffffffffffffffffffffffffffffffffffffffffffffffffff04831182151516156145f5576145f46147c7565b5b828202905092915050565b600061460b8261469e565b91506146168361469e565b925082821015614629576146286147c7565b5b828203905092915050565b600061463f8261467e565b9050919050565b60008115159050919050565b60007fffffffff0000000000000000000000000000000000000000000000000000000082169050919050565b600073ffffffffffffffffffffffffffffffffffffffff82169050919050565b6000819050919050565b82818337600083830152505050565b60005b838110156146d55780820151818401526020810190506146ba565b838111156146e4576000848401525b50505050565b6000600282049050600182168061470257607f821691505b6020821081141561471657614715614825565b5b50919050565b61472582614883565b810181811067ffffffffffffffff8211171561474457614743614854565b5b80604052505050565b60006147588261469e565b91507fffffffffffffffffffffffffffffffffffffffffffffffffffffffffffffffff82141561478b5761478a6147c7565b5b600182019050919050565b60006147a18261469e565b91506147ac8361469e565b9250826147bc576147bb6147f6565b5b828206905092915050565b7f4e487b7100000000000000000000000000000000000000000000000000000000600052601160045260246000fd5b7f4e487b7100000000000000000000000000000000000000000000000000000000600052601260045260246000fd5b7f4e487b7100000000000000000000000000000000000000000000000000000000600052602260045260246000fd5b7f4e487b7100000000000000000000000000000000000000000000000000000000600052604160045260246000fd5b6000601f19601f8301169050919050565b7f3c7465787420783d22372220793d223234302e323433392220666f6e742d736960008201527f7a653d2231332220666f6e742d66616d696c793d22436f7572696572204e657760208201527f2c206d6f6e6f73706163652220666f6e742d7765696768743d22626f6c64223e60408201527f5361686962693a3c2f746578743e000000000000000000000000000000000000606082015250565b7f4e6f7420656e6f75676820455448210000000000000000000000000000000000600082015250565b7f3c7465787420783d2239352e33333333332220793d223138362e33333333332260008201527f20666f6e742d73697a653d2231332220666f6e742d66616d696c793d22436f7560208201527f72696572204e65772c206d6f6e6f73706163652220666f6e742d77656967687460408201527f3d22626f6c64223e000000000000000000000000000000000000000000000000606082015250565b7f455243373231456e756d657261626c653a206f776e657220696e646578206f7560008201527f74206f6620626f756e6473000000000000000000000000000000000000000000602082015250565b7f4552433732313a207472616e7366657220746f206e6f6e20455243373231526560008201527f63656976657220696d706c656d656e7465720000000000000000000000000000602082015250565b7f3c7465787420783d22372220793d223236302e343837382220666f6e742d736960008201527f7a653d2231332220666f6e742d66616d696c793d22436f7572696572204e657760208201527f2c206d6f6e6f73706163652220666f6e742d7765696768743d22626f6c64223e60408201527f3078303030303030303030303030303030303030303030303030303030303c2f60608201527f746578743e000000000000000000000000000000000000000000000000000000608082015250565b7f3c7376672077696474683d2233303022206865696768743d223330302220786d60008201527f6c6e733d22687474703a2f2f7777772e77332e6f72672f323030302f7376672260208201527f3e00000000000000000000000000000000000000000000000000000000000000604082015250565b7f4552433732313a207472616e736665722066726f6d20696e636f72726563742060008201527f6f776e6572000000000000000000000000000000000000000000000000000000602082015250565b7f4552433732313a20746f6b656e20616c7265616479206d696e74656400000000600082015250565b7f3c7465787420783d2239352e33333333332220793d2238352e3836393932222060008201527f666f6e742d73697a653d2231332220666f6e742d66616d696c793d22436f757260208201527f696572204e65772c206d6f6e6f73706163652220666f6e742d7765696768743d60408201527f22626f6c64223e00000000000000000000000000000000000000000000000000606082015250565b7f3c7465787420783d22372220793d223132352e38323131332220666f6e742d7360008201527f697a653d2231332220666f6e742d66616d696c793d22436f7572696572204e6560208201527f772c206d6f6e6f73706163652220666f6e742d7765696768743d22626f6c642260408201527f3ec4b06cc3a7653a3c2f746578743e0000000000000000000000000000000000606082015250565b7f4552433732313a207472616e7366657220746f20746865207a65726f2061646460008201527f7265737300000000000000000000000000000000000000000000000000000000602082015250565b7f4552433732313a20617070726f766520746f2063616c6c657200000000000000600082015250565b7f596f75206d757374206265206f776e6572206f6620746865206e667421000000600082015250565b7f4552433732313a206f70657261746f7220717565727920666f72206e6f6e657860008201527f697374656e7420746f6b656e0000000000000000000000000000000000000000602082015250565b7f3c7465787420783d2237392e35323038342220793d2233322e3331373037222060008201527f666f6e742d73697a653d2232342220666f6e742d66616d696c793d22436f757260208201527f696572204e65772c206d6f6e6f73706163652220666f6e742d7765696768743d60408201527f22626f6c64223e544150552053454e4544c4b03c2f746578743e000000000000606082015250565b7f546869732064656564206e6f7420666f722073616c6521000000000000000000600082015250565b7f4552433732313a2062616c616e636520717565727920666f7220746865207a6560008201527f726f206164647265737300000000000000000000000000000000000000000000602082015250565b7f4552433732313a206f776e657220717565727920666f72206e6f6e657869737460008201527f656e7420746f6b656e0000000000000000000000000000000000000000000000602082015250565b7f3c7465787420783d22372220793d2238352e33383231312220666f6e742d736960008201527f7a653d2231332220666f6e742d66616d696c793d22436f7572696572204e657760208201527f2c206d6f6e6f73706163652220666f6e742d7765696768743d22626f6c64223e60408201527f54617075204e6f3a3c2f746578743e0000000000000000000000000000000000606082015250565b7f3c726563742066696c6c3d2268736c283232302c20313030252c20363025292260008201527f20793d223530222077696474683d2233303022206865696768743d223137302260208201527f2f3e000000000000000000000000000000000000000000000000000000000000604082015250565b7f3c7465787420783d2239352e33333333332220793d223134352e38323131332260008201527f20666f6e742d73697a653d2231332220666f6e742d66616d696c793d22436f7560208201527f72696572204e65772c206d6f6e6f73706163652220666f6e742d77656967687460408201527f3d22626f6c64223e000000000000000000000000000000000000000000000000606082015250565b7f3c7465787420783d22372220793d223238302e343837382220666f6e742d736960008201527f7a653d2231332220666f6e742d66616d696c793d22436f7572696572204e657760208201527f2c206d6f6e6f73706163652220666f6e742d7765696768743d22626f6c64223e60408201527f4661746968204261796b616c3c2f746578743e00000000000000000000000000606082015250565b7f3c7465787420783d22372220793d223134352e383634352220666f6e742d736960008201527f7a653d2231332220666f6e742d66616d696c793d22436f7572696572204e657760208201527f2c206d6f6e6f73706163652220666f6e742d7765696768743d22626f6c64223e60408201527f4d6168616c6c653a3c2f746578743e0000000000000000000000000000000000606082015250565b7f3c2f746578743e00000000000000000000000000000000000000000000000000600082015250565b7f4552433732313a206d696e7420746f20746865207a65726f2061646472657373600082015250565b7f596f752063616e27742062757920796f7572206f776e20646565642100000000600082015250565b7f4552433732313a20617070726f76656420717565727920666f72206e6f6e657860008201527f697374656e7420746f6b656e0000000000000000000000000000000000000000602082015250565b7f596f7520617265206e6f74206f776e6572210000000000000000000000000000600082015250565b7f4552433732314d657461646174613a2055524920717565727920666f72206e6f60008201527f6e6578697374656e7420746f6b656e0000000000000000000000000000000000602082015250565b7f3c7465787420783d22372220793d223130352e38323131332220666f6e742d7360008201527f697a653d2231332220666f6e742d66616d696c793d22436f7572696572204e6560208201527f772c206d6f6e6f73706163652220666f6e742d7765696768743d22626f6c642260408201527f3ec4b06c3a3c2f746578743e0000000000000000000000000000000000000000606082015250565b7f3c726563742066696c6c3d2268736c283132302c20313030252c20363025292260008201527f20783d22302220793d2230222077696474683d2233303022206865696768743d60208201527f223530222f3e0000000000000000000000000000000000000000000000000000604082015250565b50565b7f4552433732313a207472616e736665722063616c6c6572206973206e6f74206f60008201527f776e6572206e6f7220617070726f766564000000000000000000000000000000602082015250565b7f3c726563742066696c6c3d2268736c283331322c20313030252c20363025292260008201527f20793d22323230222077696474683d2233303022206865696768743d2238302260208201527f2f3e000000000000000000000000000000000000000000000000000000000000604082015250565b7f455243373231456e756d657261626c653a20676c6f62616c20696e646578206f60008201527f7574206f6620626f756e64730000000000000000000000000000000000000000602082015250565b7f3c7465787420783d2239352e33333333332220793d223130352e38323131332260008201527f20666f6e742d73697a653d2231332220666f6e742d66616d696c793d22436f7560208201527f72696572204e65772c206d6f6e6f73706163652220666f6e742d77656967687460408201527f3d22626f6c64223e000000000000000000000000000000000000000000000000606082015250565b7f3c7465787420783d2239352e33333333332220793d223132352e38323131332260008201527f20666f6e742d73697a653d2231332220666f6e742d66616d696c793d22436f7560208201527f72696572204e65772c206d6f6e6f73706163652220666f6e742d77656967687460408201527f3d22626f6c64223e000000000000000000000000000000000000000000000000606082015250565b7f546f6b656e206964206e6f742065786973747321000000000000000000000000600082015250565b7f3c7465787420783d2239352e33333333332220793d223136362e33333333332260008201527f20666f6e742d73697a653d2231332220666f6e742d66616d696c793d22436f7560208201527f72696572204e65772c206d6f6e6f73706163652220666f6e742d77656967687460408201527f3d22626f6c64223e000000000000000000000000000000000000000000000000606082015250565b7f57726f6e67206164647265737321000000000000000000000000000000000000600082015250565b7f3c2f7376673e0000000000000000000000000000000000000000000000000000600082015250565b7f3c7465787420783d22372220793d223136362e33333333332220666f6e742d7360008201527f697a653d2231332220666f6e742d66616d696c793d22436f7572696572204e6560208201527f772c206d6f6e6f73706163652220666f6e742d7765696768743d22626f6c642260408201527f3e59c3bc7ac3b66cc3a7c3bc6dc3bc3a3c2f746578743e000000000000000000606082015250565b7f3c7465787420783d22372220793d223138362e33333333332220666f6e742d7360008201527f697a653d2231332220666f6e742d66616d696c793d22436f7572696572204e6560208201527f772c206d6f6e6f73706163652220666f6e742d7765696768743d22626f6c642260408201527f3e4b6f6f7264696e61743a3c2f746578743e0000000000000000000000000000606082015250565b61599b81614634565b81146159a657600080fd5b50565b6159b281614646565b81146159bd57600080fd5b50565b6159c981614652565b81146159d457600080fd5b50565b6159e08161469e565b81146159eb57600080fd5b5056fe4142434445464748494a4b4c4d4e4f505152535455565758595a6162636465666768696a6b6c6d6e6f707172737475767778797a303132333435363738392b2fa2646970667358221220cd5c69f4247d94c8c629ddb2ae86830b95427d446de6e6ad6ddcf59694acb30864736f6c63430008010033",
  "immutableReferences": {},
  "source": "// SPDX-License-Identifier: MIT\r\n\r\npragma solidity >=0.8.0 <0.9.0;\r\n\r\nimport \"@openzeppelin/contracts/token/ERC721/extensions/ERC721Enumerable.sol\";\r\nimport \"@openzeppelin/contracts/utils/Strings.sol\";\r\nimport \"./Base64.sol\";\r\n\r\ncontract DeedNFT is ERC721Enumerable {\r\n\r\n  struct TitleDeed {\r\n    uint256 ID;\r\n    uint256 price;\r\n    address owner;\r\n    string province;\r\n    string area;\r\n    string county;\r\n    string district;\r\n    string coordinates;\r\n    bool forSale;\r\n  }\r\n\r\n  address contractOwner;\r\n  mapping (uint256 => TitleDeed) public allTitleDeeds;\r\n  \r\n  constructor() ERC721(\"Title Deed NFT\", \"DNFT\") {\r\n    contractOwner = msg.sender;\r\n  }\r\n\r\n  function mint(\r\n    string memory _province,\r\n    string memory _area,\r\n    string memory _county,\r\n    string memory _district,\r\n    string memory _coordinates\r\n  ) public {\r\n    uint256 supply = totalSupply();\r\n    \r\n    TitleDeed memory newDeed = TitleDeed(\r\n      supply + 1,\r\n      0,\r\n      msg.sender,\r\n      _province,\r\n      _area,\r\n      _county,\r\n      _district,\r\n      _coordinates,\r\n      false\r\n    );\r\n    \r\n    allTitleDeeds[supply + 1] = newDeed;\r\n    _safeMint(msg.sender, supply + 1);\r\n  }\r\n\r\n  modifier onlyOwner() {\r\n    require(msg.sender == contractOwner, \"You are not owner!\");\r\n    _;\r\n  }\r\n\r\n  function approve(address _to, uint256 _tokenId) override public {\r\n      _approve(_to, _tokenId);\r\n  }\r\n\r\n  function updateDeedForSale(uint256 _tokenId, uint256 _price, bool _forSale, address _sender) public {\r\n    require(_exists(_tokenId), \"Token id not exists!\");\r\n    require(ownerOf(_tokenId) == _sender, \"You must be owner of the nft!\");\r\n    \r\n    TitleDeed storage deed = allTitleDeeds[_tokenId];\r\n    deed.price = _price;\r\n    deed.forSale = _forSale;\r\n  }\r\n\r\n  function buyTitleDeed(uint256 _tokenId, address _sender, uint256 _value) public returns(address) { // msg sender kullanc olduu iin hata veriyor\r\n    require(_sender != address(0), \"Wrong address!\");\r\n    require(_exists(_tokenId), \"Token id not exists!\");\r\n    address deedOwner = ownerOf(_tokenId);\r\n    require(deedOwner != address(0), \"Wrong address!\");\r\n    require(deedOwner != _sender, \"You can't buy your own deed!\");\r\n    TitleDeed storage deed = allTitleDeeds[_tokenId];\r\n    require(_value >= deed.price, \"Not enough ETH!\");\r\n    require(deed.forSale, \"This deed not for sale!\");\r\n\r\n    transferFrom(deedOwner, _sender, _tokenId);\r\n    deed.owner = _sender;\r\n    deed.forSale = false;\r\n    // event onceki sahip, sonraki sahip, timestamp, price vs.\r\n    return deedOwner;\r\n  }\r\n\r\n  function getDeed(uint256 _tokenId) public view returns(uint256, address, bool) {\r\n    TitleDeed memory deed = allTitleDeeds[_tokenId];\r\n    return (deed.price, deed.owner, deed.forSale);\r\n  }\r\n\r\n  function buildImage(uint256 _tokenId) public view returns(string memory) {\r\n      TitleDeed memory currentDeed = allTitleDeeds[_tokenId];\r\n      return Base64.encode(bytes(\r\n          abi.encodePacked(\r\n              '<svg width=\"300\" height=\"300\" xmlns=\"http://www.w3.org/2000/svg\">',\r\n              '<rect fill=\"hsl(120, 100%, 60%)\" x=\"0\" y=\"0\" width=\"300\" height=\"50\"/>',\r\n              '<rect fill=\"hsl(220, 100%, 60%)\" y=\"50\" width=\"300\" height=\"170\"/>',\r\n              '<text x=\"79.52084\" y=\"32.31707\" font-size=\"24\" font-family=\"Courier New, monospace\" font-weight=\"bold\">TAPU SENED\\xc4\\xb0</text>',\r\n              '<text x=\"7\" y=\"85.38211\" font-size=\"13\" font-family=\"Courier New, monospace\" font-weight=\"bold\">Tapu No:</text>',\r\n              '<text x=\"95.33333\" y=\"85.86992\" font-size=\"13\" font-family=\"Courier New, monospace\" font-weight=\"bold\">', Strings.toString(currentDeed.ID),'</text>',\r\n              '<text x=\"7\" y=\"105.82113\" font-size=\"13\" font-family=\"Courier New, monospace\" font-weight=\"bold\">\\xc4\\xb0l:</text>',\r\n              '<text x=\"95.33333\" y=\"105.82113\" font-size=\"13\" font-family=\"Courier New, monospace\" font-weight=\"bold\">', currentDeed.province,'</text>',\r\n              '<text x=\"7\" y=\"125.82113\" font-size=\"13\" font-family=\"Courier New, monospace\" font-weight=\"bold\">\\xc4\\xb0l\\xc3\\xa7e:</text>',\r\n              '<text x=\"95.33333\" y=\"125.82113\" font-size=\"13\" font-family=\"Courier New, monospace\" font-weight=\"bold\">', currentDeed.county,'</text>',\r\n              '<text x=\"7\" y=\"145.8645\" font-size=\"13\" font-family=\"Courier New, monospace\" font-weight=\"bold\">Mahalle:</text>',\r\n              '<text x=\"95.33333\" y=\"145.82113\" font-size=\"13\" font-family=\"Courier New, monospace\" font-weight=\"bold\">', currentDeed.district,'</text>',\r\n              '<text x=\"7\" y=\"166.33333\" font-size=\"13\" font-family=\"Courier New, monospace\" font-weight=\"bold\">Y\\xc3\\xbcz\\xc3\\xb6l\\xc3\\xa7\\xc3\\xbcm\\xc3\\xbc:</text>',\r\n              '<text x=\"95.33333\" y=\"166.33333\" font-size=\"13\" font-family=\"Courier New, monospace\" font-weight=\"bold\">', currentDeed.area,'</text>',\r\n              '<text x=\"7\" y=\"186.33333\" font-size=\"13\" font-family=\"Courier New, monospace\" font-weight=\"bold\">Koordinat:</text>',\r\n              '<text x=\"95.33333\" y=\"186.33333\" font-size=\"13\" font-family=\"Courier New, monospace\" font-weight=\"bold\">', currentDeed.coordinates,'</text>',\r\n              '<rect fill=\"hsl(312, 100%, 60%)\" y=\"220\" width=\"300\" height=\"80\"/>',\r\n              '<text x=\"7\" y=\"240.2439\" font-size=\"13\" font-family=\"Courier New, monospace\" font-weight=\"bold\">Sahibi:</text>',\r\n              '<text x=\"7\" y=\"260.4878\" font-size=\"13\" font-family=\"Courier New, monospace\" font-weight=\"bold\">0x0000000000000000000000000000</text>',\r\n              '<text x=\"7\" y=\"280.4878\" font-size=\"13\" font-family=\"Courier New, monospace\" font-weight=\"bold\">Fatih Baykal</text>',\r\n              '</svg>'\r\n          )\r\n      ));\r\n  }\r\n\r\n  function withdraw(address to) public payable onlyOwner {\r\n    (bool os, ) = payable(to).call{value: address(this).balance}(\"\");\r\n    require(os);\r\n  }\r\n\r\n}",
  "sourcePath": "C:\\Users\\Fatih\\Desktop\\Fatih\\Projeler devler\\Blockchain Projects\\DeedNFTApp\\truffle\\contracts\\DeedNFT.sol",
  "compiler": {
    "name": "solc",
    "version": "0.8.1+commit.df193b15.Emscripten.clang"
  },
  "schemaVersion": "3.4.7",
  "updatedAt": "2022-05-10T19:22:53.788Z",
  "networkType": "ethereum",
  "devdoc": {
    "kind": "dev",
    "methods": {
      "balanceOf(address)": {
        "details": "See {IERC721-balanceOf}."
      },
      "getApproved(uint256)": {
        "details": "See {IERC721-getApproved}."
      },
      "isApprovedForAll(address,address)": {
        "details": "See {IERC721-isApprovedForAll}."
      },
      "name()": {
        "details": "See {IERC721Metadata-name}."
      },
      "ownerOf(uint256)": {
        "details": "See {IERC721-ownerOf}."
      },
      "safeTransferFrom(address,address,uint256)": {
        "details": "See {IERC721-safeTransferFrom}."
      },
      "safeTransferFrom(address,address,uint256,bytes)": {
        "details": "See {IERC721-safeTransferFrom}."
      },
      "setApprovalForAll(address,bool)": {
        "details": "See {IERC721-setApprovalForAll}."
      },
      "supportsInterface(bytes4)": {
        "details": "See {IERC165-supportsInterface}."
      },
      "symbol()": {
        "details": "See {IERC721Metadata-symbol}."
      },
      "tokenByIndex(uint256)": {
        "details": "See {IERC721Enumerable-tokenByIndex}."
      },
      "tokenOfOwnerByIndex(address,uint256)": {
        "details": "See {IERC721Enumerable-tokenOfOwnerByIndex}."
      },
      "tokenURI(uint256)": {
        "details": "See {IERC721Metadata-tokenURI}."
      },
      "totalSupply()": {
        "details": "See {IERC721Enumerable-totalSupply}."
      },
      "transferFrom(address,address,uint256)": {
        "details": "See {IERC721-transferFrom}."
      }
    },
    "version": 1
  },
  "userdoc": {
    "kind": "user",
    "methods": {},
    "version": 1
  }
}