{
  "contractName": "DeedNFT",
  "abi": [
    {
      "inputs": [],
      "stateMutability": "nonpayable",
      "type": "constructor"
    },
    {
      "anonymous": false,
      "inputs": [
        {
          "indexed": true,
          "internalType": "address",
          "name": "owner",
          "type": "address"
        },
        {
          "indexed": true,
          "internalType": "address",
          "name": "approved",
          "type": "address"
        },
        {
          "indexed": true,
          "internalType": "uint256",
          "name": "tokenId",
          "type": "uint256"
        }
      ],
      "name": "Approval",
      "type": "event"
    },
    {
      "anonymous": false,
      "inputs": [
        {
          "indexed": true,
          "internalType": "address",
          "name": "owner",
          "type": "address"
        },
        {
          "indexed": true,
          "internalType": "address",
          "name": "operator",
          "type": "address"
        },
        {
          "indexed": false,
          "internalType": "bool",
          "name": "approved",
          "type": "bool"
        }
      ],
      "name": "ApprovalForAll",
      "type": "event"
    },
    {
      "anonymous": false,
      "inputs": [
        {
          "indexed": true,
          "internalType": "address",
          "name": "from",
          "type": "address"
        },
        {
          "indexed": true,
          "internalType": "address",
          "name": "to",
          "type": "address"
        },
        {
          "indexed": true,
          "internalType": "uint256",
          "name": "tokenId",
          "type": "uint256"
        }
      ],
      "name": "Transfer",
      "type": "event"
    },
    {
      "inputs": [
        {
          "internalType": "uint256",
          "name": "",
          "type": "uint256"
        }
      ],
      "name": "allTitleDeeds",
      "outputs": [
        {
          "internalType": "uint256",
          "name": "ID",
          "type": "uint256"
        },
        {
          "internalType": "uint256",
          "name": "price",
          "type": "uint256"
        },
        {
          "internalType": "address",
          "name": "owner",
          "type": "address"
        },
        {
          "internalType": "string",
          "name": "province",
          "type": "string"
        },
        {
          "internalType": "string",
          "name": "area",
          "type": "string"
        },
        {
          "internalType": "string",
          "name": "county",
          "type": "string"
        },
        {
          "internalType": "string",
          "name": "district",
          "type": "string"
        },
        {
          "internalType": "string",
          "name": "coordinates",
          "type": "string"
        },
        {
          "internalType": "bool",
          "name": "forSale",
          "type": "bool"
        }
      ],
      "stateMutability": "view",
      "type": "function",
      "constant": true
    },
    {
      "inputs": [
        {
          "internalType": "address",
          "name": "to",
          "type": "address"
        },
        {
          "internalType": "uint256",
          "name": "tokenId",
          "type": "uint256"
        }
      ],
      "name": "approve",
      "outputs": [],
      "stateMutability": "nonpayable",
      "type": "function"
    },
    {
      "inputs": [
        {
          "internalType": "address",
          "name": "owner",
          "type": "address"
        }
      ],
      "name": "balanceOf",
      "outputs": [
        {
          "internalType": "uint256",
          "name": "",
          "type": "uint256"
        }
      ],
      "stateMutability": "view",
      "type": "function",
      "constant": true
    },
    {
      "inputs": [
        {
          "internalType": "uint256",
          "name": "tokenId",
          "type": "uint256"
        }
      ],
      "name": "getApproved",
      "outputs": [
        {
          "internalType": "address",
          "name": "",
          "type": "address"
        }
      ],
      "stateMutability": "view",
      "type": "function",
      "constant": true
    },
    {
      "inputs": [
        {
          "internalType": "address",
          "name": "owner",
          "type": "address"
        },
        {
          "internalType": "address",
          "name": "operator",
          "type": "address"
        }
      ],
      "name": "isApprovedForAll",
      "outputs": [
        {
          "internalType": "bool",
          "name": "",
          "type": "bool"
        }
      ],
      "stateMutability": "view",
      "type": "function",
      "constant": true
    },
    {
      "inputs": [],
      "name": "name",
      "outputs": [
        {
          "internalType": "string",
          "name": "",
          "type": "string"
        }
      ],
      "stateMutability": "view",
      "type": "function",
      "constant": true
    },
    {
      "inputs": [
        {
          "internalType": "uint256",
          "name": "tokenId",
          "type": "uint256"
        }
      ],
      "name": "ownerOf",
      "outputs": [
        {
          "internalType": "address",
          "name": "",
          "type": "address"
        }
      ],
      "stateMutability": "view",
      "type": "function",
      "constant": true
    },
    {
      "inputs": [
        {
          "internalType": "address",
          "name": "from",
          "type": "address"
        },
        {
          "internalType": "address",
          "name": "to",
          "type": "address"
        },
        {
          "internalType": "uint256",
          "name": "tokenId",
          "type": "uint256"
        }
      ],
      "name": "safeTransferFrom",
      "outputs": [],
      "stateMutability": "nonpayable",
      "type": "function"
    },
    {
      "inputs": [
        {
          "internalType": "address",
          "name": "from",
          "type": "address"
        },
        {
          "internalType": "address",
          "name": "to",
          "type": "address"
        },
        {
          "internalType": "uint256",
          "name": "tokenId",
          "type": "uint256"
        },
        {
          "internalType": "bytes",
          "name": "_data",
          "type": "bytes"
        }
      ],
      "name": "safeTransferFrom",
      "outputs": [],
      "stateMutability": "nonpayable",
      "type": "function"
    },
    {
      "inputs": [
        {
          "internalType": "address",
          "name": "operator",
          "type": "address"
        },
        {
          "internalType": "bool",
          "name": "approved",
          "type": "bool"
        }
      ],
      "name": "setApprovalForAll",
      "outputs": [],
      "stateMutability": "nonpayable",
      "type": "function"
    },
    {
      "inputs": [
        {
          "internalType": "bytes4",
          "name": "interfaceId",
          "type": "bytes4"
        }
      ],
      "name": "supportsInterface",
      "outputs": [
        {
          "internalType": "bool",
          "name": "",
          "type": "bool"
        }
      ],
      "stateMutability": "view",
      "type": "function",
      "constant": true
    },
    {
      "inputs": [],
      "name": "symbol",
      "outputs": [
        {
          "internalType": "string",
          "name": "",
          "type": "string"
        }
      ],
      "stateMutability": "view",
      "type": "function",
      "constant": true
    },
    {
      "inputs": [
        {
          "internalType": "uint256",
          "name": "index",
          "type": "uint256"
        }
      ],
      "name": "tokenByIndex",
      "outputs": [
        {
          "internalType": "uint256",
          "name": "",
          "type": "uint256"
        }
      ],
      "stateMutability": "view",
      "type": "function",
      "constant": true
    },
    {
      "inputs": [
        {
          "internalType": "address",
          "name": "owner",
          "type": "address"
        },
        {
          "internalType": "uint256",
          "name": "index",
          "type": "uint256"
        }
      ],
      "name": "tokenOfOwnerByIndex",
      "outputs": [
        {
          "internalType": "uint256",
          "name": "",
          "type": "uint256"
        }
      ],
      "stateMutability": "view",
      "type": "function",
      "constant": true
    },
    {
      "inputs": [
        {
          "internalType": "uint256",
          "name": "tokenId",
          "type": "uint256"
        }
      ],
      "name": "tokenURI",
      "outputs": [
        {
          "internalType": "string",
          "name": "",
          "type": "string"
        }
      ],
      "stateMutability": "view",
      "type": "function",
      "constant": true
    },
    {
      "inputs": [],
      "name": "totalSupply",
      "outputs": [
        {
          "internalType": "uint256",
          "name": "",
          "type": "uint256"
        }
      ],
      "stateMutability": "view",
      "type": "function",
      "constant": true
    },
    {
      "inputs": [
        {
          "internalType": "address",
          "name": "from",
          "type": "address"
        },
        {
          "internalType": "address",
          "name": "to",
          "type": "address"
        },
        {
          "internalType": "uint256",
          "name": "tokenId",
          "type": "uint256"
        }
      ],
      "name": "transferFrom",
      "outputs": [],
      "stateMutability": "nonpayable",
      "type": "function"
    },
    {
      "inputs": [
        {
          "internalType": "address",
          "name": "_address",
          "type": "address"
        }
      ],
      "name": "setMarketContract",
      "outputs": [],
      "stateMutability": "nonpayable",
      "type": "function"
    },
    {
      "inputs": [
        {
          "internalType": "string",
          "name": "_province",
          "type": "string"
        },
        {
          "internalType": "string",
          "name": "_area",
          "type": "string"
        },
        {
          "internalType": "string",
          "name": "_county",
          "type": "string"
        },
        {
          "internalType": "string",
          "name": "_district",
          "type": "string"
        },
        {
          "internalType": "string",
          "name": "_coordinates",
          "type": "string"
        }
      ],
      "name": "mint",
      "outputs": [],
      "stateMutability": "nonpayable",
      "type": "function"
    },
    {
      "inputs": [
        {
          "internalType": "uint256",
          "name": "_tokenId",
          "type": "uint256"
        },
        {
          "internalType": "uint256",
          "name": "_price",
          "type": "uint256"
        },
        {
          "internalType": "bool",
          "name": "_forSale",
          "type": "bool"
        },
        {
          "internalType": "address",
          "name": "_sender",
          "type": "address"
        }
      ],
      "name": "updateDeedForSale",
      "outputs": [],
      "stateMutability": "nonpayable",
      "type": "function"
    },
    {
      "inputs": [
        {
          "internalType": "uint256",
          "name": "_tokenId",
          "type": "uint256"
        },
        {
          "internalType": "address",
          "name": "_sender",
          "type": "address"
        },
        {
          "internalType": "uint256",
          "name": "_value",
          "type": "uint256"
        }
      ],
      "name": "buyTitleDeed",
      "outputs": [
        {
          "internalType": "address",
          "name": "",
          "type": "address"
        }
      ],
      "stateMutability": "nonpayable",
      "type": "function"
    },
    {
      "inputs": [
        {
          "internalType": "uint256",
          "name": "_tokenId",
          "type": "uint256"
        }
      ],
      "name": "getDeed",
      "outputs": [
        {
          "internalType": "uint256",
          "name": "",
          "type": "uint256"
        },
        {
          "internalType": "address",
          "name": "",
          "type": "address"
        },
        {
          "internalType": "bool",
          "name": "",
          "type": "bool"
        }
      ],
      "stateMutability": "view",
      "type": "function",
      "constant": true
    },
    {
      "inputs": [
        {
          "internalType": "uint256",
          "name": "_tokenId",
          "type": "uint256"
        }
      ],
      "name": "buildImage",
      "outputs": [
        {
          "internalType": "string",
          "name": "",
          "type": "string"
        }
      ],
      "stateMutability": "view",
      "type": "function",
      "constant": true
    },
    {
      "inputs": [
        {
          "internalType": "address",
          "name": "to",
          "type": "address"
        }
      ],
      "name": "withdraw",
      "outputs": [],
      "stateMutability": "payable",
      "type": "function",
      "payable": true
    }
  ],
  "bytecode": "0x60806040523480156200001157600080fd5b506040518060400160405280600e81526020017f5469746c652044656564204e46540000000000000000000000000000000000008152506040518060400160405280600481526020017f444e465400000000000000000000000000000000000000000000000000000000815250816000908051906020019062000096929190620000f9565b508060019080519060200190620000af929190620000f9565b50505033600a60006101000a81548173ffffffffffffffffffffffffffffffffffffffff021916908373ffffffffffffffffffffffffffffffffffffffff1602179055506200020e565b8280546200010790620001a9565b90600052602060002090601f0160209004810192826200012b576000855562000177565b82601f106200014657805160ff191683800117855562000177565b8280016001018555821562000177579182015b828111156200017657825182559160200191906001019062000159565b5b5090506200018691906200018a565b5090565b5b80821115620001a55760008160009055506001016200018b565b5090565b60006002820490506001821680620001c257607f821691505b60208210811415620001d957620001d8620001df565b5b50919050565b7f4e487b7100000000000000000000000000000000000000000000000000000000600052602260045260246000fd5b615e5a806200021e6000396000f3fe60806040526004361061014b5760003560e01c80636352211e116100b6578063a22cb4651161006f578063a22cb465146104e1578063b88d4fde1461050a578063c87b56dd14610533578063e728fae914610570578063e985e9c5146105b5578063f85ea2ab146105f25761014b565b80636352211e146103ab578063683ad727146103e857806370a082311461042757806386833e91146104645780638804c1e11461048d57806395d89b41146104b65761014b565b80632ba80eba116101085780632ba80eba146102725780632f745c59146102af57806336f699a9146102ec57806342842e0e146103295780634f6ccce71461035257806351cff8d91461038f5761014b565b806301ffc9a71461015057806306fdde031461018d578063081812fc146101b8578063095ea7b3146101f557806318160ddd1461021e57806323b872dd14610249575b600080fd5b34801561015c57600080fd5b506101776004803603810190610172919061379a565b61061b565b6040516101849190614314565b60405180910390f35b34801561019957600080fd5b506101a2610695565b6040516101af919061432f565b60405180910390f35b3480156101c457600080fd5b506101df60048036038101906101da91906138db565b610727565b6040516101ec91906142ad565b60405180910390f35b34801561020157600080fd5b5061021c6004803603810190610217919061375e565b6107ac565b005b34801561022a57600080fd5b506102336108c4565b6040516102409190614651565b60405180910390f35b34801561025557600080fd5b50610270600480360381019061026b9190613658565b6108d1565b005b34801561027e57600080fd5b50610299600480360381019061029491906138db565b610931565b6040516102a6919061432f565b60405180910390f35b3480156102bb57600080fd5b506102d660048036038101906102d1919061375e565b610d0f565b6040516102e39190614651565b60405180910390f35b3480156102f857600080fd5b50610313600480360381019061030e9190613904565b610db4565b60405161032091906142ad565b60405180910390f35b34801561033557600080fd5b50610350600480360381019061034b9190613658565b61107f565b005b34801561035e57600080fd5b50610379600480360381019061037491906138db565b61109f565b6040516103869190614651565b60405180910390f35b6103a960048036038101906103a491906135f3565b611136565b005b3480156103b757600080fd5b506103d260048036038101906103cd91906138db565b611240565b6040516103df91906142ad565b60405180910390f35b3480156103f457600080fd5b5061040f600480360381019061040a91906138db565b6112f2565b60405161041e9392919061466c565b60405180910390f35b34801561043357600080fd5b5061044e600480360381019061044991906135f3565b611696565b60405161045b9190614651565b60405180910390f35b34801561047057600080fd5b5061048b600480360381019061048691906137ec565b61174e565b005b34801561049957600080fd5b506104b460048036038101906104af9190613953565b611940565b005b3480156104c257600080fd5b506104cb611a41565b6040516104d8919061432f565b60405180910390f35b3480156104ed57600080fd5b5061050860048036038101906105039190613722565b611ad3565b005b34801561051657600080fd5b50610531600480360381019061052c91906136a7565b611ae9565b005b34801561053f57600080fd5b5061055a600480360381019061055591906138db565b611b4b565b604051610567919061432f565b60405180910390f35b34801561057c57600080fd5b50610597600480360381019061059291906138db565b611bf2565b6040516105ac999897969594939291906146a3565b60405180910390f35b3480156105c157600080fd5b506105dc60048036038101906105d7919061361c565b611f15565b6040516105e99190614314565b60405180910390f35b3480156105fe57600080fd5b50610619600480360381019061061491906135f3565b611fa9565b005b60007f780e9d63000000000000000000000000000000000000000000000000000000007bffffffffffffffffffffffffffffffffffffffffffffffffffffffff1916827bffffffffffffffffffffffffffffffffffffffffffffffffffffffff1916148061068e575061068d8261207e565b5b9050919050565b6060600080546106a4906149f3565b80601f01602080910402602001604051908101604052809291908181526020018280546106d0906149f3565b801561071d5780601f106106f25761010080835404028352916020019161071d565b820191906000526020600020905b81548152906001019060200180831161070057829003601f168201915b5050505050905090565b600061073282612160565b610771576040517f08c379a000000000000000000000000000000000000000000000000000000000815260040161076890614551565b60405180910390fd5b6004600083815260200190815260200160002060009054906101000a900473ffffffffffffffffffffffffffffffffffffffff169050919050565b60006107b782611240565b90508073ffffffffffffffffffffffffffffffffffffffff168373ffffffffffffffffffffffffffffffffffffffff161415610828576040517f08c379a000000000000000000000000000000000000000000000000000000000815260040161081f906145b1565b60405180910390fd5b8073ffffffffffffffffffffffffffffffffffffffff166108476121cc565b73ffffffffffffffffffffffffffffffffffffffff1614806108765750610875816108706121cc565b611f15565b5b6108b5576040517f08c379a00000000000000000000000000000000000000000000000000000000081526004016108ac906144b1565b60405180910390fd5b6108bf83836121d4565b505050565b6000600880549050905090565b6108e26108dc6121cc565b8261228d565b610921576040517f08c379a0000000000000000000000000000000000000000000000000000000008152600401610918906145d1565b60405180910390fd5b61092c83838361236b565b505050565b60606000600c60008481526020019081526020016000206040518061012001604052908160008201548152602001600182015481526020016002820160009054906101000a900473ffffffffffffffffffffffffffffffffffffffff1673ffffffffffffffffffffffffffffffffffffffff1673ffffffffffffffffffffffffffffffffffffffff1681526020016003820180546109ce906149f3565b80601f01602080910402602001604051908101604052809291908181526020018280546109fa906149f3565b8015610a475780601f10610a1c57610100808354040283529160200191610a47565b820191906000526020600020905b815481529060010190602001808311610a2a57829003601f168201915b50505050508152602001600482018054610a60906149f3565b80601f0160208091040260200160405190810160405280929190818152602001828054610a8c906149f3565b8015610ad95780601f10610aae57610100808354040283529160200191610ad9565b820191906000526020600020905b815481529060010190602001808311610abc57829003601f168201915b50505050508152602001600582018054610af2906149f3565b80601f0160208091040260200160405190810160405280929190818152602001828054610b1e906149f3565b8015610b6b5780601f10610b4057610100808354040283529160200191610b6b565b820191906000526020600020905b815481529060010190602001808311610b4e57829003601f168201915b50505050508152602001600682018054610b84906149f3565b80601f0160208091040260200160405190810160405280929190818152602001828054610bb0906149f3565b8015610bfd5780601f10610bd257610100808354040283529160200191610bfd565b820191906000526020600020905b815481529060010190602001808311610be057829003601f168201915b50505050508152602001600782018054610c16906149f3565b80601f0160208091040260200160405190810160405280929190818152602001828054610c42906149f3565b8015610c8f5780601f10610c6457610100808354040283529160200191610c8f565b820191906000526020600020905b815481529060010190602001808311610c7257829003601f168201915b505050505081526020016008820160009054906101000a900460ff1615151515815250509050610d07610cc582600001516125d2565b82606001518360a001518460c0015185608001518660e00151604051602001610cf396959493929190614117565b60405160208183030381529060405261277f565b915050919050565b6000610d1a83611696565b8210610d5b576040517f08c379a0000000000000000000000000000000000000000000000000000000008152600401610d5290614391565b60405180910390fd5b600660008473ffffffffffffffffffffffffffffffffffffffff1673ffffffffffffffffffffffffffffffffffffffff168152602001908152602001600020600083815260200190815260200160002054905092915050565b60008073ffffffffffffffffffffffffffffffffffffffff168373ffffffffffffffffffffffffffffffffffffffff161415610e25576040517f08c379a0000000000000000000000000000000000000000000000000000000008152600401610e1c90614631565b60405180910390fd5b610e2e84612160565b610e6d576040517f08c379a0000000000000000000000000000000000000000000000000000000008152600401610e6490614611565b60405180910390fd5b6000610e7885611240565b9050600073ffffffffffffffffffffffffffffffffffffffff168173ffffffffffffffffffffffffffffffffffffffff161415610eea576040517f08c379a0000000000000000000000000000000000000000000000000000000008152600401610ee190614631565b60405180910390fd5b8373ffffffffffffffffffffffffffffffffffffffff168173ffffffffffffffffffffffffffffffffffffffff161415610f59576040517f08c379a0000000000000000000000000000000000000000000000000000000008152600401610f5090614531565b60405180910390fd5b6000600c600087815260200190815260200160002090508060010154841015610fb7576040517f08c379a0000000000000000000000000000000000000000000000000000000008152600401610fae90614371565b60405180910390fd5b8060080160009054906101000a900460ff16611008576040517f08c379a0000000000000000000000000000000000000000000000000000000008152600401610fff90614491565b60405180910390fd5b6110138286886108d1565b848160020160006101000a81548173ffffffffffffffffffffffffffffffffffffffff021916908373ffffffffffffffffffffffffffffffffffffffff16021790555060008160080160006101000a81548160ff02191690831515021790555081925050509392505050565b61109a83838360405180602001604052806000815250611ae9565b505050565b60006110a96108c4565b82106110ea576040517f08c379a00000000000000000000000000000000000000000000000000000000081526004016110e1906145f1565b60405180910390fd5b60088281548110611124577f4e487b7100000000000000000000000000000000000000000000000000000000600052603260045260246000fd5b90600052602060002001549050919050565b600a60009054906101000a900473ffffffffffffffffffffffffffffffffffffffff1673ffffffffffffffffffffffffffffffffffffffff163373ffffffffffffffffffffffffffffffffffffffff16146111c6576040517f08c379a00000000000000000000000000000000000000000000000000000000081526004016111bd90614571565b60405180910390fd5b60008173ffffffffffffffffffffffffffffffffffffffff16476040516111ec90614298565b60006040518083038185875af1925050503d8060008114611229576040519150601f19603f3d011682016040523d82523d6000602084013e61122e565b606091505b505090508061123c57600080fd5b5050565b6000806002600084815260200190815260200160002060009054906101000a900473ffffffffffffffffffffffffffffffffffffffff169050600073ffffffffffffffffffffffffffffffffffffffff168173ffffffffffffffffffffffffffffffffffffffff1614156112e9576040517f08c379a00000000000000000000000000000000000000000000000000000000081526004016112e0906144f1565b60405180910390fd5b80915050919050565b600080600080600c60008681526020019081526020016000206040518061012001604052908160008201548152602001600182015481526020016002820160009054906101000a900473ffffffffffffffffffffffffffffffffffffffff1673ffffffffffffffffffffffffffffffffffffffff1673ffffffffffffffffffffffffffffffffffffffff168152602001600382018054611391906149f3565b80601f01602080910402602001604051908101604052809291908181526020018280546113bd906149f3565b801561140a5780601f106113df5761010080835404028352916020019161140a565b820191906000526020600020905b8154815290600101906020018083116113ed57829003601f168201915b50505050508152602001600482018054611423906149f3565b80601f016020809104026020016040519081016040528092919081815260200182805461144f906149f3565b801561149c5780601f106114715761010080835404028352916020019161149c565b820191906000526020600020905b81548152906001019060200180831161147f57829003601f168201915b505050505081526020016005820180546114b5906149f3565b80601f01602080910402602001604051908101604052809291908181526020018280546114e1906149f3565b801561152e5780601f106115035761010080835404028352916020019161152e565b820191906000526020600020905b81548152906001019060200180831161151157829003601f168201915b50505050508152602001600682018054611547906149f3565b80601f0160208091040260200160405190810160405280929190818152602001828054611573906149f3565b80156115c05780601f10611595576101008083540402835291602001916115c0565b820191906000526020600020905b8154815290600101906020018083116115a357829003601f168201915b505050505081526020016007820180546115d9906149f3565b80601f0160208091040260200160405190810160405280929190818152602001828054611605906149f3565b80156116525780601f1061162757610100808354040283529160200191611652565b820191906000526020600020905b81548152906001019060200180831161163557829003601f168201915b505050505081526020016008820160009054906101000a900460ff161515151581525050905080602001518160400151826101000151935093509350509193909250565b60008073ffffffffffffffffffffffffffffffffffffffff168273ffffffffffffffffffffffffffffffffffffffff161415611707576040517f08c379a00000000000000000000000000000000000000000000000000000000081526004016116fe906144d1565b60405180910390fd5b600360008373ffffffffffffffffffffffffffffffffffffffff1673ffffffffffffffffffffffffffffffffffffffff168152602001908152602001600020549050919050565b60006117586108c4565b905060006040518061012001604052806001846117759190614828565b8152602001600081526020013373ffffffffffffffffffffffffffffffffffffffff16815260200188815260200187815260200186815260200185815260200184815260200160001515815250905080600c60006001856117d69190614828565b8152602001908152602001600020600082015181600001556020820151816001015560408201518160020160006101000a81548173ffffffffffffffffffffffffffffffffffffffff021916908373ffffffffffffffffffffffffffffffffffffffff160217905550606082015181600301908051906020019061185b929190613417565b506080820151816004019080519060200190611878929190613417565b5060a0820151816005019080519060200190611895929190613417565b5060c08201518160060190805190602001906118b2929190613417565b5060e08201518160070190805190602001906118cf929190613417565b506101008201518160080160006101000a81548160ff02191690831515021790555090505061190a336001846119059190614828565b61292a565b611937600b60009054906101000a900473ffffffffffffffffffffffffffffffffffffffff166001611ad3565b50505050505050565b61194984612160565b611988576040517f08c379a000000000000000000000000000000000000000000000000000000000815260040161197f90614611565b60405180910390fd5b8073ffffffffffffffffffffffffffffffffffffffff166119a885611240565b73ffffffffffffffffffffffffffffffffffffffff16146119fe576040517f08c379a00000000000000000000000000000000000000000000000000000000081526004016119f590614451565b60405180910390fd5b6000600c60008681526020019081526020016000209050838160010181905550828160080160006101000a81548160ff0219169083151502179055505050505050565b606060018054611a50906149f3565b80601f0160208091040260200160405190810160405280929190818152602001828054611a7c906149f3565b8015611ac95780601f10611a9e57610100808354040283529160200191611ac9565b820191906000526020600020905b815481529060010190602001808311611aac57829003601f168201915b5050505050905090565b611ae5611ade6121cc565b8383612948565b5050565b611afa611af46121cc565b8361228d565b611b39576040517f08c379a0000000000000000000000000000000000000000000000000000000008152600401611b30906145d1565b60405180910390fd5b611b4584848484612ab5565b50505050565b6060611b5682612160565b611b95576040517f08c379a0000000000000000000000000000000000000000000000000000000008152600401611b8c90614591565b60405180910390fd5b6000611b9f612b11565b90506000815111611bbf5760405180602001604052806000815250611bea565b80611bc9846125d2565b604051602001611bda9291906140f3565b6040516020818303038152906040525b915050919050565b600c6020528060005260406000206000915090508060000154908060010154908060020160009054906101000a900473ffffffffffffffffffffffffffffffffffffffff1690806003018054611c47906149f3565b80601f0160208091040260200160405190810160405280929190818152602001828054611c73906149f3565b8015611cc05780601f10611c9557610100808354040283529160200191611cc0565b820191906000526020600020905b815481529060010190602001808311611ca357829003601f168201915b505050505090806004018054611cd5906149f3565b80601f0160208091040260200160405190810160405280929190818152602001828054611d01906149f3565b8015611d4e5780601f10611d2357610100808354040283529160200191611d4e565b820191906000526020600020905b815481529060010190602001808311611d3157829003601f168201915b505050505090806005018054611d63906149f3565b80601f0160208091040260200160405190810160405280929190818152602001828054611d8f906149f3565b8015611ddc5780601f10611db157610100808354040283529160200191611ddc565b820191906000526020600020905b815481529060010190602001808311611dbf57829003601f168201915b505050505090806006018054611df1906149f3565b80601f0160208091040260200160405190810160405280929190818152602001828054611e1d906149f3565b8015611e6a5780601f10611e3f57610100808354040283529160200191611e6a565b820191906000526020600020905b815481529060010190602001808311611e4d57829003601f168201915b505050505090806007018054611e7f906149f3565b80601f0160208091040260200160405190810160405280929190818152602001828054611eab906149f3565b8015611ef85780601f10611ecd57610100808354040283529160200191611ef8565b820191906000526020600020905b815481529060010190602001808311611edb57829003601f168201915b5050505050908060080160009054906101000a900460ff16905089565b6000600560008473ffffffffffffffffffffffffffffffffffffffff1673ffffffffffffffffffffffffffffffffffffffff16815260200190815260200160002060008373ffffffffffffffffffffffffffffffffffffffff1673ffffffffffffffffffffffffffffffffffffffff16815260200190815260200160002060009054906101000a900460ff16905092915050565b600073ffffffffffffffffffffffffffffffffffffffff16600b60009054906101000a900473ffffffffffffffffffffffffffffffffffffffff1673ffffffffffffffffffffffffffffffffffffffff161461203a576040517f08c379a000000000000000000000000000000000000000000000000000000000815260040161203190614351565b60405180910390fd5b80600b60006101000a81548173ffffffffffffffffffffffffffffffffffffffff021916908373ffffffffffffffffffffffffffffffffffffffff16021790555050565b60007f80ac58cd000000000000000000000000000000000000000000000000000000007bffffffffffffffffffffffffffffffffffffffffffffffffffffffff1916827bffffffffffffffffffffffffffffffffffffffffffffffffffffffff1916148061214957507f5b5e139f000000000000000000000000000000000000000000000000000000007bffffffffffffffffffffffffffffffffffffffffffffffffffffffff1916827bffffffffffffffffffffffffffffffffffffffffffffffffffffffff1916145b80612159575061215882612b28565b5b9050919050565b60008073ffffffffffffffffffffffffffffffffffffffff166002600084815260200190815260200160002060009054906101000a900473ffffffffffffffffffffffffffffffffffffffff1673ffffffffffffffffffffffffffffffffffffffff1614159050919050565b600033905090565b816004600083815260200190815260200160002060006101000a81548173ffffffffffffffffffffffffffffffffffffffff021916908373ffffffffffffffffffffffffffffffffffffffff160217905550808273ffffffffffffffffffffffffffffffffffffffff1661224783611240565b73ffffffffffffffffffffffffffffffffffffffff167f8c5be1e5ebec7d5bd14f71427d1e84f3dd0314c0f7b2291e5b200ac8c7c3b92560405160405180910390a45050565b600061229882612160565b6122d7576040517f08c379a00000000000000000000000000000000000000000000000000000000081526004016122ce90614471565b60405180910390fd5b60006122e283611240565b90508073ffffffffffffffffffffffffffffffffffffffff168473ffffffffffffffffffffffffffffffffffffffff16148061235157508373ffffffffffffffffffffffffffffffffffffffff1661233984610727565b73ffffffffffffffffffffffffffffffffffffffff16145b8061236257506123618185611f15565b5b91505092915050565b8273ffffffffffffffffffffffffffffffffffffffff1661238b82611240565b73ffffffffffffffffffffffffffffffffffffffff16146123e1576040517f08c379a00000000000000000000000000000000000000000000000000000000081526004016123d8906143d1565b60405180910390fd5b600073ffffffffffffffffffffffffffffffffffffffff168273ffffffffffffffffffffffffffffffffffffffff161415612451576040517f08c379a000000000000000000000000000000000000000000000000000000000815260040161244890614411565b60405180910390fd5b61245c838383612b92565b6124676000826121d4565b6001600360008573ffffffffffffffffffffffffffffffffffffffff1673ffffffffffffffffffffffffffffffffffffffff16815260200190815260200160002060008282546124b79190614909565b925050819055506001600360008473ffffffffffffffffffffffffffffffffffffffff1673ffffffffffffffffffffffffffffffffffffffff168152602001908152602001600020600082825461250e9190614828565b92505081905550816002600083815260200190815260200160002060006101000a81548173ffffffffffffffffffffffffffffffffffffffff021916908373ffffffffffffffffffffffffffffffffffffffff160217905550808273ffffffffffffffffffffffffffffffffffffffff168473ffffffffffffffffffffffffffffffffffffffff167fddf252ad1be2c89b69c2b068fc378daa952ba7f163c4a11628f55a4df523b3ef60405160405180910390a46125cd838383612ca6565b505050565b6060600082141561261a576040518060400160405280600181526020017f3000000000000000000000000000000000000000000000000000000000000000815250905061277a565b600082905060005b6000821461264c57808061263590614a56565b915050600a82612645919061487e565b9150612622565b60008167ffffffffffffffff81111561268e577f4e487b7100000000000000000000000000000000000000000000000000000000600052604160045260246000fd5b6040519080825280601f01601f1916602001820160405280156126c05781602001600182028036833780820191505090505b5090505b60008514612773576001826126d99190614909565b9150600a856126e89190614a9f565b60306126f49190614828565b60f81b818381518110612730577f4e487b7100000000000000000000000000000000000000000000000000000000600052603260045260246000fd5b60200101907effffffffffffffffffffffffffffffffffffffffffffffffffffffffffffff1916908160001a905350600a8561276c919061487e565b94506126c4565b8093505050505b919050565b60606000825114156127a257604051806020016040528060008152509050612925565b6000604051806060016040528060408152602001615de560409139905060006003600285516127d19190614828565b6127db919061487e565b60046127e791906148af565b905060006020826127f89190614828565b67ffffffffffffffff811115612837577f4e487b7100000000000000000000000000000000000000000000000000000000600052604160045260246000fd5b6040519080825280601f01601f1916602001820160405280156128695781602001600182028036833780820191505090505b509050818152600183018586518101602084015b818310156128e4576003830192508251603f8160121c1685015160f81b8252600182019150603f81600c1c1685015160f81b8252600182019150603f8160061c1685015160f81b8252600182019150603f811685015160f81b82526001820191505061287d565b6003895106600181146128fe576002811461290e57612919565b613d3d60f01b6002830352612919565b603d60f81b60018303525b50505050508093505050505b919050565b612944828260405180602001604052806000815250612cab565b5050565b8173ffffffffffffffffffffffffffffffffffffffff168373ffffffffffffffffffffffffffffffffffffffff1614156129b7576040517f08c379a00000000000000000000000000000000000000000000000000000000081526004016129ae90614431565b60405180910390fd5b80600560008573ffffffffffffffffffffffffffffffffffffffff1673ffffffffffffffffffffffffffffffffffffffff16815260200190815260200160002060008473ffffffffffffffffffffffffffffffffffffffff1673ffffffffffffffffffffffffffffffffffffffff16815260200190815260200160002060006101000a81548160ff0219169083151502179055508173ffffffffffffffffffffffffffffffffffffffff168373ffffffffffffffffffffffffffffffffffffffff167f17307eab39ab6107e8899845ad3d59bd9653f200f220920489ca2b5937696c3183604051612aa89190614314565b60405180910390a3505050565b612ac084848461236b565b612acc84848484612d06565b612b0b576040517f08c379a0000000000000000000000000000000000000000000000000000000008152600401612b02906143b1565b60405180910390fd5b50505050565b606060405180602001604052806000815250905090565b60007f01ffc9a7000000000000000000000000000000000000000000000000000000007bffffffffffffffffffffffffffffffffffffffffffffffffffffffff1916827bffffffffffffffffffffffffffffffffffffffffffffffffffffffff1916149050919050565b612b9d838383612e9d565b600073ffffffffffffffffffffffffffffffffffffffff168373ffffffffffffffffffffffffffffffffffffffff161415612be057612bdb81612ea2565b612c1f565b8173ffffffffffffffffffffffffffffffffffffffff168373ffffffffffffffffffffffffffffffffffffffff1614612c1e57612c1d8382612eeb565b5b5b600073ffffffffffffffffffffffffffffffffffffffff168273ffffffffffffffffffffffffffffffffffffffff161415612c6257612c5d81613058565b612ca1565b8273ffffffffffffffffffffffffffffffffffffffff168273ffffffffffffffffffffffffffffffffffffffff1614612ca057612c9f828261319b565b5b5b505050565b505050565b612cb5838361321a565b612cc26000848484612d06565b612d01576040517f08c379a0000000000000000000000000000000000000000000000000000000008152600401612cf8906143b1565b60405180910390fd5b505050565b6000612d278473ffffffffffffffffffffffffffffffffffffffff166133f4565b15612e90578373ffffffffffffffffffffffffffffffffffffffff1663150b7a02612d506121cc565b8786866040518563ffffffff1660e01b8152600401612d7294939291906142c8565b602060405180830381600087803b158015612d8c57600080fd5b505af1925050508015612dbd57506040513d601f19601f82011682018060405250810190612dba91906137c3565b60015b612e40573d8060008114612ded576040519150601f19603f3d011682016040523d82523d6000602084013e612df2565b606091505b50600081511415612e38576040517f08c379a0000000000000000000000000000000000000000000000000000000008152600401612e2f906143b1565b60405180910390fd5b805181602001fd5b63150b7a0260e01b7bffffffffffffffffffffffffffffffffffffffffffffffffffffffff1916817bffffffffffffffffffffffffffffffffffffffffffffffffffffffff191614915050612e95565b600190505b949350505050565b505050565b6008805490506009600083815260200190815260200160002081905550600881908060018154018082558091505060019003906000526020600020016000909190919091505550565b60006001612ef884611696565b612f029190614909565b9050600060076000848152602001908152602001600020549050818114612fe7576000600660008673ffffffffffffffffffffffffffffffffffffffff1673ffffffffffffffffffffffffffffffffffffffff168152602001908152602001600020600084815260200190815260200160002054905080600660008773ffffffffffffffffffffffffffffffffffffffff1673ffffffffffffffffffffffffffffffffffffffff168152602001908152602001600020600084815260200190815260200160002081905550816007600083815260200190815260200160002081905550505b6007600084815260200190815260200160002060009055600660008573ffffffffffffffffffffffffffffffffffffffff1673ffffffffffffffffffffffffffffffffffffffff16815260200190815260200160002060008381526020019081526020016000206000905550505050565b6000600160088054905061306c9190614909565b90506000600960008481526020019081526020016000205490506000600883815481106130c2577f4e487b7100000000000000000000000000000000000000000000000000000000600052603260045260246000fd5b90600052602060002001549050806008838154811061310a577f4e487b7100000000000000000000000000000000000000000000000000000000600052603260045260246000fd5b90600052602060002001819055508160096000838152602001908152602001600020819055506009600085815260200190815260200160002060009055600880548061317f577f4e487b7100000000000000000000000000000000000000000000000000000000600052603160045260246000fd5b6001900381819060005260206000200160009055905550505050565b60006131a683611696565b905081600660008573ffffffffffffffffffffffffffffffffffffffff1673ffffffffffffffffffffffffffffffffffffffff168152602001908152602001600020600083815260200190815260200160002081905550806007600084815260200190815260200160002081905550505050565b600073ffffffffffffffffffffffffffffffffffffffff168273ffffffffffffffffffffffffffffffffffffffff16141561328a576040517f08c379a000000000000000000000000000000000000000000000000000000000815260040161328190614511565b60405180910390fd5b61329381612160565b156132d3576040517f08c379a00000000000000000000000000000000000000000000000000000000081526004016132ca906143f1565b60405180910390fd5b6132df60008383612b92565b6001600360008473ffffffffffffffffffffffffffffffffffffffff1673ffffffffffffffffffffffffffffffffffffffff168152602001908152602001600020600082825461332f9190614828565b92505081905550816002600083815260200190815260200160002060006101000a81548173ffffffffffffffffffffffffffffffffffffffff021916908373ffffffffffffffffffffffffffffffffffffffff160217905550808273ffffffffffffffffffffffffffffffffffffffff16600073ffffffffffffffffffffffffffffffffffffffff167fddf252ad1be2c89b69c2b068fc378daa952ba7f163c4a11628f55a4df523b3ef60405160405180910390a46133f060008383612ca6565b5050565b6000808273ffffffffffffffffffffffffffffffffffffffff163b119050919050565b828054613423906149f3565b90600052602060002090601f016020900481019282613445576000855561348c565b82601f1061345e57805160ff191683800117855561348c565b8280016001018555821561348c579182015b8281111561348b578251825591602001919060010190613470565b5b509050613499919061349d565b5090565b5b808211156134b657600081600090555060010161349e565b5090565b60006134cd6134c884614778565b614753565b9050828152602081018484840111156134e557600080fd5b6134f08482856149b1565b509392505050565b600061350b613506846147a9565b614753565b90508281526020810184848401111561352357600080fd5b61352e8482856149b1565b509392505050565b60008135905061354581615d88565b92915050565b60008135905061355a81615d9f565b92915050565b60008135905061356f81615db6565b92915050565b60008151905061358481615db6565b92915050565b600082601f83011261359b57600080fd5b81356135ab8482602086016134ba565b91505092915050565b600082601f8301126135c557600080fd5b81356135d58482602086016134f8565b91505092915050565b6000813590506135ed81615dcd565b92915050565b60006020828403121561360557600080fd5b600061361384828501613536565b91505092915050565b6000806040838503121561362f57600080fd5b600061363d85828601613536565b925050602061364e85828601613536565b9150509250929050565b60008060006060848603121561366d57600080fd5b600061367b86828701613536565b935050602061368c86828701613536565b925050604061369d868287016135de565b9150509250925092565b600080600080608085870312156136bd57600080fd5b60006136cb87828801613536565b94505060206136dc87828801613536565b93505060406136ed878288016135de565b925050606085013567ffffffffffffffff81111561370a57600080fd5b6137168782880161358a565b91505092959194509250565b6000806040838503121561373557600080fd5b600061374385828601613536565b92505060206137548582860161354b565b9150509250929050565b6000806040838503121561377157600080fd5b600061377f85828601613536565b9250506020613790858286016135de565b9150509250929050565b6000602082840312156137ac57600080fd5b60006137ba84828501613560565b91505092915050565b6000602082840312156137d557600080fd5b60006137e384828501613575565b91505092915050565b600080600080600060a0868803121561380457600080fd5b600086013567ffffffffffffffff81111561381e57600080fd5b61382a888289016135b4565b955050602086013567ffffffffffffffff81111561384757600080fd5b613853888289016135b4565b945050604086013567ffffffffffffffff81111561387057600080fd5b61387c888289016135b4565b935050606086013567ffffffffffffffff81111561389957600080fd5b6138a5888289016135b4565b925050608086013567ffffffffffffffff8111156138c257600080fd5b6138ce888289016135b4565b9150509295509295909350565b6000602082840312156138ed57600080fd5b60006138fb848285016135de565b91505092915050565b60008060006060848603121561391957600080fd5b6000613927868287016135de565b935050602061393886828701613536565b9250506040613949868287016135de565b9150509250925092565b6000806000806080858703121561396957600080fd5b6000613977878288016135de565b9450506020613988878288016135de565b93505060406139998782880161354b565b92505060606139aa87828801613536565b91505092959194509250565b6139bf8161493d565b82525050565b6139ce8161494f565b82525050565b60006139df826147da565b6139e981856147f0565b93506139f98185602086016149c0565b613a0281614b8c565b840191505092915050565b6000613a18826147e5565b613a22818561480c565b9350613a328185602086016149c0565b613a3b81614b8c565b840191505092915050565b6000613a51826147e5565b613a5b818561481d565b9350613a6b8185602086016149c0565b80840191505092915050565b6000613a8460268361480c565b9150613a8f82614b9d565b604082019050919050565b6000613aa7606e8361481d565b9150613ab282614bec565b606e82019050919050565b6000613aca600f8361480c565b9150613ad582614c87565b602082019050919050565b6000613aed60688361481d565b9150613af882614cb0565b606882019050919050565b6000613b10602b8361480c565b9150613b1b82614d4b565b604082019050919050565b6000613b3360328361480c565b9150613b3e82614d9a565b604082019050919050565b6000613b5660858361481d565b9150613b6182614de9565b608582019050919050565b6000613b7960418361481d565b9150613b8482614eaa565b604182019050919050565b6000613b9c60258361480c565b9150613ba782614f1f565b604082019050919050565b6000613bbf601c8361480c565b9150613bca82614f6e565b602082019050919050565b6000613be260678361481d565b9150613bed82614f97565b606782019050919050565b6000613c05606f8361481d565b9150613c1082615032565b606f82019050919050565b6000613c2860248361480c565b9150613c33826150cd565b604082019050919050565b6000613c4b60198361480c565b9150613c568261511c565b602082019050919050565b6000613c6e601d8361480c565b9150613c7982615145565b602082019050919050565b6000613c91602c8361480c565b9150613c9c8261516e565b604082019050919050565b6000613cb4607a8361481d565b9150613cbf826151bd565b607a82019050919050565b6000613cd760178361480c565b9150613ce282615258565b602082019050919050565b6000613cfa60388361480c565b9150613d0582615281565b604082019050919050565b6000613d1d602a8361480c565b9150613d28826152d0565b604082019050919050565b6000613d4060298361480c565b9150613d4b8261531f565b604082019050919050565b6000613d63606f8361481d565b9150613d6e8261536e565b606f82019050919050565b6000613d8660428361481d565b9150613d9182615409565b604282019050919050565b6000613da960688361481d565b9150613db48261547e565b606882019050919050565b6000613dcc60738361481d565b9150613dd782615519565b607382019050919050565b6000613def606f8361481d565b9150613dfa826155b4565b606f82019050919050565b6000613e1260078361481d565b9150613e1d8261564f565b600782019050919050565b6000613e3560208361480c565b9150613e4082615678565b602082019050919050565b6000613e58601c8361480c565b9150613e63826156a1565b602082019050919050565b6000613e7b602c8361480c565b9150613e86826156ca565b604082019050919050565b6000613e9e60128361480c565b9150613ea982615719565b602082019050919050565b6000613ec1602f8361480c565b9150613ecc82615742565b604082019050919050565b6000613ee460218361480c565b9150613eef82615791565b604082019050919050565b6000613f07606c8361481d565b9150613f12826157e0565b606c82019050919050565b6000613f2a60468361481d565b9150613f358261587b565b604682019050919050565b6000613f4d600083614801565b9150613f58826158f0565b600082019050919050565b6000613f7060318361480c565b9150613f7b826158f3565b604082019050919050565b6000613f9360428361481d565b9150613f9e82615942565b604282019050919050565b6000613fb6602c8361480c565b9150613fc1826159b7565b604082019050919050565b6000613fd960688361481d565b9150613fe482615a06565b606882019050919050565b6000613ffc60688361481d565b915061400782615aa1565b606882019050919050565b600061401f60148361480c565b915061402a82615b3c565b602082019050919050565b600061404260688361481d565b915061404d82615b65565b606882019050919050565b6000614065600e8361480c565b915061407082615c00565b602082019050919050565b600061408860068361481d565b915061409382615c29565b600682019050919050565b60006140ab60778361481d565b91506140b682615c52565b607782019050919050565b60006140ce60728361481d565b91506140d982615ced565b607282019050919050565b6140ed816149a7565b82525050565b60006140ff8285613a46565b915061410b8284613a46565b91508190509392505050565b600061412282613b6c565b915061412d82613f1d565b915061413882613d79565b915061414382613ca7565b915061414e82613d56565b915061415982613bd5565b91506141658289613a46565b915061417082613e05565b915061417b82613efa565b915061418682613fcc565b91506141928288613a46565b915061419d82613e05565b91506141a882613bf8565b91506141b382613fef565b91506141bf8287613a46565b91506141ca82613e05565b91506141d582613de2565b91506141e082613d9c565b91506141ec8286613a46565b91506141f782613e05565b91506142028261409e565b915061420d82614035565b91506142198285613a46565b915061422482613e05565b915061422f826140c1565b915061423a82613ae0565b91506142468284613a46565b915061425182613e05565b915061425c82613f86565b915061426782613a9a565b915061427282613b49565b915061427d82613dbf565b91506142888261407b565b9150819050979650505050505050565b60006142a382613f40565b9150819050919050565b60006020820190506142c260008301846139b6565b92915050565b60006080820190506142dd60008301876139b6565b6142ea60208301866139b6565b6142f760408301856140e4565b818103606083015261430981846139d4565b905095945050505050565b600060208201905061432960008301846139c5565b92915050565b600060208201905081810360008301526143498184613a0d565b905092915050565b6000602082019050818103600083015261436a81613a77565b9050919050565b6000602082019050818103600083015261438a81613abd565b9050919050565b600060208201905081810360008301526143aa81613b03565b9050919050565b600060208201905081810360008301526143ca81613b26565b9050919050565b600060208201905081810360008301526143ea81613b8f565b9050919050565b6000602082019050818103600083015261440a81613bb2565b9050919050565b6000602082019050818103600083015261442a81613c1b565b9050919050565b6000602082019050818103600083015261444a81613c3e565b9050919050565b6000602082019050818103600083015261446a81613c61565b9050919050565b6000602082019050818103600083015261448a81613c84565b9050919050565b600060208201905081810360008301526144aa81613cca565b9050919050565b600060208201905081810360008301526144ca81613ced565b9050919050565b600060208201905081810360008301526144ea81613d10565b9050919050565b6000602082019050818103600083015261450a81613d33565b9050919050565b6000602082019050818103600083015261452a81613e28565b9050919050565b6000602082019050818103600083015261454a81613e4b565b9050919050565b6000602082019050818103600083015261456a81613e6e565b9050919050565b6000602082019050818103600083015261458a81613e91565b9050919050565b600060208201905081810360008301526145aa81613eb4565b9050919050565b600060208201905081810360008301526145ca81613ed7565b9050919050565b600060208201905081810360008301526145ea81613f63565b9050919050565b6000602082019050818103600083015261460a81613fa9565b9050919050565b6000602082019050818103600083015261462a81614012565b9050919050565b6000602082019050818103600083015261464a81614058565b9050919050565b600060208201905061466660008301846140e4565b92915050565b600060608201905061468160008301866140e4565b61468e60208301856139b6565b61469b60408301846139c5565b949350505050565b6000610120820190506146b9600083018c6140e4565b6146c6602083018b6140e4565b6146d3604083018a6139b6565b81810360608301526146e58189613a0d565b905081810360808301526146f98188613a0d565b905081810360a083015261470d8187613a0d565b905081810360c08301526147218186613a0d565b905081810360e08301526147358185613a0d565b90506147456101008301846139c5565b9a9950505050505050505050565b600061475d61476e565b90506147698282614a25565b919050565b6000604051905090565b600067ffffffffffffffff82111561479357614792614b5d565b5b61479c82614b8c565b9050602081019050919050565b600067ffffffffffffffff8211156147c4576147c3614b5d565b5b6147cd82614b8c565b9050602081019050919050565b600081519050919050565b600081519050919050565b600082825260208201905092915050565b600081905092915050565b600082825260208201905092915050565b600081905092915050565b6000614833826149a7565b915061483e836149a7565b9250827fffffffffffffffffffffffffffffffffffffffffffffffffffffffffffffffff0382111561487357614872614ad0565b5b828201905092915050565b6000614889826149a7565b9150614894836149a7565b9250826148a4576148a3614aff565b5b828204905092915050565b60006148ba826149a7565b91506148c5836149a7565b9250817fffffffffffffffffffffffffffffffffffffffffffffffffffffffffffffffff04831182151516156148fe576148fd614ad0565b5b828202905092915050565b6000614914826149a7565b915061491f836149a7565b92508282101561493257614931614ad0565b5b828203905092915050565b600061494882614987565b9050919050565b60008115159050919050565b60007fffffffff0000000000000000000000000000000000000000000000000000000082169050919050565b600073ffffffffffffffffffffffffffffffffffffffff82169050919050565b6000819050919050565b82818337600083830152505050565b60005b838110156149de5780820151818401526020810190506149c3565b838111156149ed576000848401525b50505050565b60006002820490506001821680614a0b57607f821691505b60208210811415614a1f57614a1e614b2e565b5b50919050565b614a2e82614b8c565b810181811067ffffffffffffffff82111715614a4d57614a4c614b5d565b5b80604052505050565b6000614a61826149a7565b91507fffffffffffffffffffffffffffffffffffffffffffffffffffffffffffffffff821415614a9457614a93614ad0565b5b600182019050919050565b6000614aaa826149a7565b9150614ab5836149a7565b925082614ac557614ac4614aff565b5b828206905092915050565b7f4e487b7100000000000000000000000000000000000000000000000000000000600052601160045260246000fd5b7f4e487b7100000000000000000000000000000000000000000000000000000000600052601260045260246000fd5b7f4e487b7100000000000000000000000000000000000000000000000000000000600052602260045260246000fd5b7f4e487b7100000000000000000000000000000000000000000000000000000000600052604160045260246000fd5b6000601f19601f8301169050919050565b7f596f752063616e20736574206d61726b657420636f6e7472616374206f6e6c7960008201527f206f6e6365210000000000000000000000000000000000000000000000000000602082015250565b7f3c7465787420783d22372220793d223234302e323433392220666f6e742d736960008201527f7a653d2231332220666f6e742d66616d696c793d22436f7572696572204e657760208201527f2c206d6f6e6f73706163652220666f6e742d7765696768743d22626f6c64223e60408201527f5361686962693a3c2f746578743e000000000000000000000000000000000000606082015250565b7f4e6f7420656e6f75676820455448210000000000000000000000000000000000600082015250565b7f3c7465787420783d2239352e33333333332220793d223138362e33333333332260008201527f20666f6e742d73697a653d2231332220666f6e742d66616d696c793d22436f7560208201527f72696572204e65772c206d6f6e6f73706163652220666f6e742d77656967687460408201527f3d22626f6c64223e000000000000000000000000000000000000000000000000606082015250565b7f455243373231456e756d657261626c653a206f776e657220696e646578206f7560008201527f74206f6620626f756e6473000000000000000000000000000000000000000000602082015250565b7f4552433732313a207472616e7366657220746f206e6f6e20455243373231526560008201527f63656976657220696d706c656d656e7465720000000000000000000000000000602082015250565b7f3c7465787420783d22372220793d223236302e343837382220666f6e742d736960008201527f7a653d2231332220666f6e742d66616d696c793d22436f7572696572204e657760208201527f2c206d6f6e6f73706163652220666f6e742d7765696768743d22626f6c64223e60408201527f3078303030303030303030303030303030303030303030303030303030303c2f60608201527f746578743e000000000000000000000000000000000000000000000000000000608082015250565b7f3c7376672077696474683d2233303022206865696768743d223330302220786d60008201527f6c6e733d22687474703a2f2f7777772e77332e6f72672f323030302f7376672260208201527f3e00000000000000000000000000000000000000000000000000000000000000604082015250565b7f4552433732313a207472616e736665722066726f6d20696e636f72726563742060008201527f6f776e6572000000000000000000000000000000000000000000000000000000602082015250565b7f4552433732313a20746f6b656e20616c7265616479206d696e74656400000000600082015250565b7f3c7465787420783d2239352e33333333332220793d2238352e3836393932222060008201527f666f6e742d73697a653d2231332220666f6e742d66616d696c793d22436f757260208201527f696572204e65772c206d6f6e6f73706163652220666f6e742d7765696768743d60408201527f22626f6c64223e00000000000000000000000000000000000000000000000000606082015250565b7f3c7465787420783d22372220793d223132352e38323131332220666f6e742d7360008201527f697a653d2231332220666f6e742d66616d696c793d22436f7572696572204e6560208201527f772c206d6f6e6f73706163652220666f6e742d7765696768743d22626f6c642260408201527f3ec4b06cc3a7653a3c2f746578743e0000000000000000000000000000000000606082015250565b7f4552433732313a207472616e7366657220746f20746865207a65726f2061646460008201527f7265737300000000000000000000000000000000000000000000000000000000602082015250565b7f4552433732313a20617070726f766520746f2063616c6c657200000000000000600082015250565b7f596f75206d757374206265206f776e6572206f6620746865206e667421000000600082015250565b7f4552433732313a206f70657261746f7220717565727920666f72206e6f6e657860008201527f697374656e7420746f6b656e0000000000000000000000000000000000000000602082015250565b7f3c7465787420783d2237392e35323038342220793d2233322e3331373037222060008201527f666f6e742d73697a653d2232342220666f6e742d66616d696c793d22436f757260208201527f696572204e65772c206d6f6e6f73706163652220666f6e742d7765696768743d60408201527f22626f6c64223e544150552053454e4544c4b03c2f746578743e000000000000606082015250565b7f546869732064656564206e6f7420666f722073616c6521000000000000000000600082015250565b7f4552433732313a20617070726f76652063616c6c6572206973206e6f74206f7760008201527f6e6572206e6f7220617070726f76656420666f7220616c6c0000000000000000602082015250565b7f4552433732313a2062616c616e636520717565727920666f7220746865207a6560008201527f726f206164647265737300000000000000000000000000000000000000000000602082015250565b7f4552433732313a206f776e657220717565727920666f72206e6f6e657869737460008201527f656e7420746f6b656e0000000000000000000000000000000000000000000000602082015250565b7f3c7465787420783d22372220793d2238352e33383231312220666f6e742d736960008201527f7a653d2231332220666f6e742d66616d696c793d22436f7572696572204e657760208201527f2c206d6f6e6f73706163652220666f6e742d7765696768743d22626f6c64223e60408201527f54617075204e6f3a3c2f746578743e0000000000000000000000000000000000606082015250565b7f3c726563742066696c6c3d2268736c283232302c20313030252c20363025292260008201527f20793d223530222077696474683d2233303022206865696768743d223137302260208201527f2f3e000000000000000000000000000000000000000000000000000000000000604082015250565b7f3c7465787420783d2239352e33333333332220793d223134352e38323131332260008201527f20666f6e742d73697a653d2231332220666f6e742d66616d696c793d22436f7560208201527f72696572204e65772c206d6f6e6f73706163652220666f6e742d77656967687460408201527f3d22626f6c64223e000000000000000000000000000000000000000000000000606082015250565b7f3c7465787420783d22372220793d223238302e343837382220666f6e742d736960008201527f7a653d2231332220666f6e742d66616d696c793d22436f7572696572204e657760208201527f2c206d6f6e6f73706163652220666f6e742d7765696768743d22626f6c64223e60408201527f4661746968204261796b616c3c2f746578743e00000000000000000000000000606082015250565b7f3c7465787420783d22372220793d223134352e383634352220666f6e742d736960008201527f7a653d2231332220666f6e742d66616d696c793d22436f7572696572204e657760208201527f2c206d6f6e6f73706163652220666f6e742d7765696768743d22626f6c64223e60408201527f4d6168616c6c653a3c2f746578743e0000000000000000000000000000000000606082015250565b7f3c2f746578743e00000000000000000000000000000000000000000000000000600082015250565b7f4552433732313a206d696e7420746f20746865207a65726f2061646472657373600082015250565b7f596f752063616e27742062757920796f7572206f776e20646565642100000000600082015250565b7f4552433732313a20617070726f76656420717565727920666f72206e6f6e657860008201527f697374656e7420746f6b656e0000000000000000000000000000000000000000602082015250565b7f596f7520617265206e6f74206f776e6572210000000000000000000000000000600082015250565b7f4552433732314d657461646174613a2055524920717565727920666f72206e6f60008201527f6e6578697374656e7420746f6b656e0000000000000000000000000000000000602082015250565b7f4552433732313a20617070726f76616c20746f2063757272656e74206f776e6560008201527f7200000000000000000000000000000000000000000000000000000000000000602082015250565b7f3c7465787420783d22372220793d223130352e38323131332220666f6e742d7360008201527f697a653d2231332220666f6e742d66616d696c793d22436f7572696572204e6560208201527f772c206d6f6e6f73706163652220666f6e742d7765696768743d22626f6c642260408201527f3ec4b06c3a3c2f746578743e0000000000000000000000000000000000000000606082015250565b7f3c726563742066696c6c3d2268736c283132302c20313030252c20363025292260008201527f20783d22302220793d2230222077696474683d2233303022206865696768743d60208201527f223530222f3e0000000000000000000000000000000000000000000000000000604082015250565b50565b7f4552433732313a207472616e736665722063616c6c6572206973206e6f74206f60008201527f776e6572206e6f7220617070726f766564000000000000000000000000000000602082015250565b7f3c726563742066696c6c3d2268736c283331322c20313030252c20363025292260008201527f20793d22323230222077696474683d2233303022206865696768743d2238302260208201527f2f3e000000000000000000000000000000000000000000000000000000000000604082015250565b7f455243373231456e756d657261626c653a20676c6f62616c20696e646578206f60008201527f7574206f6620626f756e64730000000000000000000000000000000000000000602082015250565b7f3c7465787420783d2239352e33333333332220793d223130352e38323131332260008201527f20666f6e742d73697a653d2231332220666f6e742d66616d696c793d22436f7560208201527f72696572204e65772c206d6f6e6f73706163652220666f6e742d77656967687460408201527f3d22626f6c64223e000000000000000000000000000000000000000000000000606082015250565b7f3c7465787420783d2239352e33333333332220793d223132352e38323131332260008201527f20666f6e742d73697a653d2231332220666f6e742d66616d696c793d22436f7560208201527f72696572204e65772c206d6f6e6f73706163652220666f6e742d77656967687460408201527f3d22626f6c64223e000000000000000000000000000000000000000000000000606082015250565b7f546f6b656e206964206e6f742065786973747321000000000000000000000000600082015250565b7f3c7465787420783d2239352e33333333332220793d223136362e33333333332260008201527f20666f6e742d73697a653d2231332220666f6e742d66616d696c793d22436f7560208201527f72696572204e65772c206d6f6e6f73706163652220666f6e742d77656967687460408201527f3d22626f6c64223e000000000000000000000000000000000000000000000000606082015250565b7f57726f6e67206164647265737321000000000000000000000000000000000000600082015250565b7f3c2f7376673e0000000000000000000000000000000000000000000000000000600082015250565b7f3c7465787420783d22372220793d223136362e33333333332220666f6e742d7360008201527f697a653d2231332220666f6e742d66616d696c793d22436f7572696572204e6560208201527f772c206d6f6e6f73706163652220666f6e742d7765696768743d22626f6c642260408201527f3e59c3bc7ac3b66cc3a7c3bc6dc3bc3a3c2f746578743e000000000000000000606082015250565b7f3c7465787420783d22372220793d223138362e33333333332220666f6e742d7360008201527f697a653d2231332220666f6e742d66616d696c793d22436f7572696572204e6560208201527f772c206d6f6e6f73706163652220666f6e742d7765696768743d22626f6c642260408201527f3e4b6f6f7264696e61743a3c2f746578743e0000000000000000000000000000606082015250565b615d918161493d565b8114615d9c57600080fd5b50565b615da88161494f565b8114615db357600080fd5b50565b615dbf8161495b565b8114615dca57600080fd5b50565b615dd6816149a7565b8114615de157600080fd5b5056fe4142434445464748494a4b4c4d4e4f505152535455565758595a6162636465666768696a6b6c6d6e6f707172737475767778797a303132333435363738392b2fa2646970667358221220450b83508a22f5b6ebaea4cba4afd0329167afe1015048c306cc601a6c8e606964736f6c63430008010033",
  "immutableReferences": {},
  "source": "// SPDX-License-Identifier: MIT\r\n\r\npragma solidity >=0.8.0 <0.9.0;\r\n\r\nimport \"../node_modules/@openzeppelin/contracts/token/ERC721/extensions/ERC721Enumerable.sol\";\r\nimport \"../node_modules/@openzeppelin/contracts/utils/Strings.sol\";\r\nimport \"./Base64.sol\";\r\n\r\ncontract DeedNFT is ERC721Enumerable {\r\n\r\n  struct TitleDeed {\r\n    uint256 ID;\r\n    uint256 price;\r\n    address owner;\r\n    string province;\r\n    string area;\r\n    string county;\r\n    string district;\r\n    string coordinates;\r\n    bool forSale;\r\n  }\r\n\r\n  address contractOwner;\r\n  address marketContract;\r\n  mapping (uint256 => TitleDeed) public allTitleDeeds;\r\n  \r\n  constructor() ERC721(\"Title Deed NFT\", \"DNFT\") {\r\n    contractOwner = msg.sender;\r\n  }\r\n\r\n  function setMarketContract(address _address) public {\r\n    require(marketContract == address(0), \"You can set market contract only once!\");\r\n    marketContract = _address;\r\n  }\r\n\r\n  function mint(\r\n    string memory _province,\r\n    string memory _area,\r\n    string memory _county,\r\n    string memory _district,\r\n    string memory _coordinates\r\n  ) public {\r\n    uint256 supply = totalSupply();\r\n    \r\n    TitleDeed memory newDeed = TitleDeed(\r\n      supply + 1,\r\n      0,\r\n      msg.sender,\r\n      _province,\r\n      _area,\r\n      _county,\r\n      _district,\r\n      _coordinates,\r\n      false\r\n    );\r\n    \r\n    allTitleDeeds[supply + 1] = newDeed;\r\n    _safeMint(msg.sender, supply + 1);\r\n    setApprovalForAll(marketContract, true);\r\n  }\r\n\r\n  modifier onlyOwner() {\r\n    require(msg.sender == contractOwner, \"You are not owner!\");\r\n    _;\r\n  }\r\n\r\n  function updateDeedForSale(uint256 _tokenId, uint256 _price, bool _forSale, address _sender) public {\r\n    require(_exists(_tokenId), \"Token id not exists!\");\r\n    require(ownerOf(_tokenId) == _sender, \"You must be owner of the nft!\");\r\n    \r\n    TitleDeed storage deed = allTitleDeeds[_tokenId];\r\n    deed.price = _price;\r\n    deed.forSale = _forSale;\r\n  }\r\n\r\n  function buyTitleDeed(uint256 _tokenId, address _sender, uint256 _value) public returns(address) { // msg sender kullanc olduu iin hata veriyor\r\n    require(_sender != address(0), \"Wrong address!\");\r\n    require(_exists(_tokenId), \"Token id not exists!\");\r\n    address deedOwner = ownerOf(_tokenId);\r\n    require(deedOwner != address(0), \"Wrong address!\");\r\n    require(deedOwner != _sender, \"You can't buy your own deed!\");\r\n    TitleDeed storage deed = allTitleDeeds[_tokenId];\r\n    require(_value >= deed.price, \"Not enough ETH!\");\r\n    require(deed.forSale, \"This deed not for sale!\");\r\n\r\n    transferFrom(deedOwner, _sender, _tokenId);\r\n    deed.owner = _sender;\r\n    deed.forSale = false;\r\n    // event onceki sahip, sonraki sahip, timestamp, price vs.\r\n    return deedOwner;\r\n  }\r\n\r\n  function getDeed(uint256 _tokenId) public view returns(uint256, address, bool) {\r\n    TitleDeed memory deed = allTitleDeeds[_tokenId];\r\n    return (deed.price, deed.owner, deed.forSale);\r\n  }\r\n\r\n  function buildImage(uint256 _tokenId) public view returns(string memory) {\r\n      TitleDeed memory currentDeed = allTitleDeeds[_tokenId];\r\n      return Base64.encode(bytes(\r\n          abi.encodePacked(\r\n              '<svg width=\"300\" height=\"300\" xmlns=\"http://www.w3.org/2000/svg\">',\r\n              '<rect fill=\"hsl(120, 100%, 60%)\" x=\"0\" y=\"0\" width=\"300\" height=\"50\"/>',\r\n              '<rect fill=\"hsl(220, 100%, 60%)\" y=\"50\" width=\"300\" height=\"170\"/>',\r\n              '<text x=\"79.52084\" y=\"32.31707\" font-size=\"24\" font-family=\"Courier New, monospace\" font-weight=\"bold\">TAPU SENED\\xc4\\xb0</text>',\r\n              '<text x=\"7\" y=\"85.38211\" font-size=\"13\" font-family=\"Courier New, monospace\" font-weight=\"bold\">Tapu No:</text>',\r\n              '<text x=\"95.33333\" y=\"85.86992\" font-size=\"13\" font-family=\"Courier New, monospace\" font-weight=\"bold\">', Strings.toString(currentDeed.ID),'</text>',\r\n              '<text x=\"7\" y=\"105.82113\" font-size=\"13\" font-family=\"Courier New, monospace\" font-weight=\"bold\">\\xc4\\xb0l:</text>',\r\n              '<text x=\"95.33333\" y=\"105.82113\" font-size=\"13\" font-family=\"Courier New, monospace\" font-weight=\"bold\">', currentDeed.province,'</text>',\r\n              '<text x=\"7\" y=\"125.82113\" font-size=\"13\" font-family=\"Courier New, monospace\" font-weight=\"bold\">\\xc4\\xb0l\\xc3\\xa7e:</text>',\r\n              '<text x=\"95.33333\" y=\"125.82113\" font-size=\"13\" font-family=\"Courier New, monospace\" font-weight=\"bold\">', currentDeed.county,'</text>',\r\n              '<text x=\"7\" y=\"145.8645\" font-size=\"13\" font-family=\"Courier New, monospace\" font-weight=\"bold\">Mahalle:</text>',\r\n              '<text x=\"95.33333\" y=\"145.82113\" font-size=\"13\" font-family=\"Courier New, monospace\" font-weight=\"bold\">', currentDeed.district,'</text>',\r\n              '<text x=\"7\" y=\"166.33333\" font-size=\"13\" font-family=\"Courier New, monospace\" font-weight=\"bold\">Y\\xc3\\xbcz\\xc3\\xb6l\\xc3\\xa7\\xc3\\xbcm\\xc3\\xbc:</text>',\r\n              '<text x=\"95.33333\" y=\"166.33333\" font-size=\"13\" font-family=\"Courier New, monospace\" font-weight=\"bold\">', currentDeed.area,'</text>',\r\n              '<text x=\"7\" y=\"186.33333\" font-size=\"13\" font-family=\"Courier New, monospace\" font-weight=\"bold\">Koordinat:</text>',\r\n              '<text x=\"95.33333\" y=\"186.33333\" font-size=\"13\" font-family=\"Courier New, monospace\" font-weight=\"bold\">', currentDeed.coordinates,'</text>',\r\n              '<rect fill=\"hsl(312, 100%, 60%)\" y=\"220\" width=\"300\" height=\"80\"/>',\r\n              '<text x=\"7\" y=\"240.2439\" font-size=\"13\" font-family=\"Courier New, monospace\" font-weight=\"bold\">Sahibi:</text>',\r\n              '<text x=\"7\" y=\"260.4878\" font-size=\"13\" font-family=\"Courier New, monospace\" font-weight=\"bold\">0x0000000000000000000000000000</text>',\r\n              '<text x=\"7\" y=\"280.4878\" font-size=\"13\" font-family=\"Courier New, monospace\" font-weight=\"bold\">Fatih Baykal</text>',\r\n              '</svg>'\r\n          )\r\n      ));\r\n  }\r\n\r\n  function withdraw(address to) public payable onlyOwner {\r\n    (bool os, ) = payable(to).call{value: address(this).balance}(\"\");\r\n    require(os);\r\n  }\r\n\r\n}",
  "sourcePath": "C:\\Users\\Fatih\\Desktop\\Fatih\\Projeler devler\\Blockchain Projects\\DeedNFTApp\\truffle\\contracts\\DeedNFT.sol",
  "compiler": {
    "name": "solc",
    "version": "0.8.1+commit.df193b15.Emscripten.clang"
  },
  "schemaVersion": "3.4.7",
  "updatedAt": "2022-05-10T20:40:27.933Z",
  "networkType": "ethereum",
  "devdoc": {
    "kind": "dev",
    "methods": {
      "approve(address,uint256)": {
        "details": "See {IERC721-approve}."
      },
      "balanceOf(address)": {
        "details": "See {IERC721-balanceOf}."
      },
      "getApproved(uint256)": {
        "details": "See {IERC721-getApproved}."
      },
      "isApprovedForAll(address,address)": {
        "details": "See {IERC721-isApprovedForAll}."
      },
      "name()": {
        "details": "See {IERC721Metadata-name}."
      },
      "ownerOf(uint256)": {
        "details": "See {IERC721-ownerOf}."
      },
      "safeTransferFrom(address,address,uint256)": {
        "details": "See {IERC721-safeTransferFrom}."
      },
      "safeTransferFrom(address,address,uint256,bytes)": {
        "details": "See {IERC721-safeTransferFrom}."
      },
      "setApprovalForAll(address,bool)": {
        "details": "See {IERC721-setApprovalForAll}."
      },
      "supportsInterface(bytes4)": {
        "details": "See {IERC165-supportsInterface}."
      },
      "symbol()": {
        "details": "See {IERC721Metadata-symbol}."
      },
      "tokenByIndex(uint256)": {
        "details": "See {IERC721Enumerable-tokenByIndex}."
      },
      "tokenOfOwnerByIndex(address,uint256)": {
        "details": "See {IERC721Enumerable-tokenOfOwnerByIndex}."
      },
      "tokenURI(uint256)": {
        "details": "See {IERC721Metadata-tokenURI}."
      },
      "totalSupply()": {
        "details": "See {IERC721Enumerable-totalSupply}."
      },
      "transferFrom(address,address,uint256)": {
        "details": "See {IERC721-transferFrom}."
      }
    },
    "version": 1
  },
  "userdoc": {
    "kind": "user",
    "methods": {},
    "version": 1
  }
}