{
  "contractName": "DeedSale",
  "abi": [
    {
      "inputs": [
        {
          "internalType": "contract DeedNFT",
          "name": "_address",
          "type": "address"
        }
      ],
      "stateMutability": "nonpayable",
      "type": "constructor"
    },
    {
      "inputs": [],
      "name": "contractRef",
      "outputs": [
        {
          "internalType": "contract DeedNFT",
          "name": "",
          "type": "address"
        }
      ],
      "stateMutability": "view",
      "type": "function",
      "constant": true
    },
    {
      "inputs": [
        {
          "internalType": "uint256",
          "name": "_tokenId",
          "type": "uint256"
        },
        {
          "internalType": "uint256",
          "name": "_price",
          "type": "uint256"
        }
      ],
      "name": "putOnSale",
      "outputs": [],
      "stateMutability": "nonpayable",
      "type": "function"
    },
    {
      "inputs": [
        {
          "internalType": "uint256",
          "name": "_tokenId",
          "type": "uint256"
        }
      ],
      "name": "removeFromSale",
      "outputs": [],
      "stateMutability": "nonpayable",
      "type": "function"
    },
    {
      "inputs": [
        {
          "internalType": "uint256",
          "name": "_tokenId",
          "type": "uint256"
        }
      ],
      "name": "buyTitleDeed",
      "outputs": [],
      "stateMutability": "payable",
      "type": "function",
      "payable": true
    }
  ],
  "bytecode": "0x608060405234801561001057600080fd5b506040516107c23803806107c28339818101604052810190610032919061008d565b806000806101000a81548173ffffffffffffffffffffffffffffffffffffffff021916908373ffffffffffffffffffffffffffffffffffffffff16021790555050610111565b600081519050610087816100fa565b92915050565b60006020828403121561009f57600080fd5b60006100ad84828501610078565b91505092915050565b60006100c1826100da565b9050919050565b60006100d3826100b6565b9050919050565b600073ffffffffffffffffffffffffffffffffffffffff82169050919050565b610103816100c8565b811461010e57600080fd5b50565b6106a2806101206000396000f3fe60806040526004361061003f5760003560e01c80631361a3b6146100445780632c88cafa1461006d57806336f7992b1461008957806375ca533f146100b2575b600080fd5b34801561005057600080fd5b5061006b6004803603810190610066919061040b565b6100dd565b005b6100876004803603810190610082919061040b565b610172565b005b34801561009557600080fd5b506100b060048036038101906100ab9190610434565b610271565b005b3480156100be57600080fd5b506100c7610394565b6040516100d491906104e4565b60405180910390f35b60008054906101000a900473ffffffffffffffffffffffffffffffffffffffff1673ffffffffffffffffffffffffffffffffffffffff16638804c1e182600080336040518563ffffffff1660e01b815260040161013d9493929190610536565b600060405180830381600087803b15801561015757600080fd5b505af115801561016b573d6000803e3d6000fd5b5050505050565b60008060009054906101000a900473ffffffffffffffffffffffffffffffffffffffff1673ffffffffffffffffffffffffffffffffffffffff166336f699a98333346040518463ffffffff1660e01b81526004016101d2939291906104ff565b602060405180830381600087803b1580156101ec57600080fd5b505af1158015610200573d6000803e3d6000fd5b505050506040513d601f19601f8201168201806040525081019061022491906103e2565b90508073ffffffffffffffffffffffffffffffffffffffff166108fc349081150290604051600060405180830381858888f1935050505015801561026c573d6000803e3d6000fd5b505050565b60008054906101000a900473ffffffffffffffffffffffffffffffffffffffff1673ffffffffffffffffffffffffffffffffffffffff16638804c1e183836001336040518563ffffffff1660e01b81526004016102d1949392919061057b565b600060405180830381600087803b1580156102eb57600080fd5b505af11580156102ff573d6000803e3d6000fd5b5050505060008054906101000a900473ffffffffffffffffffffffffffffffffffffffff1673ffffffffffffffffffffffffffffffffffffffff1663095ea7b330846040518363ffffffff1660e01b815260040161035e9291906104bb565b600060405180830381600087803b15801561037857600080fd5b505af115801561038c573d6000803e3d6000fd5b505050505050565b60008054906101000a900473ffffffffffffffffffffffffffffffffffffffff1681565b6000815190506103c78161063e565b92915050565b6000813590506103dc81610655565b92915050565b6000602082840312156103f457600080fd5b6000610402848285016103b8565b91505092915050565b60006020828403121561041d57600080fd5b600061042b848285016103cd565b91505092915050565b6000806040838503121561044757600080fd5b6000610455858286016103cd565b9250506020610466858286016103cd565b9150509250929050565b610479816105c0565b82525050565b610488816105d2565b82525050565b61049781610608565b82525050565b6104a68161062c565b82525050565b6104b5816105fe565b82525050565b60006040820190506104d06000830185610470565b6104dd60208301846104ac565b9392505050565b60006020820190506104f9600083018461048e565b92915050565b600060608201905061051460008301866104ac565b6105216020830185610470565b61052e60408301846104ac565b949350505050565b600060808201905061054b60008301876104ac565b610558602083018661049d565b610565604083018561047f565b6105726060830184610470565b95945050505050565b600060808201905061059060008301876104ac565b61059d60208301866104ac565b6105aa604083018561047f565b6105b76060830184610470565b95945050505050565b60006105cb826105de565b9050919050565b60008115159050919050565b600073ffffffffffffffffffffffffffffffffffffffff82169050919050565b6000819050919050565b60006106138261061a565b9050919050565b6000610625826105de565b9050919050565b6000610637826105fe565b9050919050565b610647816105c0565b811461065257600080fd5b50565b61065e816105fe565b811461066957600080fd5b5056fea2646970667358221220627b33a80a4d554bf9aa112b3935f71710e473d86d2e681688950d0ca5dc39f464736f6c63430008010033",
  "immutableReferences": {},
  "source": "// SPDX-License-Identifier: MIT\r\npragma solidity >=0.8.0 <0.9.0;\r\n\r\nimport \"./DeedNFT.sol\";\r\n\r\ncontract DeedSale {\r\n\r\n    DeedNFT public contractRef;\r\n\r\n    constructor(DeedNFT _address) {\r\n        contractRef = _address;\r\n    }\r\n\r\n    function putOnSale(uint256 _tokenId, uint256 _price) public {\r\n    contractRef.updateDeedForSale(_tokenId, _price, true, msg.sender);\r\n    contractRef.approve(address(this), _tokenId);\r\n    // event\r\n  }\r\n\r\n  function removeFromSale(uint256 _tokenId) public {\r\n    contractRef.updateDeedForSale(_tokenId, 0, false, msg.sender);\r\n  }\r\n\r\n  function buyTitleDeed(uint256 _tokenId) public payable {\r\n    address oldOwner = contractRef.buyTitleDeed(_tokenId, msg.sender, msg.value);\r\n    payable(oldOwner).transfer(msg.value);\r\n  }\r\n}",
  "sourcePath": "C:\\Users\\Fatih\\Desktop\\Fatih\\Projeler devler\\Blockchain Projects\\DeedNFTApp\\truffle\\contracts\\DeedSale.sol",
  "compiler": {
    "name": "solc",
    "version": "0.8.1+commit.df193b15.Emscripten.clang"
  },
  "schemaVersion": "3.4.7",
  "updatedAt": "2022-05-10T19:22:53.803Z",
  "networkType": "ethereum",
  "devdoc": {
    "kind": "dev",
    "methods": {},
    "version": 1
  },
  "userdoc": {
    "kind": "user",
    "methods": {},
    "version": 1
  }
}