{
  "contractName": "DeedNFT",
  "abi": [
    {
      "inputs": [],
      "stateMutability": "nonpayable",
      "type": "constructor"
    },
    {
      "anonymous": false,
      "inputs": [
        {
          "indexed": true,
          "internalType": "address",
          "name": "owner",
          "type": "address"
        },
        {
          "indexed": true,
          "internalType": "address",
          "name": "approved",
          "type": "address"
        },
        {
          "indexed": true,
          "internalType": "uint256",
          "name": "tokenId",
          "type": "uint256"
        }
      ],
      "name": "Approval",
      "type": "event"
    },
    {
      "anonymous": false,
      "inputs": [
        {
          "indexed": true,
          "internalType": "address",
          "name": "owner",
          "type": "address"
        },
        {
          "indexed": true,
          "internalType": "address",
          "name": "operator",
          "type": "address"
        },
        {
          "indexed": false,
          "internalType": "bool",
          "name": "approved",
          "type": "bool"
        }
      ],
      "name": "ApprovalForAll",
      "type": "event"
    },
    {
      "anonymous": false,
      "inputs": [
        {
          "indexed": true,
          "internalType": "address",
          "name": "previousOwner",
          "type": "address"
        },
        {
          "indexed": true,
          "internalType": "address",
          "name": "newOwner",
          "type": "address"
        }
      ],
      "name": "OwnershipTransferred",
      "type": "event"
    },
    {
      "anonymous": false,
      "inputs": [
        {
          "indexed": true,
          "internalType": "address",
          "name": "from",
          "type": "address"
        },
        {
          "indexed": true,
          "internalType": "address",
          "name": "to",
          "type": "address"
        },
        {
          "indexed": true,
          "internalType": "uint256",
          "name": "tokenId",
          "type": "uint256"
        }
      ],
      "name": "Transfer",
      "type": "event"
    },
    {
      "inputs": [
        {
          "internalType": "address",
          "name": "to",
          "type": "address"
        },
        {
          "internalType": "uint256",
          "name": "tokenId",
          "type": "uint256"
        }
      ],
      "name": "approve",
      "outputs": [],
      "stateMutability": "nonpayable",
      "type": "function"
    },
    {
      "inputs": [
        {
          "internalType": "address",
          "name": "owner",
          "type": "address"
        }
      ],
      "name": "balanceOf",
      "outputs": [
        {
          "internalType": "uint256",
          "name": "",
          "type": "uint256"
        }
      ],
      "stateMutability": "view",
      "type": "function",
      "constant": true
    },
    {
      "inputs": [
        {
          "internalType": "uint256",
          "name": "tokenId",
          "type": "uint256"
        }
      ],
      "name": "getApproved",
      "outputs": [
        {
          "internalType": "address",
          "name": "",
          "type": "address"
        }
      ],
      "stateMutability": "view",
      "type": "function",
      "constant": true
    },
    {
      "inputs": [
        {
          "internalType": "address",
          "name": "owner",
          "type": "address"
        },
        {
          "internalType": "address",
          "name": "operator",
          "type": "address"
        }
      ],
      "name": "isApprovedForAll",
      "outputs": [
        {
          "internalType": "bool",
          "name": "",
          "type": "bool"
        }
      ],
      "stateMutability": "view",
      "type": "function",
      "constant": true
    },
    {
      "inputs": [],
      "name": "name",
      "outputs": [
        {
          "internalType": "string",
          "name": "",
          "type": "string"
        }
      ],
      "stateMutability": "view",
      "type": "function",
      "constant": true
    },
    {
      "inputs": [
        {
          "internalType": "uint256",
          "name": "",
          "type": "uint256"
        }
      ],
      "name": "nftInfo",
      "outputs": [
        {
          "internalType": "uint256",
          "name": "ID",
          "type": "uint256"
        },
        {
          "internalType": "address",
          "name": "owner",
          "type": "address"
        },
        {
          "internalType": "string",
          "name": "name",
          "type": "string"
        },
        {
          "internalType": "string",
          "name": "province",
          "type": "string"
        },
        {
          "internalType": "string",
          "name": "area",
          "type": "string"
        },
        {
          "internalType": "string",
          "name": "county",
          "type": "string"
        },
        {
          "internalType": "string",
          "name": "district",
          "type": "string"
        },
        {
          "internalType": "string",
          "name": "coordinates",
          "type": "string"
        }
      ],
      "stateMutability": "view",
      "type": "function",
      "constant": true
    },
    {
      "inputs": [],
      "name": "owner",
      "outputs": [
        {
          "internalType": "address",
          "name": "",
          "type": "address"
        }
      ],
      "stateMutability": "view",
      "type": "function",
      "constant": true
    },
    {
      "inputs": [
        {
          "internalType": "uint256",
          "name": "tokenId",
          "type": "uint256"
        }
      ],
      "name": "ownerOf",
      "outputs": [
        {
          "internalType": "address",
          "name": "",
          "type": "address"
        }
      ],
      "stateMutability": "view",
      "type": "function",
      "constant": true
    },
    {
      "inputs": [],
      "name": "renounceOwnership",
      "outputs": [],
      "stateMutability": "nonpayable",
      "type": "function"
    },
    {
      "inputs": [
        {
          "internalType": "address",
          "name": "from",
          "type": "address"
        },
        {
          "internalType": "address",
          "name": "to",
          "type": "address"
        },
        {
          "internalType": "uint256",
          "name": "tokenId",
          "type": "uint256"
        }
      ],
      "name": "safeTransferFrom",
      "outputs": [],
      "stateMutability": "nonpayable",
      "type": "function"
    },
    {
      "inputs": [
        {
          "internalType": "address",
          "name": "from",
          "type": "address"
        },
        {
          "internalType": "address",
          "name": "to",
          "type": "address"
        },
        {
          "internalType": "uint256",
          "name": "tokenId",
          "type": "uint256"
        },
        {
          "internalType": "bytes",
          "name": "_data",
          "type": "bytes"
        }
      ],
      "name": "safeTransferFrom",
      "outputs": [],
      "stateMutability": "nonpayable",
      "type": "function"
    },
    {
      "inputs": [
        {
          "internalType": "address",
          "name": "operator",
          "type": "address"
        },
        {
          "internalType": "bool",
          "name": "approved",
          "type": "bool"
        }
      ],
      "name": "setApprovalForAll",
      "outputs": [],
      "stateMutability": "nonpayable",
      "type": "function"
    },
    {
      "inputs": [
        {
          "internalType": "bytes4",
          "name": "interfaceId",
          "type": "bytes4"
        }
      ],
      "name": "supportsInterface",
      "outputs": [
        {
          "internalType": "bool",
          "name": "",
          "type": "bool"
        }
      ],
      "stateMutability": "view",
      "type": "function",
      "constant": true
    },
    {
      "inputs": [],
      "name": "symbol",
      "outputs": [
        {
          "internalType": "string",
          "name": "",
          "type": "string"
        }
      ],
      "stateMutability": "view",
      "type": "function",
      "constant": true
    },
    {
      "inputs": [
        {
          "internalType": "uint256",
          "name": "index",
          "type": "uint256"
        }
      ],
      "name": "tokenByIndex",
      "outputs": [
        {
          "internalType": "uint256",
          "name": "",
          "type": "uint256"
        }
      ],
      "stateMutability": "view",
      "type": "function",
      "constant": true
    },
    {
      "inputs": [
        {
          "internalType": "address",
          "name": "owner",
          "type": "address"
        },
        {
          "internalType": "uint256",
          "name": "index",
          "type": "uint256"
        }
      ],
      "name": "tokenOfOwnerByIndex",
      "outputs": [
        {
          "internalType": "uint256",
          "name": "",
          "type": "uint256"
        }
      ],
      "stateMutability": "view",
      "type": "function",
      "constant": true
    },
    {
      "inputs": [],
      "name": "totalSupply",
      "outputs": [
        {
          "internalType": "uint256",
          "name": "",
          "type": "uint256"
        }
      ],
      "stateMutability": "view",
      "type": "function",
      "constant": true
    },
    {
      "inputs": [
        {
          "internalType": "address",
          "name": "from",
          "type": "address"
        },
        {
          "internalType": "address",
          "name": "to",
          "type": "address"
        },
        {
          "internalType": "uint256",
          "name": "tokenId",
          "type": "uint256"
        }
      ],
      "name": "transferFrom",
      "outputs": [],
      "stateMutability": "nonpayable",
      "type": "function"
    },
    {
      "inputs": [
        {
          "internalType": "address",
          "name": "newOwner",
          "type": "address"
        }
      ],
      "name": "transferOwnership",
      "outputs": [],
      "stateMutability": "nonpayable",
      "type": "function"
    },
    {
      "inputs": [
        {
          "internalType": "string",
          "name": "_province",
          "type": "string"
        },
        {
          "internalType": "string",
          "name": "_area",
          "type": "string"
        },
        {
          "internalType": "string",
          "name": "_county",
          "type": "string"
        },
        {
          "internalType": "string",
          "name": "_district",
          "type": "string"
        },
        {
          "internalType": "string",
          "name": "_coordinates",
          "type": "string"
        }
      ],
      "name": "mint",
      "outputs": [],
      "stateMutability": "nonpayable",
      "type": "function"
    },
    {
      "inputs": [
        {
          "internalType": "uint256",
          "name": "_tokenId",
          "type": "uint256"
        }
      ],
      "name": "buildImage",
      "outputs": [
        {
          "internalType": "string",
          "name": "",
          "type": "string"
        }
      ],
      "stateMutability": "view",
      "type": "function",
      "constant": true
    },
    {
      "inputs": [
        {
          "internalType": "uint256",
          "name": "_tokenId",
          "type": "uint256"
        }
      ],
      "name": "buildMetadata",
      "outputs": [
        {
          "internalType": "string",
          "name": "",
          "type": "string"
        }
      ],
      "stateMutability": "view",
      "type": "function",
      "constant": true
    },
    {
      "inputs": [
        {
          "internalType": "uint256",
          "name": "_tokenId",
          "type": "uint256"
        }
      ],
      "name": "tokenURI",
      "outputs": [
        {
          "internalType": "string",
          "name": "",
          "type": "string"
        }
      ],
      "stateMutability": "view",
      "type": "function",
      "constant": true
    },
    {
      "inputs": [],
      "name": "withdraw",
      "outputs": [],
      "stateMutability": "payable",
      "type": "function",
      "payable": true
    }
  ],
  "bytecode": "0x60806040523480156200001157600080fd5b506040518060400160405280600881526020017f54617075204e46540000000000000000000000000000000000000000000000008152506040518060400160405280600481526020017f544e465400000000000000000000000000000000000000000000000000000000815250816000908051906020019062000096929190620001a6565b508060019080519060200190620000af929190620001a6565b505050620000d2620000c6620000d860201b60201c565b620000e060201b60201c565b620002bb565b600033905090565b6000600a60009054906101000a900473ffffffffffffffffffffffffffffffffffffffff16905081600a60006101000a81548173ffffffffffffffffffffffffffffffffffffffff021916908373ffffffffffffffffffffffffffffffffffffffff1602179055508173ffffffffffffffffffffffffffffffffffffffff168173ffffffffffffffffffffffffffffffffffffffff167f8be0079c531659141344cd1fd0a4f28419497f9722a3daafe3b4186f6b6457e060405160405180910390a35050565b828054620001b49062000256565b90600052602060002090601f016020900481019282620001d8576000855562000224565b82601f10620001f357805160ff191683800117855562000224565b8280016001018555821562000224579182015b828111156200022357825182559160200191906001019062000206565b5b50905062000233919062000237565b5090565b5b808211156200025257600081600090555060010162000238565b5090565b600060028204905060018216806200026f57607f821691505b602082108114156200028657620002856200028c565b5b50919050565b7f4e487b7100000000000000000000000000000000000000000000000000000000600052602260045260246000fd5b615d5580620002cb6000396000f3fe60806040526004361061014b5760003560e01c80636352211e116100b6578063a22cb4651161006f578063a22cb465146104b0578063b88d4fde146104d9578063c87b56dd14610502578063e985e9c51461053f578063edf877041461057c578063f2fde38b146105b95761014b565b80636352211e146103a057806370a08231146103dd578063715018a61461041a57806386833e91146104315780638da5cb5b1461045a57806395d89b41146104855761014b565b806323b872dd1161010857806323b872dd1461028d5780632ba80eba146102b65780632f745c59146102f35780633ccfd60b1461033057806342842e0e1461033a5780634f6ccce7146103635761014b565b806301ffc9a71461015057806306fdde031461018d578063081812fc146101b8578063095ea7b3146101f557806318160ddd1461021e5780631f8bc79014610249575b600080fd5b34801561015c57600080fd5b50610177600480360381019061017291906136d5565b6105e2565b60405161018491906142f3565b60405180910390f35b34801561019957600080fd5b506101a261065c565b6040516101af919061430e565b60405180910390f35b3480156101c457600080fd5b506101df60048036038101906101da9190613816565b6106ee565b6040516101ec919061428c565b60405180910390f35b34801561020157600080fd5b5061021c60048036038101906102179190613699565b610773565b005b34801561022a57600080fd5b5061023361088b565b6040516102409190614570565b60405180910390f35b34801561025557600080fd5b50610270600480360381019061026b9190613816565b610898565b60405161028498979695949392919061458b565b60405180910390f35b34801561029957600080fd5b506102b460048036038101906102af9190613593565b610c30565b005b3480156102c257600080fd5b506102dd60048036038101906102d89190613816565b610c90565b6040516102ea919061430e565b60405180910390f35b3480156102ff57600080fd5b5061031a60048036038101906103159190613699565b611130565b6040516103279190614570565b60405180910390f35b6103386111d5565b005b34801561034657600080fd5b50610361600480360381019061035c9190613593565b6112d1565b005b34801561036f57600080fd5b5061038a60048036038101906103859190613816565b6112f1565b6040516103979190614570565b60405180910390f35b3480156103ac57600080fd5b506103c760048036038101906103c29190613816565b611388565b6040516103d4919061428c565b60405180910390f35b3480156103e957600080fd5b5061040460048036038101906103ff919061352e565b61143a565b6040516104119190614570565b60405180910390f35b34801561042657600080fd5b5061042f6114f2565b005b34801561043d57600080fd5b5061045860048036038101906104539190613727565b61157a565b005b34801561046657600080fd5b5061046f61175c565b60405161047c919061428c565b60405180910390f35b34801561049157600080fd5b5061049a611786565b6040516104a7919061430e565b60405180910390f35b3480156104bc57600080fd5b506104d760048036038101906104d2919061365d565b611818565b005b3480156104e557600080fd5b5061050060048036038101906104fb91906135e2565b61182e565b005b34801561050e57600080fd5b5061052960048036038101906105249190613816565b611890565b604051610536919061430e565b60405180910390f35b34801561054b57600080fd5b5061056660048036038101906105619190613557565b6118ea565b60405161057391906142f3565b60405180910390f35b34801561058857600080fd5b506105a3600480360381019061059e9190613816565b61197e565b6040516105b0919061430e565b60405180910390f35b3480156105c557600080fd5b506105e060048036038101906105db919061352e565b611dcc565b005b60007f780e9d63000000000000000000000000000000000000000000000000000000007bffffffffffffffffffffffffffffffffffffffffffffffffffffffff1916827bffffffffffffffffffffffffffffffffffffffffffffffffffffffff19161480610655575061065482611ec4565b5b9050919050565b60606000805461066b906148d3565b80601f0160208091040260200160405190810160405280929190818152602001828054610697906148d3565b80156106e45780601f106106b9576101008083540402835291602001916106e4565b820191906000526020600020905b8154815290600101906020018083116106c757829003601f168201915b5050505050905090565b60006106f982611fa6565b610738576040517f08c379a000000000000000000000000000000000000000000000000000000000815260040161072f906144b0565b60405180910390fd5b6004600083815260200190815260200160002060009054906101000a900473ffffffffffffffffffffffffffffffffffffffff169050919050565b600061077e82611388565b90508073ffffffffffffffffffffffffffffffffffffffff168373ffffffffffffffffffffffffffffffffffffffff1614156107ef576040517f08c379a00000000000000000000000000000000000000000000000000000000081526004016107e690614510565b60405180910390fd5b8073ffffffffffffffffffffffffffffffffffffffff1661080e612012565b73ffffffffffffffffffffffffffffffffffffffff16148061083d575061083c81610837612012565b6118ea565b5b61087c576040517f08c379a000000000000000000000000000000000000000000000000000000000815260040161087390614430565b60405180910390fd5b610886838361201a565b505050565b6000600880549050905090565b600b6020528060005260406000206000915090508060000154908060010160009054906101000a900473ffffffffffffffffffffffffffffffffffffffff16908060020180546108e7906148d3565b80601f0160208091040260200160405190810160405280929190818152602001828054610913906148d3565b80156109605780601f1061093557610100808354040283529160200191610960565b820191906000526020600020905b81548152906001019060200180831161094357829003601f168201915b505050505090806003018054610975906148d3565b80601f01602080910402602001604051908101604052809291908181526020018280546109a1906148d3565b80156109ee5780601f106109c3576101008083540402835291602001916109ee565b820191906000526020600020905b8154815290600101906020018083116109d157829003601f168201915b505050505090806004018054610a03906148d3565b80601f0160208091040260200160405190810160405280929190818152602001828054610a2f906148d3565b8015610a7c5780601f10610a5157610100808354040283529160200191610a7c565b820191906000526020600020905b815481529060010190602001808311610a5f57829003601f168201915b505050505090806005018054610a91906148d3565b80601f0160208091040260200160405190810160405280929190818152602001828054610abd906148d3565b8015610b0a5780601f10610adf57610100808354040283529160200191610b0a565b820191906000526020600020905b815481529060010190602001808311610aed57829003601f168201915b505050505090806006018054610b1f906148d3565b80601f0160208091040260200160405190810160405280929190818152602001828054610b4b906148d3565b8015610b985780601f10610b6d57610100808354040283529160200191610b98565b820191906000526020600020905b815481529060010190602001808311610b7b57829003601f168201915b505050505090806007018054610bad906148d3565b80601f0160208091040260200160405190810160405280929190818152602001828054610bd9906148d3565b8015610c265780601f10610bfb57610100808354040283529160200191610c26565b820191906000526020600020905b815481529060010190602001808311610c0957829003601f168201915b5050505050905088565b610c41610c3b612012565b826120d3565b610c80576040517f08c379a0000000000000000000000000000000000000000000000000000000008152600401610c7790614530565b60405180910390fd5b610c8b8383836121b1565b505050565b60606000600b600084815260200190815260200160002060405180610100016040529081600082015481526020016001820160009054906101000a900473ffffffffffffffffffffffffffffffffffffffff1673ffffffffffffffffffffffffffffffffffffffff1673ffffffffffffffffffffffffffffffffffffffff168152602001600282018054610d23906148d3565b80601f0160208091040260200160405190810160405280929190818152602001828054610d4f906148d3565b8015610d9c5780601f10610d7157610100808354040283529160200191610d9c565b820191906000526020600020905b815481529060010190602001808311610d7f57829003601f168201915b50505050508152602001600382018054610db5906148d3565b80601f0160208091040260200160405190810160405280929190818152602001828054610de1906148d3565b8015610e2e5780601f10610e0357610100808354040283529160200191610e2e565b820191906000526020600020905b815481529060010190602001808311610e1157829003601f168201915b50505050508152602001600482018054610e47906148d3565b80601f0160208091040260200160405190810160405280929190818152602001828054610e73906148d3565b8015610ec05780601f10610e9557610100808354040283529160200191610ec0565b820191906000526020600020905b815481529060010190602001808311610ea357829003601f168201915b50505050508152602001600582018054610ed9906148d3565b80601f0160208091040260200160405190810160405280929190818152602001828054610f05906148d3565b8015610f525780601f10610f2757610100808354040283529160200191610f52565b820191906000526020600020905b815481529060010190602001808311610f3557829003601f168201915b50505050508152602001600682018054610f6b906148d3565b80601f0160208091040260200160405190810160405280929190818152602001828054610f97906148d3565b8015610fe45780601f10610fb957610100808354040283529160200191610fe4565b820191906000526020600020905b815481529060010190602001808311610fc757829003601f168201915b50505050508152602001600782018054610ffd906148d3565b80601f0160208091040260200160405190810160405280929190818152602001828054611029906148d3565b80156110765780601f1061104b57610100808354040283529160200191611076565b820191906000526020600020905b81548152906001019060200180831161105957829003601f168201915b50505050508152505090506111286110a061109b6101694261109661088b565b612418565b61245e565b6110bc6110b7610169446110b261088b565b612418565b61245e565b83606001518460a001518560c0015186608001518760e001516110fd6110f86101694460016110e961088b565b6110f39190614708565b612418565b61245e565b604051602001611114989796959493929190614040565b60405160208183030381529060405261260b565b915050919050565b600061113b8361143a565b821061117c576040517f08c379a000000000000000000000000000000000000000000000000000000000815260040161117390614330565b60405180910390fd5b600660008473ffffffffffffffffffffffffffffffffffffffff1673ffffffffffffffffffffffffffffffffffffffff168152602001908152602001600020600083815260200190815260200160002054905092915050565b6111dd612012565b73ffffffffffffffffffffffffffffffffffffffff166111fb61175c565b73ffffffffffffffffffffffffffffffffffffffff1614611251576040517f08c379a0000000000000000000000000000000000000000000000000000000008152600401611248906144d0565b60405180910390fd5b600061125b61175c565b73ffffffffffffffffffffffffffffffffffffffff164760405161127e90614229565b60006040518083038185875af1925050503d80600081146112bb576040519150601f19603f3d011682016040523d82523d6000602084013e6112c0565b606091505b50509050806112ce57600080fd5b50565b6112ec8383836040518060200160405280600081525061182e565b505050565b60006112fb61088b565b821061133c576040517f08c379a000000000000000000000000000000000000000000000000000000000815260040161133390614550565b60405180910390fd5b60088281548110611376577f4e487b7100000000000000000000000000000000000000000000000000000000600052603260045260246000fd5b90600052602060002001549050919050565b6000806002600084815260200190815260200160002060009054906101000a900473ffffffffffffffffffffffffffffffffffffffff169050600073ffffffffffffffffffffffffffffffffffffffff168173ffffffffffffffffffffffffffffffffffffffff161415611431576040517f08c379a000000000000000000000000000000000000000000000000000000000815260040161142890614470565b60405180910390fd5b80915050919050565b60008073ffffffffffffffffffffffffffffffffffffffff168273ffffffffffffffffffffffffffffffffffffffff1614156114ab576040517f08c379a00000000000000000000000000000000000000000000000000000000081526004016114a290614450565b60405180910390fd5b600360008373ffffffffffffffffffffffffffffffffffffffff1673ffffffffffffffffffffffffffffffffffffffff168152602001908152602001600020549050919050565b6114fa612012565b73ffffffffffffffffffffffffffffffffffffffff1661151861175c565b73ffffffffffffffffffffffffffffffffffffffff161461156e576040517f08c379a0000000000000000000000000000000000000000000000000000000008152600401611565906144d0565b60405180910390fd5b61157860006127b6565b565b600061158461088b565b905060006040518061010001604052806001846115a19190614708565b81526020013373ffffffffffffffffffffffffffffffffffffffff1681526020016040518060400160405280600881526020017f2320544e46542023000000000000000000000000000000000000000000000000815250815260200188815260200187815260200186815260200185815260200184815250905080600b600060018561162d9190614708565b81526020019081526020016000206000820151816000015560208201518160010160006101000a81548173ffffffffffffffffffffffffffffffffffffffff021916908373ffffffffffffffffffffffffffffffffffffffff16021790555060408201518160020190805190602001906116a8929190613352565b5060608201518160030190805190602001906116c5929190613352565b5060808201518160040190805190602001906116e2929190613352565b5060a08201518160050190805190602001906116ff929190613352565b5060c082015181600601908051906020019061171c929190613352565b5060e0820151816007019080519060200190611739929190613352565b509050506117533360018461174e9190614708565b61287c565b50505050505050565b6000600a60009054906101000a900473ffffffffffffffffffffffffffffffffffffffff16905090565b606060018054611795906148d3565b80601f01602080910402602001604051908101604052809291908181526020018280546117c1906148d3565b801561180e5780601f106117e35761010080835404028352916020019161180e565b820191906000526020600020905b8154815290600101906020018083116117f157829003601f168201915b5050505050905090565b61182a611823612012565b838361289a565b5050565b61183f611839612012565b836120d3565b61187e576040517f08c379a000000000000000000000000000000000000000000000000000000000815260040161187590614530565b60405180910390fd5b61188a84848484612a07565b50505050565b606061189b82611fa6565b6118da576040517f08c379a00000000000000000000000000000000000000000000000000000000081526004016118d1906144f0565b60405180910390fd5b6118e38261197e565b9050919050565b6000600560008473ffffffffffffffffffffffffffffffffffffffff1673ffffffffffffffffffffffffffffffffffffffff16815260200190815260200160002060008373ffffffffffffffffffffffffffffffffffffffff1673ffffffffffffffffffffffffffffffffffffffff16815260200190815260200160002060009054906101000a900460ff16905092915050565b60606000600b600084815260200190815260200160002060405180610100016040529081600082015481526020016001820160009054906101000a900473ffffffffffffffffffffffffffffffffffffffff1673ffffffffffffffffffffffffffffffffffffffff1673ffffffffffffffffffffffffffffffffffffffff168152602001600282018054611a11906148d3565b80601f0160208091040260200160405190810160405280929190818152602001828054611a3d906148d3565b8015611a8a5780601f10611a5f57610100808354040283529160200191611a8a565b820191906000526020600020905b815481529060010190602001808311611a6d57829003601f168201915b50505050508152602001600382018054611aa3906148d3565b80601f0160208091040260200160405190810160405280929190818152602001828054611acf906148d3565b8015611b1c5780601f10611af157610100808354040283529160200191611b1c565b820191906000526020600020905b815481529060010190602001808311611aff57829003601f168201915b50505050508152602001600482018054611b35906148d3565b80601f0160208091040260200160405190810160405280929190818152602001828054611b61906148d3565b8015611bae5780601f10611b8357610100808354040283529160200191611bae565b820191906000526020600020905b815481529060010190602001808311611b9157829003601f168201915b50505050508152602001600582018054611bc7906148d3565b80601f0160208091040260200160405190810160405280929190818152602001828054611bf3906148d3565b8015611c405780601f10611c1557610100808354040283529160200191611c40565b820191906000526020600020905b815481529060010190602001808311611c2357829003601f168201915b50505050508152602001600682018054611c59906148d3565b80601f0160208091040260200160405190810160405280929190818152602001828054611c85906148d3565b8015611cd25780601f10611ca757610100808354040283529160200191611cd2565b820191906000526020600020905b815481529060010190602001808311611cb557829003601f168201915b50505050508152602001600782018054611ceb906148d3565b80601f0160208091040260200160405190810160405280929190818152602001828054611d17906148d3565b8015611d645780601f10611d3957610100808354040283529160200191611d64565b820191906000526020600020905b815481529060010190602001808311611d4757829003601f168201915b5050505050815250509050611da58160400151611d8085610c90565b604051602001611d91929190613ff0565b60405160208183030381529060405261260b565b604051602001611db59190614207565b604051602081830303815290604052915050919050565b611dd4612012565b73ffffffffffffffffffffffffffffffffffffffff16611df261175c565b73ffffffffffffffffffffffffffffffffffffffff1614611e48576040517f08c379a0000000000000000000000000000000000000000000000000000000008152600401611e3f906144d0565b60405180910390fd5b600073ffffffffffffffffffffffffffffffffffffffff168173ffffffffffffffffffffffffffffffffffffffff161415611eb8576040517f08c379a0000000000000000000000000000000000000000000000000000000008152600401611eaf90614370565b60405180910390fd5b611ec1816127b6565b50565b60007f80ac58cd000000000000000000000000000000000000000000000000000000007bffffffffffffffffffffffffffffffffffffffffffffffffffffffff1916827bffffffffffffffffffffffffffffffffffffffffffffffffffffffff19161480611f8f57507f5b5e139f000000000000000000000000000000000000000000000000000000007bffffffffffffffffffffffffffffffffffffffffffffffffffffffff1916827bffffffffffffffffffffffffffffffffffffffffffffffffffffffff1916145b80611f9f5750611f9e82612a63565b5b9050919050565b60008073ffffffffffffffffffffffffffffffffffffffff166002600084815260200190815260200160002060009054906101000a900473ffffffffffffffffffffffffffffffffffffffff1673ffffffffffffffffffffffffffffffffffffffff1614159050919050565b600033905090565b816004600083815260200190815260200160002060006101000a81548173ffffffffffffffffffffffffffffffffffffffff021916908373ffffffffffffffffffffffffffffffffffffffff160217905550808273ffffffffffffffffffffffffffffffffffffffff1661208d83611388565b73ffffffffffffffffffffffffffffffffffffffff167f8c5be1e5ebec7d5bd14f71427d1e84f3dd0314c0f7b2291e5b200ac8c7c3b92560405160405180910390a45050565b60006120de82611fa6565b61211d576040517f08c379a000000000000000000000000000000000000000000000000000000000815260040161211490614410565b60405180910390fd5b600061212883611388565b90508073ffffffffffffffffffffffffffffffffffffffff168473ffffffffffffffffffffffffffffffffffffffff16148061219757508373ffffffffffffffffffffffffffffffffffffffff1661217f846106ee565b73ffffffffffffffffffffffffffffffffffffffff16145b806121a857506121a781856118ea565b5b91505092915050565b8273ffffffffffffffffffffffffffffffffffffffff166121d182611388565b73ffffffffffffffffffffffffffffffffffffffff1614612227576040517f08c379a000000000000000000000000000000000000000000000000000000000815260040161221e90614390565b60405180910390fd5b600073ffffffffffffffffffffffffffffffffffffffff168273ffffffffffffffffffffffffffffffffffffffff161415612297576040517f08c379a000000000000000000000000000000000000000000000000000000000815260040161228e906143d0565b60405180910390fd5b6122a2838383612acd565b6122ad60008261201a565b6001600360008573ffffffffffffffffffffffffffffffffffffffff1673ffffffffffffffffffffffffffffffffffffffff16815260200190815260200160002060008282546122fd91906147e9565b925050819055506001600360008473ffffffffffffffffffffffffffffffffffffffff1673ffffffffffffffffffffffffffffffffffffffff16815260200190815260200160002060008282546123549190614708565b92505081905550816002600083815260200190815260200160002060006101000a81548173ffffffffffffffffffffffffffffffffffffffff021916908373ffffffffffffffffffffffffffffffffffffffff160217905550808273ffffffffffffffffffffffffffffffffffffffff168473ffffffffffffffffffffffffffffffffffffffff167fddf252ad1be2c89b69c2b068fc378daa952ba7f163c4a11628f55a4df523b3ef60405160405180910390a4612413838383612be1565b505050565b60008342338585604051602001612432949392919061423e565b6040516020818303038152906040528051906020012060001c61245591906149ad565b90509392505050565b606060008214156124a6576040518060400160405280600181526020017f30000000000000000000000000000000000000000000000000000000000000008152509050612606565b600082905060005b600082146124d85780806124c190614936565b915050600a826124d1919061475e565b91506124ae565b60008167ffffffffffffffff81111561251a577f4e487b7100000000000000000000000000000000000000000000000000000000600052604160045260246000fd5b6040519080825280601f01601f19166020018201604052801561254c5781602001600182028036833780820191505090505b5090505b600085146125ff5760018261256591906147e9565b9150600a8561257491906149ad565b60306125809190614708565b60f81b8183815181106125bc577f4e487b7100000000000000000000000000000000000000000000000000000000600052603260045260246000fd5b60200101907effffffffffffffffffffffffffffffffffffffffffffffffffffffffffffff1916908160001a905350600a856125f8919061475e565b9450612550565b8093505050505b919050565b606060008251141561262e576040518060200160405280600081525090506127b1565b6000604051806060016040528060408152602001615ce0604091399050600060036002855161265d9190614708565b612667919061475e565b6004612673919061478f565b905060006020826126849190614708565b67ffffffffffffffff8111156126c3577f4e487b7100000000000000000000000000000000000000000000000000000000600052604160045260246000fd5b6040519080825280601f01601f1916602001820160405280156126f55781602001600182028036833780820191505090505b509050818152600183018586518101602084015b81831015612770576003830192508251603f8160121c1685015160f81b8252600182019150603f81600c1c1685015160f81b8252600182019150603f8160061c1685015160f81b8252600182019150603f811685015160f81b825260018201915050612709565b60038951066001811461278a576002811461279a576127a5565b613d3d60f01b60028303526127a5565b603d60f81b60018303525b50505050508093505050505b919050565b6000600a60009054906101000a900473ffffffffffffffffffffffffffffffffffffffff16905081600a60006101000a81548173ffffffffffffffffffffffffffffffffffffffff021916908373ffffffffffffffffffffffffffffffffffffffff1602179055508173ffffffffffffffffffffffffffffffffffffffff168173ffffffffffffffffffffffffffffffffffffffff167f8be0079c531659141344cd1fd0a4f28419497f9722a3daafe3b4186f6b6457e060405160405180910390a35050565b612896828260405180602001604052806000815250612be6565b5050565b8173ffffffffffffffffffffffffffffffffffffffff168373ffffffffffffffffffffffffffffffffffffffff161415612909576040517f08c379a0000000000000000000000000000000000000000000000000000000008152600401612900906143f0565b60405180910390fd5b80600560008573ffffffffffffffffffffffffffffffffffffffff1673ffffffffffffffffffffffffffffffffffffffff16815260200190815260200160002060008473ffffffffffffffffffffffffffffffffffffffff1673ffffffffffffffffffffffffffffffffffffffff16815260200190815260200160002060006101000a81548160ff0219169083151502179055508173ffffffffffffffffffffffffffffffffffffffff168373ffffffffffffffffffffffffffffffffffffffff167f17307eab39ab6107e8899845ad3d59bd9653f200f220920489ca2b5937696c31836040516129fa91906142f3565b60405180910390a3505050565b612a128484846121b1565b612a1e84848484612c41565b612a5d576040517f08c379a0000000000000000000000000000000000000000000000000000000008152600401612a5490614350565b60405180910390fd5b50505050565b60007f01ffc9a7000000000000000000000000000000000000000000000000000000007bffffffffffffffffffffffffffffffffffffffffffffffffffffffff1916827bffffffffffffffffffffffffffffffffffffffffffffffffffffffff1916149050919050565b612ad8838383612dd8565b600073ffffffffffffffffffffffffffffffffffffffff168373ffffffffffffffffffffffffffffffffffffffff161415612b1b57612b1681612ddd565b612b5a565b8173ffffffffffffffffffffffffffffffffffffffff168373ffffffffffffffffffffffffffffffffffffffff1614612b5957612b588382612e26565b5b5b600073ffffffffffffffffffffffffffffffffffffffff168273ffffffffffffffffffffffffffffffffffffffff161415612b9d57612b9881612f93565b612bdc565b8273ffffffffffffffffffffffffffffffffffffffff168273ffffffffffffffffffffffffffffffffffffffff1614612bdb57612bda82826130d6565b5b5b505050565b505050565b612bf08383613155565b612bfd6000848484612c41565b612c3c576040517f08c379a0000000000000000000000000000000000000000000000000000000008152600401612c3390614350565b60405180910390fd5b505050565b6000612c628473ffffffffffffffffffffffffffffffffffffffff1661332f565b15612dcb578373ffffffffffffffffffffffffffffffffffffffff1663150b7a02612c8b612012565b8786866040518563ffffffff1660e01b8152600401612cad94939291906142a7565b602060405180830381600087803b158015612cc757600080fd5b505af1925050508015612cf857506040513d601f19601f82011682018060405250810190612cf591906136fe565b60015b612d7b573d8060008114612d28576040519150601f19603f3d011682016040523d82523d6000602084013e612d2d565b606091505b50600081511415612d73576040517f08c379a0000000000000000000000000000000000000000000000000000000008152600401612d6a90614350565b60405180910390fd5b805181602001fd5b63150b7a0260e01b7bffffffffffffffffffffffffffffffffffffffffffffffffffffffff1916817bffffffffffffffffffffffffffffffffffffffffffffffffffffffff191614915050612dd0565b600190505b949350505050565b505050565b6008805490506009600083815260200190815260200160002081905550600881908060018154018082558091505060019003906000526020600020016000909190919091505550565b60006001612e338461143a565b612e3d91906147e9565b9050600060076000848152602001908152602001600020549050818114612f22576000600660008673ffffffffffffffffffffffffffffffffffffffff1673ffffffffffffffffffffffffffffffffffffffff168152602001908152602001600020600084815260200190815260200160002054905080600660008773ffffffffffffffffffffffffffffffffffffffff1673ffffffffffffffffffffffffffffffffffffffff168152602001908152602001600020600084815260200190815260200160002081905550816007600083815260200190815260200160002081905550505b6007600084815260200190815260200160002060009055600660008573ffffffffffffffffffffffffffffffffffffffff1673ffffffffffffffffffffffffffffffffffffffff16815260200190815260200160002060008381526020019081526020016000206000905550505050565b60006001600880549050612fa791906147e9565b9050600060096000848152602001908152602001600020549050600060088381548110612ffd577f4e487b7100000000000000000000000000000000000000000000000000000000600052603260045260246000fd5b906000526020600020015490508060088381548110613045577f4e487b7100000000000000000000000000000000000000000000000000000000600052603260045260246000fd5b9060005260206000200181905550816009600083815260200190815260200160002081905550600960008581526020019081526020016000206000905560088054806130ba577f4e487b7100000000000000000000000000000000000000000000000000000000600052603160045260246000fd5b6001900381819060005260206000200160009055905550505050565b60006130e18361143a565b905081600660008573ffffffffffffffffffffffffffffffffffffffff1673ffffffffffffffffffffffffffffffffffffffff168152602001908152602001600020600083815260200190815260200160002081905550806007600084815260200190815260200160002081905550505050565b600073ffffffffffffffffffffffffffffffffffffffff168273ffffffffffffffffffffffffffffffffffffffff1614156131c5576040517f08c379a00000000000000000000000000000000000000000000000000000000081526004016131bc90614490565b60405180910390fd5b6131ce81611fa6565b1561320e576040517f08c379a0000000000000000000000000000000000000000000000000000000008152600401613205906143b0565b60405180910390fd5b61321a60008383612acd565b6001600360008473ffffffffffffffffffffffffffffffffffffffff1673ffffffffffffffffffffffffffffffffffffffff168152602001908152602001600020600082825461326a9190614708565b92505081905550816002600083815260200190815260200160002060006101000a81548173ffffffffffffffffffffffffffffffffffffffff021916908373ffffffffffffffffffffffffffffffffffffffff160217905550808273ffffffffffffffffffffffffffffffffffffffff16600073ffffffffffffffffffffffffffffffffffffffff167fddf252ad1be2c89b69c2b068fc378daa952ba7f163c4a11628f55a4df523b3ef60405160405180910390a461332b60008383612be1565b5050565b6000808273ffffffffffffffffffffffffffffffffffffffff163b119050919050565b82805461335e906148d3565b90600052602060002090601f01602090048101928261338057600085556133c7565b82601f1061339957805160ff19168380011785556133c7565b828001600101855582156133c7579182015b828111156133c65782518255916020019190600101906133ab565b5b5090506133d491906133d8565b5090565b5b808211156133f15760008160009055506001016133d9565b5090565b600061340861340384614658565b614633565b90508281526020810184848401111561342057600080fd5b61342b848285614891565b509392505050565b600061344661344184614689565b614633565b90508281526020810184848401111561345e57600080fd5b613469848285614891565b509392505050565b60008135905061348081615c83565b92915050565b60008135905061349581615c9a565b92915050565b6000813590506134aa81615cb1565b92915050565b6000815190506134bf81615cb1565b92915050565b600082601f8301126134d657600080fd5b81356134e68482602086016133f5565b91505092915050565b600082601f83011261350057600080fd5b8135613510848260208601613433565b91505092915050565b60008135905061352881615cc8565b92915050565b60006020828403121561354057600080fd5b600061354e84828501613471565b91505092915050565b6000806040838503121561356a57600080fd5b600061357885828601613471565b925050602061358985828601613471565b9150509250929050565b6000806000606084860312156135a857600080fd5b60006135b686828701613471565b93505060206135c786828701613471565b92505060406135d886828701613519565b9150509250925092565b600080600080608085870312156135f857600080fd5b600061360687828801613471565b945050602061361787828801613471565b935050604061362887828801613519565b925050606085013567ffffffffffffffff81111561364557600080fd5b613651878288016134c5565b91505092959194509250565b6000806040838503121561367057600080fd5b600061367e85828601613471565b925050602061368f85828601613486565b9150509250929050565b600080604083850312156136ac57600080fd5b60006136ba85828601613471565b92505060206136cb85828601613519565b9150509250929050565b6000602082840312156136e757600080fd5b60006136f58482850161349b565b91505092915050565b60006020828403121561371057600080fd5b600061371e848285016134b0565b91505092915050565b600080600080600060a0868803121561373f57600080fd5b600086013567ffffffffffffffff81111561375957600080fd5b613765888289016134ef565b955050602086013567ffffffffffffffff81111561378257600080fd5b61378e888289016134ef565b945050604086013567ffffffffffffffff8111156137ab57600080fd5b6137b7888289016134ef565b935050606086013567ffffffffffffffff8111156137d457600080fd5b6137e0888289016134ef565b925050608086013567ffffffffffffffff8111156137fd57600080fd5b613809888289016134ef565b9150509295509295909350565b60006020828403121561382857600080fd5b600061383684828501613519565b91505092915050565b6138488161481d565b82525050565b61385f61385a8261481d565b61497f565b82525050565b61386e8161482f565b82525050565b600061387f826146ba565b61388981856146d0565b93506138998185602086016148a0565b6138a281614a9a565b840191505092915050565b60006138b8826146c5565b6138c281856146ec565b93506138d28185602086016148a0565b6138db81614a9a565b840191505092915050565b60006138f1826146c5565b6138fb81856146fd565b935061390b8185602086016148a0565b80840191505092915050565b6000613924606e836146fd565b915061392f82614ab8565b606e82019050919050565b60006139476009836146fd565b915061395282614b53565b600982019050919050565b600061396a6068836146fd565b915061397582614b7c565b606882019050919050565b600061398d602b836146ec565b915061399882614c17565b604082019050919050565b60006139b0602f836146fd565b91506139bb82614c66565b602f82019050919050565b60006139d36032836146ec565b91506139de82614cb5565b604082019050919050565b60006139f66085836146fd565b9150613a0182614d04565b608582019050919050565b6000613a196041836146fd565b9150613a2482614dc5565b604182019050919050565b6000613a3c6026836146ec565b9150613a4782614e3a565b604082019050919050565b6000613a5f6025836146ec565b9150613a6a82614e89565b604082019050919050565b6000613a82601c836146ec565b9150613a8d82614ed8565b602082019050919050565b6000613aa56067836146fd565b9150613ab082614f01565b606782019050919050565b6000613ac8606f836146fd565b9150613ad382614f9c565b606f82019050919050565b6000613aeb6033836146fd565b9150613af682615037565b603382019050919050565b6000613b0e6024836146ec565b9150613b1982615086565b604082019050919050565b6000613b316019836146ec565b9150613b3c826150d5565b602082019050919050565b6000613b54602c836146ec565b9150613b5f826150fe565b604082019050919050565b6000613b77607a836146fd565b9150613b828261514d565b607a82019050919050565b6000613b9a6010836146fd565b9150613ba5826151e8565b601082019050919050565b6000613bbd6038836146ec565b9150613bc882615211565b604082019050919050565b6000613be0602a836146ec565b9150613beb82615260565b604082019050919050565b6000613c036029836146ec565b9150613c0e826152af565b604082019050919050565b6000613c26606f836146fd565b9150613c31826152fe565b606f82019050919050565b6000613c496068836146fd565b9150613c5482615399565b606882019050919050565b6000613c6c6073836146fd565b9150613c7782615434565b607382019050919050565b6000613c8f6002836146fd565b9150613c9a826154cf565b600282019050919050565b6000613cb2606f836146fd565b9150613cbd826154f8565b606f82019050919050565b6000613cd56007836146fd565b9150613ce082615593565b600782019050919050565b6000613cf86020836146ec565b9150613d03826155bc565b602082019050919050565b6000613d1b600d836146fd565b9150613d26826155e5565b600d82019050919050565b6000613d3e602c836146ec565b9150613d498261560e565b604082019050919050565b6000613d616020836146ec565b9150613d6c8261565d565b602082019050919050565b6000613d84602f836146ec565b9150613d8f82615686565b604082019050919050565b6000613da76021836146ec565b9150613db2826156d5565b604082019050919050565b6000613dca601d836146fd565b9150613dd582615724565b601d82019050919050565b6000613ded606c836146fd565b9150613df88261574d565b606c82019050919050565b6000613e106000836146e1565b9150613e1b826157e8565b600082019050919050565b6000613e336031836146ec565b9150613e3e826157eb565b604082019050919050565b6000613e566001836146fd565b9150613e618261583a565b600182019050919050565b6000613e79602f836146fd565b9150613e8482615863565b602f82019050919050565b6000613e9c602c836146ec565b9150613ea7826158b2565b604082019050919050565b6000613ebf6068836146fd565b9150613eca82615901565b606882019050919050565b6000613ee26068836146fd565b9150613eed8261599c565b606882019050919050565b6000613f056068836146fd565b9150613f1082615a37565b606882019050919050565b6000613f286008836146fd565b9150613f3382615ad2565b600882019050919050565b6000613f4b6006836146fd565b9150613f5682615afb565b600682019050919050565b6000613f6e6077836146fd565b9150613f7982615b24565b607782019050919050565b6000613f91601a836146fd565b9150613f9c82615bbf565b601a82019050919050565b6000613fb46072836146fd565b9150613fbf82615be8565b607282019050919050565b613fd381614887565b82525050565b613fea613fe582614887565b6149a3565b82525050565b6000613ffb8261393a565b915061400782856138e6565b915061401282613d0e565b915061401d82613f84565b915061402982846138e6565b915061403482613c82565b91508190509392505050565b600061404b82613a0c565b915061405682613b8d565b9150614062828b6138e6565b915061406d82613ade565b915061407882613b8d565b9150614084828a6138e6565b915061408f82613e6c565b915061409a82613b6a565b91506140a582613c19565b91506140b082613a98565b91506140bb82613e49565b91506140c682613cc8565b91506140d182613de0565b91506140dc82613eb2565b91506140e882896138e6565b91506140f382613cc8565b91506140fe82613abb565b915061410982613ed5565b915061411582886138e6565b915061412082613cc8565b915061412b82613ca5565b915061413682613c3c565b915061414282876138e6565b915061414d82613cc8565b915061415882613f61565b915061416382613ef8565b915061416f82866138e6565b915061417a82613f1b565b915061418582613fa7565b91506141908261395d565b915061419c82856138e6565b91506141a782613cc8565b91506141b282613b8d565b91506141be82846138e6565b91506141c9826139a3565b91506141d482613917565b91506141df826139e9565b91506141ea82613c5f565b91506141f582613f3e565b91508190509998505050505050505050565b600061421282613dbd565b915061421e82846138e6565b915081905092915050565b600061423482613e03565b9150819050919050565b600061424a8287613fd9565b60208201915061425a828661384e565b60148201915061426a8285613fd9565b60208201915061427a8284613fd9565b60208201915081905095945050505050565b60006020820190506142a1600083018461383f565b92915050565b60006080820190506142bc600083018761383f565b6142c9602083018661383f565b6142d66040830185613fca565b81810360608301526142e88184613874565b905095945050505050565b60006020820190506143086000830184613865565b92915050565b6000602082019050818103600083015261432881846138ad565b905092915050565b6000602082019050818103600083015261434981613980565b9050919050565b60006020820190508181036000830152614369816139c6565b9050919050565b6000602082019050818103600083015261438981613a2f565b9050919050565b600060208201905081810360008301526143a981613a52565b9050919050565b600060208201905081810360008301526143c981613a75565b9050919050565b600060208201905081810360008301526143e981613b01565b9050919050565b6000602082019050818103600083015261440981613b24565b9050919050565b6000602082019050818103600083015261442981613b47565b9050919050565b6000602082019050818103600083015261444981613bb0565b9050919050565b6000602082019050818103600083015261446981613bd3565b9050919050565b6000602082019050818103600083015261448981613bf6565b9050919050565b600060208201905081810360008301526144a981613ceb565b9050919050565b600060208201905081810360008301526144c981613d31565b9050919050565b600060208201905081810360008301526144e981613d54565b9050919050565b6000602082019050818103600083015261450981613d77565b9050919050565b6000602082019050818103600083015261452981613d9a565b9050919050565b6000602082019050818103600083015261454981613e26565b9050919050565b6000602082019050818103600083015261456981613e8f565b9050919050565b60006020820190506145856000830184613fca565b92915050565b6000610100820190506145a1600083018b613fca565b6145ae602083018a61383f565b81810360408301526145c081896138ad565b905081810360608301526145d481886138ad565b905081810360808301526145e881876138ad565b905081810360a08301526145fc81866138ad565b905081810360c083015261461081856138ad565b905081810360e083015261462481846138ad565b90509998505050505050505050565b600061463d61464e565b90506146498282614905565b919050565b6000604051905090565b600067ffffffffffffffff82111561467357614672614a6b565b5b61467c82614a9a565b9050602081019050919050565b600067ffffffffffffffff8211156146a4576146a3614a6b565b5b6146ad82614a9a565b9050602081019050919050565b600081519050919050565b600081519050919050565b600082825260208201905092915050565b600081905092915050565b600082825260208201905092915050565b600081905092915050565b600061471382614887565b915061471e83614887565b9250827fffffffffffffffffffffffffffffffffffffffffffffffffffffffffffffffff03821115614753576147526149de565b5b828201905092915050565b600061476982614887565b915061477483614887565b92508261478457614783614a0d565b5b828204905092915050565b600061479a82614887565b91506147a583614887565b9250817fffffffffffffffffffffffffffffffffffffffffffffffffffffffffffffffff04831182151516156147de576147dd6149de565b5b828202905092915050565b60006147f482614887565b91506147ff83614887565b925082821015614812576148116149de565b5b828203905092915050565b600061482882614867565b9050919050565b60008115159050919050565b60007fffffffff0000000000000000000000000000000000000000000000000000000082169050919050565b600073ffffffffffffffffffffffffffffffffffffffff82169050919050565b6000819050919050565b82818337600083830152505050565b60005b838110156148be5780820151818401526020810190506148a3565b838111156148cd576000848401525b50505050565b600060028204905060018216806148eb57607f821691505b602082108114156148ff576148fe614a3c565b5b50919050565b61490e82614a9a565b810181811067ffffffffffffffff8211171561492d5761492c614a6b565b5b80604052505050565b600061494182614887565b91507fffffffffffffffffffffffffffffffffffffffffffffffffffffffffffffffff821415614974576149736149de565b5b600182019050919050565b600061498a82614991565b9050919050565b600061499c82614aab565b9050919050565b6000819050919050565b60006149b882614887565b91506149c383614887565b9250826149d3576149d2614a0d565b5b828206905092915050565b7f4e487b7100000000000000000000000000000000000000000000000000000000600052601160045260246000fd5b7f4e487b7100000000000000000000000000000000000000000000000000000000600052601260045260246000fd5b7f4e487b7100000000000000000000000000000000000000000000000000000000600052602260045260246000fd5b7f4e487b7100000000000000000000000000000000000000000000000000000000600052604160045260246000fd5b6000601f19601f8301169050919050565b60008160601b9050919050565b7f3c7465787420783d22372220793d223234302e323433392220666f6e742d736960008201527f7a653d2231332220666f6e742d66616d696c793d22436f7572696572204e657760208201527f2c206d6f6e6f73706163652220666f6e742d7765696768743d22626f6c64223e60408201527f5361686962693a3c2f746578743e000000000000000000000000000000000000606082015250565b7f7b226e616d65223a220000000000000000000000000000000000000000000000600082015250565b7f3c7465787420783d2239352e33333333332220793d223138362e33333333332260008201527f20666f6e742d73697a653d2231332220666f6e742d66616d696c793d22436f7560208201527f72696572204e65772c206d6f6e6f73706163652220666f6e742d77656967687460408201527f3d22626f6c64223e000000000000000000000000000000000000000000000000606082015250565b7f455243373231456e756d657261626c653a206f776e657220696e646578206f7560008201527f74206f6620626f756e6473000000000000000000000000000000000000000000602082015250565b7f2c20313030252c20363025292220793d22323230222077696474683d2233303060008201527f22206865696768743d223830222f3e0000000000000000000000000000000000602082015250565b7f4552433732313a207472616e7366657220746f206e6f6e20455243373231526560008201527f63656976657220696d706c656d656e7465720000000000000000000000000000602082015250565b7f3c7465787420783d22372220793d223236302e343837382220666f6e742d736960008201527f7a653d2231332220666f6e742d66616d696c793d22436f7572696572204e657760208201527f2c206d6f6e6f73706163652220666f6e742d7765696768743d22626f6c64223e60408201527f3078303030303030303030303030303030303030303030303030303030303c2f60608201527f746578743e000000000000000000000000000000000000000000000000000000608082015250565b7f3c7376672077696474683d2233303022206865696768743d223330302220786d60008201527f6c6e733d22687474703a2f2f7777772e77332e6f72672f323030302f7376672260208201527f3e00000000000000000000000000000000000000000000000000000000000000604082015250565b7f4f776e61626c653a206e6577206f776e657220697320746865207a65726f206160008201527f6464726573730000000000000000000000000000000000000000000000000000602082015250565b7f4552433732313a207472616e736665722066726f6d20696e636f72726563742060008201527f6f776e6572000000000000000000000000000000000000000000000000000000602082015250565b7f4552433732313a20746f6b656e20616c7265616479206d696e74656400000000600082015250565b7f3c7465787420783d2239352e33333333332220793d2238352e3836393932222060008201527f666f6e742d73697a653d2231332220666f6e742d66616d696c793d22436f757260208201527f696572204e65772c206d6f6e6f73706163652220666f6e742d7765696768743d60408201527f22626f6c64223e00000000000000000000000000000000000000000000000000606082015250565b7f3c7465787420783d22372220793d223132352e38323131332220666f6e742d7360008201527f697a653d2231332220666f6e742d66616d696c793d22436f7572696572204e6560208201527f772c206d6f6e6f73706163652220666f6e742d7765696768743d22626f6c642260408201527f3ec4b06cc3a7653a3c2f746578743e0000000000000000000000000000000000606082015250565b7f2c20313030252c20363025292220783d22302220793d2230222077696474683d60008201527f2233303022206865696768743d223530222f3e00000000000000000000000000602082015250565b7f4552433732313a207472616e7366657220746f20746865207a65726f2061646460008201527f7265737300000000000000000000000000000000000000000000000000000000602082015250565b7f4552433732313a20617070726f766520746f2063616c6c657200000000000000600082015250565b7f4552433732313a206f70657261746f7220717565727920666f72206e6f6e657860008201527f697374656e7420746f6b656e0000000000000000000000000000000000000000602082015250565b7f3c7465787420783d2237392e35323038342220793d2233322e3331373037222060008201527f666f6e742d73697a653d2232342220666f6e742d66616d696c793d22436f757260208201527f696572204e65772c206d6f6e6f73706163652220666f6e742d7765696768743d60408201527f22626f6c64223e544150552053454e4544c4b03c2f746578743e000000000000606082015250565b7f3c726563742066696c6c3d2268736c2800000000000000000000000000000000600082015250565b7f4552433732313a20617070726f76652063616c6c6572206973206e6f74206f7760008201527f6e6572206e6f7220617070726f76656420666f7220616c6c0000000000000000602082015250565b7f4552433732313a2062616c616e636520717565727920666f7220746865207a6560008201527f726f206164647265737300000000000000000000000000000000000000000000602082015250565b7f4552433732313a206f776e657220717565727920666f72206e6f6e657869737460008201527f656e7420746f6b656e0000000000000000000000000000000000000000000000602082015250565b7f3c7465787420783d22372220793d2238352e33383231312220666f6e742d736960008201527f7a653d2231332220666f6e742d66616d696c793d22436f7572696572204e657760208201527f2c206d6f6e6f73706163652220666f6e742d7765696768743d22626f6c64223e60408201527f54617075204e6f3a3c2f746578743e0000000000000000000000000000000000606082015250565b7f3c7465787420783d2239352e33333333332220793d223134352e38323131332260008201527f20666f6e742d73697a653d2231332220666f6e742d66616d696c793d22436f7560208201527f72696572204e65772c206d6f6e6f73706163652220666f6e742d77656967687460408201527f3d22626f6c64223e000000000000000000000000000000000000000000000000606082015250565b7f3c7465787420783d22372220793d223238302e343837382220666f6e742d736960008201527f7a653d2231332220666f6e742d66616d696c793d22436f7572696572204e657760208201527f2c206d6f6e6f73706163652220666f6e742d7765696768743d22626f6c64223e60408201527f4661746968204261796b616c3c2f746578743e00000000000000000000000000606082015250565b7f227d000000000000000000000000000000000000000000000000000000000000600082015250565b7f3c7465787420783d22372220793d223134352e383634352220666f6e742d736960008201527f7a653d2231332220666f6e742d66616d696c793d22436f7572696572204e657760208201527f2c206d6f6e6f73706163652220666f6e742d7765696768743d22626f6c64223e60408201527f4d6168616c6c653a3c2f746578743e0000000000000000000000000000000000606082015250565b7f3c2f746578743e00000000000000000000000000000000000000000000000000600082015250565b7f4552433732313a206d696e7420746f20746865207a65726f2061646472657373600082015250565b7f222c2022696d616765223a202200000000000000000000000000000000000000600082015250565b7f4552433732313a20617070726f76656420717565727920666f72206e6f6e657860008201527f697374656e7420746f6b656e0000000000000000000000000000000000000000602082015250565b7f4f776e61626c653a2063616c6c6572206973206e6f7420746865206f776e6572600082015250565b7f4552433732314d657461646174613a2055524920717565727920666f72206e6f60008201527f6e6578697374656e7420746f6b656e0000000000000000000000000000000000602082015250565b7f4552433732313a20617070726f76616c20746f2063757272656e74206f776e6560008201527f7200000000000000000000000000000000000000000000000000000000000000602082015250565b7f646174613a6170706c69636174696f6e2f6a736f6e3b6261736536342c000000600082015250565b7f3c7465787420783d22372220793d223130352e38323131332220666f6e742d7360008201527f697a653d2231332220666f6e742d66616d696c793d22436f7572696572204e6560208201527f772c206d6f6e6f73706163652220666f6e742d7765696768743d22626f6c642260408201527f3ec4b06c3a3c2f746578743e0000000000000000000000000000000000000000606082015250565b50565b7f4552433732313a207472616e736665722063616c6c6572206973206e6f74206f60008201527f776e6572206e6f7220617070726f766564000000000000000000000000000000602082015250565b7f3100000000000000000000000000000000000000000000000000000000000000600082015250565b7f2c20313030252c20363025292220793d223530222077696474683d223330302260008201527f206865696768743d22313730222f3e0000000000000000000000000000000000602082015250565b7f455243373231456e756d657261626c653a20676c6f62616c20696e646578206f60008201527f7574206f6620626f756e64730000000000000000000000000000000000000000602082015250565b7f3c7465787420783d2239352e33333333332220793d223130352e38323131332260008201527f20666f6e742d73697a653d2231332220666f6e742d66616d696c793d22436f7560208201527f72696572204e65772c206d6f6e6f73706163652220666f6e742d77656967687460408201527f3d22626f6c64223e000000000000000000000000000000000000000000000000606082015250565b7f3c7465787420783d2239352e33333333332220793d223132352e38323131332260008201527f20666f6e742d73697a653d2231332220666f6e742d66616d696c793d22436f7560208201527f72696572204e65772c206d6f6e6f73706163652220666f6e742d77656967687460408201527f3d22626f6c64223e000000000000000000000000000000000000000000000000606082015250565b7f3c7465787420783d2239352e33333333332220793d223136362e33333333332260008201527f20666f6e742d73697a653d2231332220666f6e742d66616d696c793d22436f7560208201527f72696572204e65772c206d6f6e6f73706163652220666f6e742d77656967687460408201527f3d22626f6c64223e000000000000000000000000000000000000000000000000606082015250565b7f703c2f746578743e000000000000000000000000000000000000000000000000600082015250565b7f3c2f7376673e0000000000000000000000000000000000000000000000000000600082015250565b7f3c7465787420783d22372220793d223136362e33333333332220666f6e742d7360008201527f697a653d2231332220666f6e742d66616d696c793d22436f7572696572204e6560208201527f772c206d6f6e6f73706163652220666f6e742d7765696768743d22626f6c642260408201527f3e59c3bc7ac3b66cc3a7c3bc6dc3bc3a3c2f746578743e000000000000000000606082015250565b7f646174613a696d6167652f7376672b786d6c3b6261736536342c000000000000600082015250565b7f3c7465787420783d22372220793d223138362e33333333332220666f6e742d7360008201527f697a653d2231332220666f6e742d66616d696c793d22436f7572696572204e6560208201527f772c206d6f6e6f73706163652220666f6e742d7765696768743d22626f6c642260408201527f3e4b6f6f7264696e61743a3c2f746578743e0000000000000000000000000000606082015250565b615c8c8161481d565b8114615c9757600080fd5b50565b615ca38161482f565b8114615cae57600080fd5b50565b615cba8161483b565b8114615cc557600080fd5b50565b615cd181614887565b8114615cdc57600080fd5b5056fe4142434445464748494a4b4c4d4e4f505152535455565758595a6162636465666768696a6b6c6d6e6f707172737475767778797a303132333435363738392b2fa26469706673582212209cc970e2181ae814e8e92b3f8cbb40c34cb7f4d543a747474abfdd13c5eb747464736f6c63430008010033",
  "immutableReferences": {},
  "source": "// SPDX-License-Identifier: MIT\r\n\r\npragma solidity >=0.8.0 <0.9.0;\r\n\r\nimport \"@openzeppelin/contracts/token/ERC721/extensions/ERC721Enumerable.sol\";\r\nimport \"@openzeppelin/contracts/access/Ownable.sol\";\r\nimport \"./Base64.sol\";\r\n\r\ncontract DeedNFT is ERC721Enumerable, Ownable {\r\n  using Strings for uint256;\r\n\r\n  struct NFTInfo {\r\n    uint256 ID;\r\n    address owner;\r\n    string name;\r\n    string province;\r\n    string area;\r\n    string county;\r\n    string district;\r\n    string coordinates;\r\n  }\r\n\r\n  mapping (uint256 => NFTInfo) public nftInfo;\r\n  \r\n  constructor() ERC721(\"Tapu NFT\", \"TNFT\") {}\r\n\r\n  function mint(\r\n    string memory _province,\r\n    string memory _area,\r\n    string memory _county,\r\n    string memory _district,\r\n    string memory _coordinates\r\n  ) public {\r\n    uint256 supply = totalSupply();\r\n    \r\n    NFTInfo memory newDeed = NFTInfo(\r\n      supply + 1,\r\n      msg.sender,\r\n      '# TNFT #',\r\n      _province,\r\n      _area,\r\n      _county,\r\n      _district,\r\n      _coordinates\r\n    );\r\n    \r\n    nftInfo[supply + 1] = newDeed;\r\n    _safeMint(msg.sender, supply + 1);\r\n  }\r\n\r\n  function randomNum(uint256 _mod, uint256 _seed, uint _salt) internal view returns(uint256) {\r\n      return uint(keccak256(abi.encodePacked(block.timestamp, msg.sender, _seed, _salt))) % _mod;\r\n  }\r\n\r\n  function buildImage(uint256 _tokenId) public view returns(string memory) {\r\n      NFTInfo memory currentDeed = nftInfo[_tokenId];\r\n      return Base64.encode(bytes(\r\n          abi.encodePacked(\r\n              '<svg width=\"300\" height=\"300\" xmlns=\"http://www.w3.org/2000/svg\">',\r\n              '<rect fill=\"hsl(', randomNum(361, block.timestamp, totalSupply()).toString() ,', 100%, 60%)\" x=\"0\" y=\"0\" width=\"300\" height=\"50\"/>',\r\n              '<rect fill=\"hsl(', randomNum(361, block.difficulty, totalSupply()).toString() ,', 100%, 60%)\" y=\"50\" width=\"300\" height=\"170\"/>',\r\n              '<text x=\"79.52084\" y=\"32.31707\" font-size=\"24\" font-family=\"Courier New, monospace\" font-weight=\"bold\">TAPU SENED\\xc4\\xb0</text>',\r\n              '<text x=\"7\" y=\"85.38211\" font-size=\"13\" font-family=\"Courier New, monospace\" font-weight=\"bold\">Tapu No:</text>',\r\n              '<text x=\"95.33333\" y=\"85.86992\" font-size=\"13\" font-family=\"Courier New, monospace\" font-weight=\"bold\">', \"1\",'</text>',\r\n              '<text x=\"7\" y=\"105.82113\" font-size=\"13\" font-family=\"Courier New, monospace\" font-weight=\"bold\">\\xc4\\xb0l:</text>',\r\n              '<text x=\"95.33333\" y=\"105.82113\" font-size=\"13\" font-family=\"Courier New, monospace\" font-weight=\"bold\">', currentDeed.province,'</text>',\r\n              '<text x=\"7\" y=\"125.82113\" font-size=\"13\" font-family=\"Courier New, monospace\" font-weight=\"bold\">\\xc4\\xb0l\\xc3\\xa7e:</text>',\r\n              '<text x=\"95.33333\" y=\"125.82113\" font-size=\"13\" font-family=\"Courier New, monospace\" font-weight=\"bold\">', currentDeed.county,'</text>',\r\n              '<text x=\"7\" y=\"145.8645\" font-size=\"13\" font-family=\"Courier New, monospace\" font-weight=\"bold\">Mahalle:</text>',\r\n              '<text x=\"95.33333\" y=\"145.82113\" font-size=\"13\" font-family=\"Courier New, monospace\" font-weight=\"bold\">', currentDeed.district,'</text>',\r\n              '<text x=\"7\" y=\"166.33333\" font-size=\"13\" font-family=\"Courier New, monospace\" font-weight=\"bold\">Y\\xc3\\xbcz\\xc3\\xb6l\\xc3\\xa7\\xc3\\xbcm\\xc3\\xbc:</text>',\r\n              '<text x=\"95.33333\" y=\"166.33333\" font-size=\"13\" font-family=\"Courier New, monospace\" font-weight=\"bold\">', currentDeed.area,'p</text>',\r\n              '<text x=\"7\" y=\"186.33333\" font-size=\"13\" font-family=\"Courier New, monospace\" font-weight=\"bold\">Koordinat:</text>',\r\n              '<text x=\"95.33333\" y=\"186.33333\" font-size=\"13\" font-family=\"Courier New, monospace\" font-weight=\"bold\">', currentDeed.coordinates,'</text>',\r\n              '<rect fill=\"hsl(', randomNum(361, block.difficulty, totalSupply() + 1).toString() ,', 100%, 60%)\" y=\"220\" width=\"300\" height=\"80\"/>',\r\n              '<text x=\"7\" y=\"240.2439\" font-size=\"13\" font-family=\"Courier New, monospace\" font-weight=\"bold\">Sahibi:</text>',\r\n              '<text x=\"7\" y=\"260.4878\" font-size=\"13\" font-family=\"Courier New, monospace\" font-weight=\"bold\">0x0000000000000000000000000000</text>',\r\n              '<text x=\"7\" y=\"280.4878\" font-size=\"13\" font-family=\"Courier New, monospace\" font-weight=\"bold\">Fatih Baykal</text>',\r\n              '</svg>'\r\n          )\r\n      ));\r\n  }\r\n  \r\n  function buildMetadata(uint256 _tokenId) public view returns(string memory) {\r\n      NFTInfo memory currentDeed = nftInfo[_tokenId];\r\n      return string(abi.encodePacked(\r\n              'data:application/json;base64,', Base64.encode(bytes(abi.encodePacked(\r\n                          '{\"name\":\"', \r\n                          currentDeed.name,\r\n                          '\", \"image\": \"', \r\n                          'data:image/svg+xml;base64,', \r\n                          buildImage(_tokenId),\r\n                          '\"}')))));\r\n  }\r\n\r\n  function tokenURI(uint256 _tokenId) public view virtual override returns (string memory) {\r\n      require(_exists(_tokenId),\"ERC721Metadata: URI query for nonexistent token\");\r\n      return buildMetadata(_tokenId);\r\n  }\r\n\r\n  function withdraw() public payable onlyOwner {\r\n    (bool os, ) = payable(owner()).call{value: address(this).balance}(\"\");\r\n    require(os);\r\n  }\r\n}",
  "sourcePath": "C:/Users/User/Desktop/Solidity Projects/DeedNFTApp/truffle/contracts/DeedNFT.sol",
  "compiler": {
    "name": "solc",
    "version": "0.8.1+commit.df193b15.Emscripten.clang"
  },
  "schemaVersion": "3.4.1",
  "updatedAt": "2022-03-02T10:35:18.519Z",
  "networkType": "ethereum",
  "devdoc": {
    "kind": "dev",
    "methods": {
      "approve(address,uint256)": {
        "details": "See {IERC721-approve}."
      },
      "balanceOf(address)": {
        "details": "See {IERC721-balanceOf}."
      },
      "getApproved(uint256)": {
        "details": "See {IERC721-getApproved}."
      },
      "isApprovedForAll(address,address)": {
        "details": "See {IERC721-isApprovedForAll}."
      },
      "name()": {
        "details": "See {IERC721Metadata-name}."
      },
      "owner()": {
        "details": "Returns the address of the current owner."
      },
      "ownerOf(uint256)": {
        "details": "See {IERC721-ownerOf}."
      },
      "renounceOwnership()": {
        "details": "Leaves the contract without owner. It will not be possible to call `onlyOwner` functions anymore. Can only be called by the current owner. NOTE: Renouncing ownership will leave the contract without an owner, thereby removing any functionality that is only available to the owner."
      },
      "safeTransferFrom(address,address,uint256)": {
        "details": "See {IERC721-safeTransferFrom}."
      },
      "safeTransferFrom(address,address,uint256,bytes)": {
        "details": "See {IERC721-safeTransferFrom}."
      },
      "setApprovalForAll(address,bool)": {
        "details": "See {IERC721-setApprovalForAll}."
      },
      "supportsInterface(bytes4)": {
        "details": "See {IERC165-supportsInterface}."
      },
      "symbol()": {
        "details": "See {IERC721Metadata-symbol}."
      },
      "tokenByIndex(uint256)": {
        "details": "See {IERC721Enumerable-tokenByIndex}."
      },
      "tokenOfOwnerByIndex(address,uint256)": {
        "details": "See {IERC721Enumerable-tokenOfOwnerByIndex}."
      },
      "totalSupply()": {
        "details": "See {IERC721Enumerable-totalSupply}."
      },
      "transferFrom(address,address,uint256)": {
        "details": "See {IERC721-transferFrom}."
      },
      "transferOwnership(address)": {
        "details": "Transfers ownership of the contract to a new account (`newOwner`). Can only be called by the current owner."
      }
    },
    "version": 1
  },
  "userdoc": {
    "kind": "user",
    "methods": {},
    "version": 1
  }
}