{
  "contractName": "DeedNFT",
  "abi": [
    {
      "inputs": [],
      "stateMutability": "nonpayable",
      "type": "constructor"
    },
    {
      "anonymous": false,
      "inputs": [
        {
          "indexed": true,
          "internalType": "address",
          "name": "owner",
          "type": "address"
        },
        {
          "indexed": true,
          "internalType": "address",
          "name": "approved",
          "type": "address"
        },
        {
          "indexed": true,
          "internalType": "uint256",
          "name": "tokenId",
          "type": "uint256"
        }
      ],
      "name": "Approval",
      "type": "event"
    },
    {
      "anonymous": false,
      "inputs": [
        {
          "indexed": true,
          "internalType": "address",
          "name": "owner",
          "type": "address"
        },
        {
          "indexed": true,
          "internalType": "address",
          "name": "operator",
          "type": "address"
        },
        {
          "indexed": false,
          "internalType": "bool",
          "name": "approved",
          "type": "bool"
        }
      ],
      "name": "ApprovalForAll",
      "type": "event"
    },
    {
      "anonymous": false,
      "inputs": [
        {
          "indexed": true,
          "internalType": "address",
          "name": "from",
          "type": "address"
        },
        {
          "indexed": true,
          "internalType": "address",
          "name": "to",
          "type": "address"
        },
        {
          "indexed": true,
          "internalType": "uint256",
          "name": "tokenId",
          "type": "uint256"
        }
      ],
      "name": "Transfer",
      "type": "event"
    },
    {
      "inputs": [
        {
          "internalType": "uint256",
          "name": "",
          "type": "uint256"
        }
      ],
      "name": "allTitleDeeds",
      "outputs": [
        {
          "internalType": "uint256",
          "name": "ID",
          "type": "uint256"
        },
        {
          "internalType": "uint256",
          "name": "price",
          "type": "uint256"
        },
        {
          "internalType": "address",
          "name": "owner",
          "type": "address"
        },
        {
          "internalType": "string",
          "name": "province",
          "type": "string"
        },
        {
          "internalType": "string",
          "name": "area",
          "type": "string"
        },
        {
          "internalType": "string",
          "name": "county",
          "type": "string"
        },
        {
          "internalType": "string",
          "name": "district",
          "type": "string"
        },
        {
          "internalType": "string",
          "name": "coordinates",
          "type": "string"
        },
        {
          "internalType": "bool",
          "name": "forSale",
          "type": "bool"
        }
      ],
      "stateMutability": "view",
      "type": "function",
      "constant": true
    },
    {
      "inputs": [
        {
          "internalType": "address",
          "name": "to",
          "type": "address"
        },
        {
          "internalType": "uint256",
          "name": "tokenId",
          "type": "uint256"
        }
      ],
      "name": "approve",
      "outputs": [],
      "stateMutability": "nonpayable",
      "type": "function"
    },
    {
      "inputs": [
        {
          "internalType": "address",
          "name": "owner",
          "type": "address"
        }
      ],
      "name": "balanceOf",
      "outputs": [
        {
          "internalType": "uint256",
          "name": "",
          "type": "uint256"
        }
      ],
      "stateMutability": "view",
      "type": "function",
      "constant": true
    },
    {
      "inputs": [
        {
          "internalType": "uint256",
          "name": "tokenId",
          "type": "uint256"
        }
      ],
      "name": "getApproved",
      "outputs": [
        {
          "internalType": "address",
          "name": "",
          "type": "address"
        }
      ],
      "stateMutability": "view",
      "type": "function",
      "constant": true
    },
    {
      "inputs": [
        {
          "internalType": "address",
          "name": "owner",
          "type": "address"
        },
        {
          "internalType": "address",
          "name": "operator",
          "type": "address"
        }
      ],
      "name": "isApprovedForAll",
      "outputs": [
        {
          "internalType": "bool",
          "name": "",
          "type": "bool"
        }
      ],
      "stateMutability": "view",
      "type": "function",
      "constant": true
    },
    {
      "inputs": [],
      "name": "name",
      "outputs": [
        {
          "internalType": "string",
          "name": "",
          "type": "string"
        }
      ],
      "stateMutability": "view",
      "type": "function",
      "constant": true
    },
    {
      "inputs": [
        {
          "internalType": "uint256",
          "name": "tokenId",
          "type": "uint256"
        }
      ],
      "name": "ownerOf",
      "outputs": [
        {
          "internalType": "address",
          "name": "",
          "type": "address"
        }
      ],
      "stateMutability": "view",
      "type": "function",
      "constant": true
    },
    {
      "inputs": [
        {
          "internalType": "address",
          "name": "from",
          "type": "address"
        },
        {
          "internalType": "address",
          "name": "to",
          "type": "address"
        },
        {
          "internalType": "uint256",
          "name": "tokenId",
          "type": "uint256"
        }
      ],
      "name": "safeTransferFrom",
      "outputs": [],
      "stateMutability": "nonpayable",
      "type": "function"
    },
    {
      "inputs": [
        {
          "internalType": "address",
          "name": "from",
          "type": "address"
        },
        {
          "internalType": "address",
          "name": "to",
          "type": "address"
        },
        {
          "internalType": "uint256",
          "name": "tokenId",
          "type": "uint256"
        },
        {
          "internalType": "bytes",
          "name": "_data",
          "type": "bytes"
        }
      ],
      "name": "safeTransferFrom",
      "outputs": [],
      "stateMutability": "nonpayable",
      "type": "function"
    },
    {
      "inputs": [
        {
          "internalType": "address",
          "name": "operator",
          "type": "address"
        },
        {
          "internalType": "bool",
          "name": "approved",
          "type": "bool"
        }
      ],
      "name": "setApprovalForAll",
      "outputs": [],
      "stateMutability": "nonpayable",
      "type": "function"
    },
    {
      "inputs": [
        {
          "internalType": "bytes4",
          "name": "interfaceId",
          "type": "bytes4"
        }
      ],
      "name": "supportsInterface",
      "outputs": [
        {
          "internalType": "bool",
          "name": "",
          "type": "bool"
        }
      ],
      "stateMutability": "view",
      "type": "function",
      "constant": true
    },
    {
      "inputs": [],
      "name": "symbol",
      "outputs": [
        {
          "internalType": "string",
          "name": "",
          "type": "string"
        }
      ],
      "stateMutability": "view",
      "type": "function",
      "constant": true
    },
    {
      "inputs": [
        {
          "internalType": "uint256",
          "name": "index",
          "type": "uint256"
        }
      ],
      "name": "tokenByIndex",
      "outputs": [
        {
          "internalType": "uint256",
          "name": "",
          "type": "uint256"
        }
      ],
      "stateMutability": "view",
      "type": "function",
      "constant": true
    },
    {
      "inputs": [
        {
          "internalType": "address",
          "name": "owner",
          "type": "address"
        },
        {
          "internalType": "uint256",
          "name": "index",
          "type": "uint256"
        }
      ],
      "name": "tokenOfOwnerByIndex",
      "outputs": [
        {
          "internalType": "uint256",
          "name": "",
          "type": "uint256"
        }
      ],
      "stateMutability": "view",
      "type": "function",
      "constant": true
    },
    {
      "inputs": [
        {
          "internalType": "uint256",
          "name": "tokenId",
          "type": "uint256"
        }
      ],
      "name": "tokenURI",
      "outputs": [
        {
          "internalType": "string",
          "name": "",
          "type": "string"
        }
      ],
      "stateMutability": "view",
      "type": "function",
      "constant": true
    },
    {
      "inputs": [],
      "name": "totalSupply",
      "outputs": [
        {
          "internalType": "uint256",
          "name": "",
          "type": "uint256"
        }
      ],
      "stateMutability": "view",
      "type": "function",
      "constant": true
    },
    {
      "inputs": [
        {
          "internalType": "address",
          "name": "from",
          "type": "address"
        },
        {
          "internalType": "address",
          "name": "to",
          "type": "address"
        },
        {
          "internalType": "uint256",
          "name": "tokenId",
          "type": "uint256"
        }
      ],
      "name": "transferFrom",
      "outputs": [],
      "stateMutability": "nonpayable",
      "type": "function"
    },
    {
      "inputs": [
        {
          "internalType": "address",
          "name": "_address",
          "type": "address"
        }
      ],
      "name": "setMarketContract",
      "outputs": [],
      "stateMutability": "nonpayable",
      "type": "function"
    },
    {
      "inputs": [
        {
          "internalType": "string",
          "name": "_province",
          "type": "string"
        },
        {
          "internalType": "string",
          "name": "_area",
          "type": "string"
        },
        {
          "internalType": "string",
          "name": "_county",
          "type": "string"
        },
        {
          "internalType": "string",
          "name": "_district",
          "type": "string"
        },
        {
          "internalType": "string",
          "name": "_coordinates",
          "type": "string"
        }
      ],
      "name": "mint",
      "outputs": [],
      "stateMutability": "nonpayable",
      "type": "function"
    },
    {
      "inputs": [
        {
          "internalType": "uint256",
          "name": "_tokenId",
          "type": "uint256"
        },
        {
          "internalType": "uint256",
          "name": "_price",
          "type": "uint256"
        },
        {
          "internalType": "bool",
          "name": "_forSale",
          "type": "bool"
        },
        {
          "internalType": "address",
          "name": "_sender",
          "type": "address"
        }
      ],
      "name": "updateDeedForSale",
      "outputs": [],
      "stateMutability": "nonpayable",
      "type": "function"
    },
    {
      "inputs": [
        {
          "internalType": "address",
          "name": "_address",
          "type": "address"
        }
      ],
      "name": "balanceOfAdress",
      "outputs": [
        {
          "internalType": "uint256",
          "name": "",
          "type": "uint256"
        }
      ],
      "stateMutability": "view",
      "type": "function",
      "constant": true
    },
    {
      "inputs": [
        {
          "internalType": "address",
          "name": "_address",
          "type": "address"
        },
        {
          "internalType": "uint256",
          "name": "_index",
          "type": "uint256"
        }
      ],
      "name": "tokenOfOwner",
      "outputs": [
        {
          "internalType": "uint256",
          "name": "",
          "type": "uint256"
        }
      ],
      "stateMutability": "view",
      "type": "function",
      "constant": true
    },
    {
      "inputs": [
        {
          "internalType": "address",
          "name": "_to",
          "type": "address"
        },
        {
          "internalType": "uint256",
          "name": "_tokenId",
          "type": "uint256"
        }
      ],
      "name": "approveToken",
      "outputs": [],
      "stateMutability": "nonpayable",
      "type": "function"
    },
    {
      "inputs": [
        {
          "internalType": "uint256",
          "name": "_tokenId",
          "type": "uint256"
        },
        {
          "internalType": "address",
          "name": "_sender",
          "type": "address"
        },
        {
          "internalType": "uint256",
          "name": "_value",
          "type": "uint256"
        }
      ],
      "name": "buyTitleDeed",
      "outputs": [
        {
          "internalType": "address",
          "name": "",
          "type": "address"
        }
      ],
      "stateMutability": "nonpayable",
      "type": "function"
    },
    {
      "inputs": [
        {
          "internalType": "uint256",
          "name": "_tokenId",
          "type": "uint256"
        }
      ],
      "name": "getDeed",
      "outputs": [
        {
          "internalType": "uint256",
          "name": "",
          "type": "uint256"
        },
        {
          "internalType": "address",
          "name": "",
          "type": "address"
        },
        {
          "internalType": "bool",
          "name": "",
          "type": "bool"
        }
      ],
      "stateMutability": "view",
      "type": "function",
      "constant": true
    },
    {
      "inputs": [
        {
          "internalType": "uint256",
          "name": "_tokenId",
          "type": "uint256"
        }
      ],
      "name": "buildImage",
      "outputs": [
        {
          "internalType": "string",
          "name": "",
          "type": "string"
        }
      ],
      "stateMutability": "view",
      "type": "function",
      "constant": true
    },
    {
      "inputs": [
        {
          "internalType": "address",
          "name": "to",
          "type": "address"
        }
      ],
      "name": "withdraw",
      "outputs": [],
      "stateMutability": "payable",
      "type": "function",
      "payable": true
    }
  ],
  "bytecode": "0x60806040523480156200001157600080fd5b506040518060400160405280600e81526020017f5469746c652044656564204e46540000000000000000000000000000000000008152506040518060400160405280600481526020017f444e465400000000000000000000000000000000000000000000000000000000815250816000908051906020019062000096929190620000f9565b508060019080519060200190620000af929190620000f9565b50505033600a60006101000a81548173ffffffffffffffffffffffffffffffffffffffff021916908373ffffffffffffffffffffffffffffffffffffffff1602179055506200020e565b8280546200010790620001a9565b90600052602060002090601f0160209004810192826200012b576000855562000177565b82601f106200014657805160ff191683800117855562000177565b8280016001018555821562000177579182015b828111156200017657825182559160200191906001019062000159565b5b5090506200018691906200018a565b5090565b5b80821115620001a55760008160009055506001016200018b565b5090565b60006002820490506001821680620001c257607f821691505b60208210811415620001d957620001d8620001df565b5b50919050565b7f4e487b7100000000000000000000000000000000000000000000000000000000600052602260045260246000fd5b615b46806200021e6000396000f3fe60806040526004361061019c5760003560e01c80636352211e116100ec5780639a0048361161008a578063c87b56dd11610064578063c87b56dd14610627578063e728fae914610664578063e985e9c5146106a9578063f85ea2ab146106e65761019c565b80639a00483614610598578063a22cb465146105d5578063b88d4fde146105fe5761019c565b806386833e91116100c657806386833e91146104de5780638804c1e1146105075780638f2b52891461053057806395d89b411461056d5761019c565b80636352211e14610425578063683ad7271461046257806370a08231146104a15761019c565b806323b872dd1161015957806336f699a91161013357806336f699a91461036657806342842e0e146103a35780634f6ccce7146103cc57806351cff8d9146104095761019c565b806323b872dd146102c35780632ba80eba146102ec5780632f745c59146103295761019c565b806301ffc9a7146101a1578063022fc88b146101de57806306fdde0314610207578063081812fc14610232578063095ea7b31461026f57806318160ddd14610298575b600080fd5b3480156101ad57600080fd5b506101c860048036038101906101c391906138c2565b61070f565b6040516101d5919061434d565b60405180910390f35b3480156101ea57600080fd5b5061020560048036038101906102009190613886565b610789565b005b34801561021357600080fd5b5061021c610797565b6040516102299190614368565b60405180910390f35b34801561023e57600080fd5b5061025960048036038101906102549190613a03565b610829565b60405161026691906142e6565b60405180910390f35b34801561027b57600080fd5b5061029660048036038101906102919190613886565b6108ae565b005b3480156102a457600080fd5b506102ad6109c6565b6040516102ba919061468a565b60405180910390f35b3480156102cf57600080fd5b506102ea60048036038101906102e59190613780565b6109d3565b005b3480156102f857600080fd5b50610313600480360381019061030e9190613a03565b610a33565b6040516103209190614368565b60405180910390f35b34801561033557600080fd5b50610350600480360381019061034b9190613886565b610e11565b60405161035d919061468a565b60405180910390f35b34801561037257600080fd5b5061038d60048036038101906103889190613a2c565b610eb6565b60405161039a91906142e6565b60405180910390f35b3480156103af57600080fd5b506103ca60048036038101906103c59190613780565b611181565b005b3480156103d857600080fd5b506103f360048036038101906103ee9190613a03565b6111a1565b604051610400919061468a565b60405180910390f35b610423600480360381019061041e919061371b565b611238565b005b34801561043157600080fd5b5061044c60048036038101906104479190613a03565b611342565b60405161045991906142e6565b60405180910390f35b34801561046e57600080fd5b5061048960048036038101906104849190613a03565b6113f4565b604051610498939291906146a5565b60405180910390f35b3480156104ad57600080fd5b506104c860048036038101906104c3919061371b565b611798565b6040516104d5919061468a565b60405180910390f35b3480156104ea57600080fd5b5061050560048036038101906105009190613914565b611850565b005b34801561051357600080fd5b5061052e60048036038101906105299190613a7b565b611a42565b005b34801561053c57600080fd5b506105576004803603810190610552919061371b565b611b43565b604051610564919061468a565b60405180910390f35b34801561057957600080fd5b50610582611b55565b60405161058f9190614368565b60405180910390f35b3480156105a457600080fd5b506105bf60048036038101906105ba9190613886565b611be7565b6040516105cc919061468a565b60405180910390f35b3480156105e157600080fd5b506105fc60048036038101906105f7919061384a565b611bfb565b005b34801561060a57600080fd5b50610625600480360381019061062091906137cf565b611c11565b005b34801561063357600080fd5b5061064e60048036038101906106499190613a03565b611c73565b60405161065b9190614368565b60405180910390f35b34801561067057600080fd5b5061068b60048036038101906106869190613a03565b611d1a565b6040516106a0999897969594939291906146dc565b60405180910390f35b3480156106b557600080fd5b506106d060048036038101906106cb9190613744565b61203d565b6040516106dd919061434d565b60405180910390f35b3480156106f257600080fd5b5061070d6004803603810190610708919061371b565b6120d1565b005b60007f780e9d63000000000000000000000000000000000000000000000000000000007bffffffffffffffffffffffffffffffffffffffffffffffffffffffff1916827bffffffffffffffffffffffffffffffffffffffffffffffffffffffff191614806107825750610781826121a6565b5b9050919050565b61079382826108ae565b5050565b6060600080546107a690614a2c565b80601f01602080910402602001604051908101604052809291908181526020018280546107d290614a2c565b801561081f5780601f106107f45761010080835404028352916020019161081f565b820191906000526020600020905b81548152906001019060200180831161080257829003601f168201915b5050505050905090565b600061083482612288565b610873576040517f08c379a000000000000000000000000000000000000000000000000000000000815260040161086a9061458a565b60405180910390fd5b6004600083815260200190815260200160002060009054906101000a900473ffffffffffffffffffffffffffffffffffffffff169050919050565b60006108b982611342565b90508073ffffffffffffffffffffffffffffffffffffffff168373ffffffffffffffffffffffffffffffffffffffff16141561092a576040517f08c379a0000000000000000000000000000000000000000000000000000000008152600401610921906145ea565b60405180910390fd5b8073ffffffffffffffffffffffffffffffffffffffff166109496122f4565b73ffffffffffffffffffffffffffffffffffffffff1614806109785750610977816109726122f4565b61203d565b5b6109b7576040517f08c379a00000000000000000000000000000000000000000000000000000000081526004016109ae906144ea565b60405180910390fd5b6109c183836122fc565b505050565b6000600880549050905090565b6109e46109de6122f4565b826123b5565b610a23576040517f08c379a0000000000000000000000000000000000000000000000000000000008152600401610a1a9061460a565b60405180910390fd5b610a2e838383612493565b505050565b60606000600c60008481526020019081526020016000206040518061012001604052908160008201548152602001600182015481526020016002820160009054906101000a900473ffffffffffffffffffffffffffffffffffffffff1673ffffffffffffffffffffffffffffffffffffffff1673ffffffffffffffffffffffffffffffffffffffff168152602001600382018054610ad090614a2c565b80601f0160208091040260200160405190810160405280929190818152602001828054610afc90614a2c565b8015610b495780601f10610b1e57610100808354040283529160200191610b49565b820191906000526020600020905b815481529060010190602001808311610b2c57829003601f168201915b50505050508152602001600482018054610b6290614a2c565b80601f0160208091040260200160405190810160405280929190818152602001828054610b8e90614a2c565b8015610bdb5780601f10610bb057610100808354040283529160200191610bdb565b820191906000526020600020905b815481529060010190602001808311610bbe57829003601f168201915b50505050508152602001600582018054610bf490614a2c565b80601f0160208091040260200160405190810160405280929190818152602001828054610c2090614a2c565b8015610c6d5780601f10610c4257610100808354040283529160200191610c6d565b820191906000526020600020905b815481529060010190602001808311610c5057829003601f168201915b50505050508152602001600682018054610c8690614a2c565b80601f0160208091040260200160405190810160405280929190818152602001828054610cb290614a2c565b8015610cff5780601f10610cd457610100808354040283529160200191610cff565b820191906000526020600020905b815481529060010190602001808311610ce257829003601f168201915b50505050508152602001600782018054610d1890614a2c565b80601f0160208091040260200160405190810160405280929190818152602001828054610d4490614a2c565b8015610d915780601f10610d6657610100808354040283529160200191610d91565b820191906000526020600020905b815481529060010190602001808311610d7457829003601f168201915b505050505081526020016008820160009054906101000a900460ff1615151515815250509050610e0981606001518260a001518360c0015184608001518560e00151610de087600001516126fa565b604051602001610df5969594939291906141a7565b6040516020818303038152906040526128a7565b915050919050565b6000610e1c83611798565b8210610e5d576040517f08c379a0000000000000000000000000000000000000000000000000000000008152600401610e54906143ca565b60405180910390fd5b600660008473ffffffffffffffffffffffffffffffffffffffff1673ffffffffffffffffffffffffffffffffffffffff168152602001908152602001600020600083815260200190815260200160002054905092915050565b60008073ffffffffffffffffffffffffffffffffffffffff168373ffffffffffffffffffffffffffffffffffffffff161415610f27576040517f08c379a0000000000000000000000000000000000000000000000000000000008152600401610f1e9061466a565b60405180910390fd5b610f3084612288565b610f6f576040517f08c379a0000000000000000000000000000000000000000000000000000000008152600401610f669061464a565b60405180910390fd5b6000610f7a85611342565b9050600073ffffffffffffffffffffffffffffffffffffffff168173ffffffffffffffffffffffffffffffffffffffff161415610fec576040517f08c379a0000000000000000000000000000000000000000000000000000000008152600401610fe39061466a565b60405180910390fd5b8373ffffffffffffffffffffffffffffffffffffffff168173ffffffffffffffffffffffffffffffffffffffff16141561105b576040517f08c379a00000000000000000000000000000000000000000000000000000000081526004016110529061456a565b60405180910390fd5b6000600c6000878152602001908152602001600020905080600101548410156110b9576040517f08c379a00000000000000000000000000000000000000000000000000000000081526004016110b0906143aa565b60405180910390fd5b8060080160009054906101000a900460ff1661110a576040517f08c379a0000000000000000000000000000000000000000000000000000000008152600401611101906144ca565b60405180910390fd5b6111158286886109d3565b848160020160006101000a81548173ffffffffffffffffffffffffffffffffffffffff021916908373ffffffffffffffffffffffffffffffffffffffff16021790555060008160080160006101000a81548160ff02191690831515021790555081925050509392505050565b61119c83838360405180602001604052806000815250611c11565b505050565b60006111ab6109c6565b82106111ec576040517f08c379a00000000000000000000000000000000000000000000000000000000081526004016111e39061462a565b60405180910390fd5b60088281548110611226577f4e487b7100000000000000000000000000000000000000000000000000000000600052603260045260246000fd5b90600052602060002001549050919050565b600a60009054906101000a900473ffffffffffffffffffffffffffffffffffffffff1673ffffffffffffffffffffffffffffffffffffffff163373ffffffffffffffffffffffffffffffffffffffff16146112c8576040517f08c379a00000000000000000000000000000000000000000000000000000000081526004016112bf906145aa565b60405180910390fd5b60008173ffffffffffffffffffffffffffffffffffffffff16476040516112ee90614192565b60006040518083038185875af1925050503d806000811461132b576040519150601f19603f3d011682016040523d82523d6000602084013e611330565b606091505b505090508061133e57600080fd5b5050565b6000806002600084815260200190815260200160002060009054906101000a900473ffffffffffffffffffffffffffffffffffffffff169050600073ffffffffffffffffffffffffffffffffffffffff168173ffffffffffffffffffffffffffffffffffffffff1614156113eb576040517f08c379a00000000000000000000000000000000000000000000000000000000081526004016113e29061452a565b60405180910390fd5b80915050919050565b600080600080600c60008681526020019081526020016000206040518061012001604052908160008201548152602001600182015481526020016002820160009054906101000a900473ffffffffffffffffffffffffffffffffffffffff1673ffffffffffffffffffffffffffffffffffffffff1673ffffffffffffffffffffffffffffffffffffffff16815260200160038201805461149390614a2c565b80601f01602080910402602001604051908101604052809291908181526020018280546114bf90614a2c565b801561150c5780601f106114e15761010080835404028352916020019161150c565b820191906000526020600020905b8154815290600101906020018083116114ef57829003601f168201915b5050505050815260200160048201805461152590614a2c565b80601f016020809104026020016040519081016040528092919081815260200182805461155190614a2c565b801561159e5780601f106115735761010080835404028352916020019161159e565b820191906000526020600020905b81548152906001019060200180831161158157829003601f168201915b505050505081526020016005820180546115b790614a2c565b80601f01602080910402602001604051908101604052809291908181526020018280546115e390614a2c565b80156116305780601f1061160557610100808354040283529160200191611630565b820191906000526020600020905b81548152906001019060200180831161161357829003601f168201915b5050505050815260200160068201805461164990614a2c565b80601f016020809104026020016040519081016040528092919081815260200182805461167590614a2c565b80156116c25780601f10611697576101008083540402835291602001916116c2565b820191906000526020600020905b8154815290600101906020018083116116a557829003601f168201915b505050505081526020016007820180546116db90614a2c565b80601f016020809104026020016040519081016040528092919081815260200182805461170790614a2c565b80156117545780601f1061172957610100808354040283529160200191611754565b820191906000526020600020905b81548152906001019060200180831161173757829003601f168201915b505050505081526020016008820160009054906101000a900460ff161515151581525050905080602001518160400151826101000151935093509350509193909250565b60008073ffffffffffffffffffffffffffffffffffffffff168273ffffffffffffffffffffffffffffffffffffffff161415611809576040517f08c379a00000000000000000000000000000000000000000000000000000000081526004016118009061450a565b60405180910390fd5b600360008373ffffffffffffffffffffffffffffffffffffffff1673ffffffffffffffffffffffffffffffffffffffff168152602001908152602001600020549050919050565b600061185a6109c6565b905060006040518061012001604052806001846118779190614861565b8152602001600081526020013373ffffffffffffffffffffffffffffffffffffffff16815260200188815260200187815260200186815260200185815260200184815260200160001515815250905080600c60006001856118d89190614861565b8152602001908152602001600020600082015181600001556020820151816001015560408201518160020160006101000a81548173ffffffffffffffffffffffffffffffffffffffff021916908373ffffffffffffffffffffffffffffffffffffffff160217905550606082015181600301908051906020019061195d92919061353f565b50608082015181600401908051906020019061197a92919061353f565b5060a082015181600501908051906020019061199792919061353f565b5060c08201518160060190805190602001906119b492919061353f565b5060e08201518160070190805190602001906119d192919061353f565b506101008201518160080160006101000a81548160ff021916908315150217905550905050611a0c33600184611a079190614861565b612a52565b611a39600b60009054906101000a900473ffffffffffffffffffffffffffffffffffffffff166001611bfb565b50505050505050565b611a4b84612288565b611a8a576040517f08c379a0000000000000000000000000000000000000000000000000000000008152600401611a819061464a565b60405180910390fd5b8073ffffffffffffffffffffffffffffffffffffffff16611aaa85611342565b73ffffffffffffffffffffffffffffffffffffffff1614611b00576040517f08c379a0000000000000000000000000000000000000000000000000000000008152600401611af79061448a565b60405180910390fd5b6000600c60008681526020019081526020016000209050838160010181905550828160080160006101000a81548160ff0219169083151502179055505050505050565b6000611b4e82611798565b9050919050565b606060018054611b6490614a2c565b80601f0160208091040260200160405190810160405280929190818152602001828054611b9090614a2c565b8015611bdd5780601f10611bb257610100808354040283529160200191611bdd565b820191906000526020600020905b815481529060010190602001808311611bc057829003601f168201915b5050505050905090565b6000611bf38383610e11565b905092915050565b611c0d611c066122f4565b8383612a70565b5050565b611c22611c1c6122f4565b836123b5565b611c61576040517f08c379a0000000000000000000000000000000000000000000000000000000008152600401611c589061460a565b60405180910390fd5b611c6d84848484612bdd565b50505050565b6060611c7e82612288565b611cbd576040517f08c379a0000000000000000000000000000000000000000000000000000000008152600401611cb4906145ca565b60405180910390fd5b6000611cc7612c39565b90506000815111611ce75760405180602001604052806000815250611d12565b80611cf1846126fa565b604051602001611d0292919061416e565b6040516020818303038152906040525b915050919050565b600c6020528060005260406000206000915090508060000154908060010154908060020160009054906101000a900473ffffffffffffffffffffffffffffffffffffffff1690806003018054611d6f90614a2c565b80601f0160208091040260200160405190810160405280929190818152602001828054611d9b90614a2c565b8015611de85780601f10611dbd57610100808354040283529160200191611de8565b820191906000526020600020905b815481529060010190602001808311611dcb57829003601f168201915b505050505090806004018054611dfd90614a2c565b80601f0160208091040260200160405190810160405280929190818152602001828054611e2990614a2c565b8015611e765780601f10611e4b57610100808354040283529160200191611e76565b820191906000526020600020905b815481529060010190602001808311611e5957829003601f168201915b505050505090806005018054611e8b90614a2c565b80601f0160208091040260200160405190810160405280929190818152602001828054611eb790614a2c565b8015611f045780601f10611ed957610100808354040283529160200191611f04565b820191906000526020600020905b815481529060010190602001808311611ee757829003601f168201915b505050505090806006018054611f1990614a2c565b80601f0160208091040260200160405190810160405280929190818152602001828054611f4590614a2c565b8015611f925780601f10611f6757610100808354040283529160200191611f92565b820191906000526020600020905b815481529060010190602001808311611f7557829003601f168201915b505050505090806007018054611fa790614a2c565b80601f0160208091040260200160405190810160405280929190818152602001828054611fd390614a2c565b80156120205780601f10611ff557610100808354040283529160200191612020565b820191906000526020600020905b81548152906001019060200180831161200357829003601f168201915b5050505050908060080160009054906101000a900460ff16905089565b6000600560008473ffffffffffffffffffffffffffffffffffffffff1673ffffffffffffffffffffffffffffffffffffffff16815260200190815260200160002060008373ffffffffffffffffffffffffffffffffffffffff1673ffffffffffffffffffffffffffffffffffffffff16815260200190815260200160002060009054906101000a900460ff16905092915050565b600073ffffffffffffffffffffffffffffffffffffffff16600b60009054906101000a900473ffffffffffffffffffffffffffffffffffffffff1673ffffffffffffffffffffffffffffffffffffffff1614612162576040517f08c379a00000000000000000000000000000000000000000000000000000000081526004016121599061438a565b60405180910390fd5b80600b60006101000a81548173ffffffffffffffffffffffffffffffffffffffff021916908373ffffffffffffffffffffffffffffffffffffffff16021790555050565b60007f80ac58cd000000000000000000000000000000000000000000000000000000007bffffffffffffffffffffffffffffffffffffffffffffffffffffffff1916827bffffffffffffffffffffffffffffffffffffffffffffffffffffffff1916148061227157507f5b5e139f000000000000000000000000000000000000000000000000000000007bffffffffffffffffffffffffffffffffffffffffffffffffffffffff1916827bffffffffffffffffffffffffffffffffffffffffffffffffffffffff1916145b80612281575061228082612c50565b5b9050919050565b60008073ffffffffffffffffffffffffffffffffffffffff166002600084815260200190815260200160002060009054906101000a900473ffffffffffffffffffffffffffffffffffffffff1673ffffffffffffffffffffffffffffffffffffffff1614159050919050565b600033905090565b816004600083815260200190815260200160002060006101000a81548173ffffffffffffffffffffffffffffffffffffffff021916908373ffffffffffffffffffffffffffffffffffffffff160217905550808273ffffffffffffffffffffffffffffffffffffffff1661236f83611342565b73ffffffffffffffffffffffffffffffffffffffff167f8c5be1e5ebec7d5bd14f71427d1e84f3dd0314c0f7b2291e5b200ac8c7c3b92560405160405180910390a45050565b60006123c082612288565b6123ff576040517f08c379a00000000000000000000000000000000000000000000000000000000081526004016123f6906144aa565b60405180910390fd5b600061240a83611342565b90508073ffffffffffffffffffffffffffffffffffffffff168473ffffffffffffffffffffffffffffffffffffffff16148061247957508373ffffffffffffffffffffffffffffffffffffffff1661246184610829565b73ffffffffffffffffffffffffffffffffffffffff16145b8061248a5750612489818561203d565b5b91505092915050565b8273ffffffffffffffffffffffffffffffffffffffff166124b382611342565b73ffffffffffffffffffffffffffffffffffffffff1614612509576040517f08c379a00000000000000000000000000000000000000000000000000000000081526004016125009061440a565b60405180910390fd5b600073ffffffffffffffffffffffffffffffffffffffff168273ffffffffffffffffffffffffffffffffffffffff161415612579576040517f08c379a00000000000000000000000000000000000000000000000000000000081526004016125709061444a565b60405180910390fd5b612584838383612cba565b61258f6000826122fc565b6001600360008573ffffffffffffffffffffffffffffffffffffffff1673ffffffffffffffffffffffffffffffffffffffff16815260200190815260200160002060008282546125df9190614942565b925050819055506001600360008473ffffffffffffffffffffffffffffffffffffffff1673ffffffffffffffffffffffffffffffffffffffff16815260200190815260200160002060008282546126369190614861565b92505081905550816002600083815260200190815260200160002060006101000a81548173ffffffffffffffffffffffffffffffffffffffff021916908373ffffffffffffffffffffffffffffffffffffffff160217905550808273ffffffffffffffffffffffffffffffffffffffff168473ffffffffffffffffffffffffffffffffffffffff167fddf252ad1be2c89b69c2b068fc378daa952ba7f163c4a11628f55a4df523b3ef60405160405180910390a46126f5838383612dce565b505050565b60606000821415612742576040518060400160405280600181526020017f300000000000000000000000000000000000000000000000000000000000000081525090506128a2565b600082905060005b6000821461277457808061275d90614a8f565b915050600a8261276d91906148b7565b915061274a565b60008167ffffffffffffffff8111156127b6577f4e487b7100000000000000000000000000000000000000000000000000000000600052604160045260246000fd5b6040519080825280601f01601f1916602001820160405280156127e85781602001600182028036833780820191505090505b5090505b6000851461289b576001826128019190614942565b9150600a856128109190614ad8565b603061281c9190614861565b60f81b818381518110612858577f4e487b7100000000000000000000000000000000000000000000000000000000600052603260045260246000fd5b60200101907effffffffffffffffffffffffffffffffffffffffffffffffffffffffffffff1916908160001a905350600a8561289491906148b7565b94506127ec565b8093505050505b919050565b60606000825114156128ca57604051806020016040528060008152509050612a4d565b6000604051806060016040528060408152602001615ad160409139905060006003600285516128f99190614861565b61290391906148b7565b600461290f91906148e8565b905060006020826129209190614861565b67ffffffffffffffff81111561295f577f4e487b7100000000000000000000000000000000000000000000000000000000600052604160045260246000fd5b6040519080825280601f01601f1916602001820160405280156129915781602001600182028036833780820191505090505b509050818152600183018586518101602084015b81831015612a0c576003830192508251603f8160121c1685015160f81b8252600182019150603f81600c1c1685015160f81b8252600182019150603f8160061c1685015160f81b8252600182019150603f811685015160f81b8252600182019150506129a5565b600389510660018114612a265760028114612a3657612a41565b613d3d60f01b6002830352612a41565b603d60f81b60018303525b50505050508093505050505b919050565b612a6c828260405180602001604052806000815250612dd3565b5050565b8173ffffffffffffffffffffffffffffffffffffffff168373ffffffffffffffffffffffffffffffffffffffff161415612adf576040517f08c379a0000000000000000000000000000000000000000000000000000000008152600401612ad69061446a565b60405180910390fd5b80600560008573ffffffffffffffffffffffffffffffffffffffff1673ffffffffffffffffffffffffffffffffffffffff16815260200190815260200160002060008473ffffffffffffffffffffffffffffffffffffffff1673ffffffffffffffffffffffffffffffffffffffff16815260200190815260200160002060006101000a81548160ff0219169083151502179055508173ffffffffffffffffffffffffffffffffffffffff168373ffffffffffffffffffffffffffffffffffffffff167f17307eab39ab6107e8899845ad3d59bd9653f200f220920489ca2b5937696c3183604051612bd0919061434d565b60405180910390a3505050565b612be8848484612493565b612bf484848484612e2e565b612c33576040517f08c379a0000000000000000000000000000000000000000000000000000000008152600401612c2a906143ea565b60405180910390fd5b50505050565b606060405180602001604052806000815250905090565b60007f01ffc9a7000000000000000000000000000000000000000000000000000000007bffffffffffffffffffffffffffffffffffffffffffffffffffffffff1916827bffffffffffffffffffffffffffffffffffffffffffffffffffffffff1916149050919050565b612cc5838383612fc5565b600073ffffffffffffffffffffffffffffffffffffffff168373ffffffffffffffffffffffffffffffffffffffff161415612d0857612d0381612fca565b612d47565b8173ffffffffffffffffffffffffffffffffffffffff168373ffffffffffffffffffffffffffffffffffffffff1614612d4657612d458382613013565b5b5b600073ffffffffffffffffffffffffffffffffffffffff168273ffffffffffffffffffffffffffffffffffffffff161415612d8a57612d8581613180565b612dc9565b8273ffffffffffffffffffffffffffffffffffffffff168273ffffffffffffffffffffffffffffffffffffffff1614612dc857612dc782826132c3565b5b5b505050565b505050565b612ddd8383613342565b612dea6000848484612e2e565b612e29576040517f08c379a0000000000000000000000000000000000000000000000000000000008152600401612e20906143ea565b60405180910390fd5b505050565b6000612e4f8473ffffffffffffffffffffffffffffffffffffffff1661351c565b15612fb8578373ffffffffffffffffffffffffffffffffffffffff1663150b7a02612e786122f4565b8786866040518563ffffffff1660e01b8152600401612e9a9493929190614301565b602060405180830381600087803b158015612eb457600080fd5b505af1925050508015612ee557506040513d601f19601f82011682018060405250810190612ee291906138eb565b60015b612f68573d8060008114612f15576040519150601f19603f3d011682016040523d82523d6000602084013e612f1a565b606091505b50600081511415612f60576040517f08c379a0000000000000000000000000000000000000000000000000000000008152600401612f57906143ea565b60405180910390fd5b805181602001fd5b63150b7a0260e01b7bffffffffffffffffffffffffffffffffffffffffffffffffffffffff1916817bffffffffffffffffffffffffffffffffffffffffffffffffffffffff191614915050612fbd565b600190505b949350505050565b505050565b6008805490506009600083815260200190815260200160002081905550600881908060018154018082558091505060019003906000526020600020016000909190919091505550565b6000600161302084611798565b61302a9190614942565b905060006007600084815260200190815260200160002054905081811461310f576000600660008673ffffffffffffffffffffffffffffffffffffffff1673ffffffffffffffffffffffffffffffffffffffff168152602001908152602001600020600084815260200190815260200160002054905080600660008773ffffffffffffffffffffffffffffffffffffffff1673ffffffffffffffffffffffffffffffffffffffff168152602001908152602001600020600084815260200190815260200160002081905550816007600083815260200190815260200160002081905550505b6007600084815260200190815260200160002060009055600660008573ffffffffffffffffffffffffffffffffffffffff1673ffffffffffffffffffffffffffffffffffffffff16815260200190815260200160002060008381526020019081526020016000206000905550505050565b600060016008805490506131949190614942565b90506000600960008481526020019081526020016000205490506000600883815481106131ea577f4e487b7100000000000000000000000000000000000000000000000000000000600052603260045260246000fd5b906000526020600020015490508060088381548110613232577f4e487b7100000000000000000000000000000000000000000000000000000000600052603260045260246000fd5b9060005260206000200181905550816009600083815260200190815260200160002081905550600960008581526020019081526020016000206000905560088054806132a7577f4e487b7100000000000000000000000000000000000000000000000000000000600052603160045260246000fd5b6001900381819060005260206000200160009055905550505050565b60006132ce83611798565b905081600660008573ffffffffffffffffffffffffffffffffffffffff1673ffffffffffffffffffffffffffffffffffffffff168152602001908152602001600020600083815260200190815260200160002081905550806007600084815260200190815260200160002081905550505050565b600073ffffffffffffffffffffffffffffffffffffffff168273ffffffffffffffffffffffffffffffffffffffff1614156133b2576040517f08c379a00000000000000000000000000000000000000000000000000000000081526004016133a99061454a565b60405180910390fd5b6133bb81612288565b156133fb576040517f08c379a00000000000000000000000000000000000000000000000000000000081526004016133f29061442a565b60405180910390fd5b61340760008383612cba565b6001600360008473ffffffffffffffffffffffffffffffffffffffff1673ffffffffffffffffffffffffffffffffffffffff16815260200190815260200160002060008282546134579190614861565b92505081905550816002600083815260200190815260200160002060006101000a81548173ffffffffffffffffffffffffffffffffffffffff021916908373ffffffffffffffffffffffffffffffffffffffff160217905550808273ffffffffffffffffffffffffffffffffffffffff16600073ffffffffffffffffffffffffffffffffffffffff167fddf252ad1be2c89b69c2b068fc378daa952ba7f163c4a11628f55a4df523b3ef60405160405180910390a461351860008383612dce565b5050565b6000808273ffffffffffffffffffffffffffffffffffffffff163b119050919050565b82805461354b90614a2c565b90600052602060002090601f01602090048101928261356d57600085556135b4565b82601f1061358657805160ff19168380011785556135b4565b828001600101855582156135b4579182015b828111156135b3578251825591602001919060010190613598565b5b5090506135c191906135c5565b5090565b5b808211156135de5760008160009055506001016135c6565b5090565b60006135f56135f0846147b1565b61478c565b90508281526020810184848401111561360d57600080fd5b6136188482856149ea565b509392505050565b600061363361362e846147e2565b61478c565b90508281526020810184848401111561364b57600080fd5b6136568482856149ea565b509392505050565b60008135905061366d81615a74565b92915050565b60008135905061368281615a8b565b92915050565b60008135905061369781615aa2565b92915050565b6000815190506136ac81615aa2565b92915050565b600082601f8301126136c357600080fd5b81356136d38482602086016135e2565b91505092915050565b600082601f8301126136ed57600080fd5b81356136fd848260208601613620565b91505092915050565b60008135905061371581615ab9565b92915050565b60006020828403121561372d57600080fd5b600061373b8482850161365e565b91505092915050565b6000806040838503121561375757600080fd5b60006137658582860161365e565b92505060206137768582860161365e565b9150509250929050565b60008060006060848603121561379557600080fd5b60006137a38682870161365e565b93505060206137b48682870161365e565b92505060406137c586828701613706565b9150509250925092565b600080600080608085870312156137e557600080fd5b60006137f38782880161365e565b94505060206138048782880161365e565b935050604061381587828801613706565b925050606085013567ffffffffffffffff81111561383257600080fd5b61383e878288016136b2565b91505092959194509250565b6000806040838503121561385d57600080fd5b600061386b8582860161365e565b925050602061387c85828601613673565b9150509250929050565b6000806040838503121561389957600080fd5b60006138a78582860161365e565b92505060206138b885828601613706565b9150509250929050565b6000602082840312156138d457600080fd5b60006138e284828501613688565b91505092915050565b6000602082840312156138fd57600080fd5b600061390b8482850161369d565b91505092915050565b600080600080600060a0868803121561392c57600080fd5b600086013567ffffffffffffffff81111561394657600080fd5b613952888289016136dc565b955050602086013567ffffffffffffffff81111561396f57600080fd5b61397b888289016136dc565b945050604086013567ffffffffffffffff81111561399857600080fd5b6139a4888289016136dc565b935050606086013567ffffffffffffffff8111156139c157600080fd5b6139cd888289016136dc565b925050608086013567ffffffffffffffff8111156139ea57600080fd5b6139f6888289016136dc565b9150509295509295909350565b600060208284031215613a1557600080fd5b6000613a2384828501613706565b91505092915050565b600080600060608486031215613a4157600080fd5b6000613a4f86828701613706565b9350506020613a608682870161365e565b9250506040613a7186828701613706565b9150509250925092565b60008060008060808587031215613a9157600080fd5b6000613a9f87828801613706565b9450506020613ab087828801613706565b9350506040613ac187828801613673565b9250506060613ad28782880161365e565b91505092959194509250565b613ae781614976565b82525050565b613af681614988565b82525050565b6000613b0782614813565b613b118185614829565b9350613b218185602086016149f9565b613b2a81614bc5565b840191505092915050565b6000613b408261481e565b613b4a8185614845565b9350613b5a8185602086016149f9565b613b6381614bc5565b840191505092915050565b6000613b798261481e565b613b838185614856565b9350613b938185602086016149f9565b80840191505092915050565b6000613bac604a83614856565b9150613bb782614bd6565b604a82019050919050565b6000613bcf600b83614856565b9150613bda82614c4b565b600b82019050919050565b6000613bf2602683614845565b9150613bfd82614c74565b604082019050919050565b6000613c15600f83614845565b9150613c2082614cc3565b602082019050919050565b6000613c38603c83614856565b9150613c4382614cec565b603c82019050919050565b6000613c5b603c83614856565b9150613c6682614d3b565b603c82019050919050565b6000613c7e602b83614845565b9150613c8982614d8a565b604082019050919050565b6000613ca1603283614845565b9150613cac82614dd9565b604082019050919050565b6000613cc4602583614845565b9150613ccf82614e28565b604082019050919050565b6000613ce7601c83614845565b9150613cf282614e77565b602082019050919050565b6000613d0a604883614856565b9150613d1582614ea0565b604882019050919050565b6000613d2d602483614845565b9150613d3882614f15565b604082019050919050565b6000613d50601983614845565b9150613d5b82614f64565b602082019050919050565b6000613d73601d83614845565b9150613d7e82614f8d565b602082019050919050565b6000613d96603c83614856565b9150613da182614fb6565b603c82019050919050565b6000613db9604e83614856565b9150613dc482615005565b604e82019050919050565b6000613ddc602c83614845565b9150613de78261507a565b604082019050919050565b6000613dff601783614845565b9150613e0a826150c9565b602082019050919050565b6000613e2260ed83614856565b9150613e2d826150f2565b60ed82019050919050565b6000613e45603883614845565b9150613e5082615225565b604082019050919050565b6000613e68602a83614845565b9150613e7382615274565b604082019050919050565b6000613e8b602983614845565b9150613e96826152c3565b604082019050919050565b6000613eae603c83614856565b9150613eb982615312565b603c82019050919050565b6000613ed1601983614856565b9150613edc82615361565b601982019050919050565b6000613ef4602083614845565b9150613eff8261538a565b602082019050919050565b6000613f17601c83614845565b9150613f22826153b3565b602082019050919050565b6000613f3a602c83614845565b9150613f45826153dc565b604082019050919050565b6000613f5d603c83614856565b9150613f688261542b565b603c82019050919050565b6000613f80604c83614856565b9150613f8b8261547a565b604c82019050919050565b6000613fa3601283614845565b9150613fae826154ef565b602082019050919050565b6000613fc6602f83614845565b9150613fd182615518565b604082019050919050565b6000613fe9603c83614856565b9150613ff482615567565b603c82019050919050565b600061400c602183614845565b9150614017826155b6565b604082019050919050565b600061402f60008361483a565b915061403a82615605565b600082019050919050565b6000614052603183614845565b915061405d82615608565b604082019050919050565b6000614075602c83614845565b915061408082615657565b604082019050919050565b6000614098604d83614856565b91506140a3826156a6565b604d82019050919050565b60006140bb601483614845565b91506140c68261571b565b602082019050919050565b60006140de604e83614856565b91506140e982615744565b604e82019050919050565b6000614101600e83614845565b915061410c826157b9565b602082019050919050565b6000614124605183614856565b915061412f826157e2565b605182019050919050565b60006141486101a983614856565b915061415382615857565b6101a982019050919050565b614168816149e0565b82525050565b600061417a8285613b6e565b91506141868284613b6e565b91508190509392505050565b600061419d82614022565b9150819050919050565b60006141b28261413a565b91506141bd82613e15565b91506141c882613cfd565b91506141d38261408b565b91506141de826140d1565b91506141e982613f73565b91506141f482613dac565b91506141ff82613b9f565b915061420a82614117565b915061421582613d89565b91506142218289613b6e565b915061422c82613bc2565b915061423782613c4e565b91506142438288613b6e565b915061424e82613bc2565b915061425982613fdc565b91506142658287613b6e565b915061427082613bc2565b915061427b82613c2b565b91506142878286613b6e565b915061429282613bc2565b915061429d82613ea1565b91506142a98285613b6e565b91506142b482613bc2565b91506142bf82613f50565b91506142cb8284613b6e565b91506142d682613ec4565b9150819050979650505050505050565b60006020820190506142fb6000830184613ade565b92915050565b60006080820190506143166000830187613ade565b6143236020830186613ade565b614330604083018561415f565b81810360608301526143428184613afc565b905095945050505050565b60006020820190506143626000830184613aed565b92915050565b600060208201905081810360008301526143828184613b35565b905092915050565b600060208201905081810360008301526143a381613be5565b9050919050565b600060208201905081810360008301526143c381613c08565b9050919050565b600060208201905081810360008301526143e381613c71565b9050919050565b6000602082019050818103600083015261440381613c94565b9050919050565b6000602082019050818103600083015261442381613cb7565b9050919050565b6000602082019050818103600083015261444381613cda565b9050919050565b6000602082019050818103600083015261446381613d20565b9050919050565b6000602082019050818103600083015261448381613d43565b9050919050565b600060208201905081810360008301526144a381613d66565b9050919050565b600060208201905081810360008301526144c381613dcf565b9050919050565b600060208201905081810360008301526144e381613df2565b9050919050565b6000602082019050818103600083015261450381613e38565b9050919050565b6000602082019050818103600083015261452381613e5b565b9050919050565b6000602082019050818103600083015261454381613e7e565b9050919050565b6000602082019050818103600083015261456381613ee7565b9050919050565b6000602082019050818103600083015261458381613f0a565b9050919050565b600060208201905081810360008301526145a381613f2d565b9050919050565b600060208201905081810360008301526145c381613f96565b9050919050565b600060208201905081810360008301526145e381613fb9565b9050919050565b6000602082019050818103600083015261460381613fff565b9050919050565b6000602082019050818103600083015261462381614045565b9050919050565b6000602082019050818103600083015261464381614068565b9050919050565b60006020820190508181036000830152614663816140ae565b9050919050565b60006020820190508181036000830152614683816140f4565b9050919050565b600060208201905061469f600083018461415f565b92915050565b60006060820190506146ba600083018661415f565b6146c76020830185613ade565b6146d46040830184613aed565b949350505050565b6000610120820190506146f2600083018c61415f565b6146ff602083018b61415f565b61470c604083018a613ade565b818103606083015261471e8189613b35565b905081810360808301526147328188613b35565b905081810360a08301526147468187613b35565b905081810360c083015261475a8186613b35565b905081810360e083015261476e8185613b35565b905061477e610100830184613aed565b9a9950505050505050505050565b60006147966147a7565b90506147a28282614a5e565b919050565b6000604051905090565b600067ffffffffffffffff8211156147cc576147cb614b96565b5b6147d582614bc5565b9050602081019050919050565b600067ffffffffffffffff8211156147fd576147fc614b96565b5b61480682614bc5565b9050602081019050919050565b600081519050919050565b600081519050919050565b600082825260208201905092915050565b600081905092915050565b600082825260208201905092915050565b600081905092915050565b600061486c826149e0565b9150614877836149e0565b9250827fffffffffffffffffffffffffffffffffffffffffffffffffffffffffffffffff038211156148ac576148ab614b09565b5b828201905092915050565b60006148c2826149e0565b91506148cd836149e0565b9250826148dd576148dc614b38565b5b828204905092915050565b60006148f3826149e0565b91506148fe836149e0565b9250817fffffffffffffffffffffffffffffffffffffffffffffffffffffffffffffffff048311821515161561493757614936614b09565b5b828202905092915050565b600061494d826149e0565b9150614958836149e0565b92508282101561496b5761496a614b09565b5b828203905092915050565b6000614981826149c0565b9050919050565b60008115159050919050565b60007fffffffff0000000000000000000000000000000000000000000000000000000082169050919050565b600073ffffffffffffffffffffffffffffffffffffffff82169050919050565b6000819050919050565b82818337600083830152505050565b60005b83811015614a175780820151818401526020810190506149fc565b83811115614a26576000848401525b50505050565b60006002820490506001821680614a4457607f821691505b60208210811415614a5857614a57614b67565b5b50919050565b614a6782614bc5565b810181811067ffffffffffffffff82111715614a8657614a85614b96565b5b80604052505050565b6000614a9a826149e0565b91507fffffffffffffffffffffffffffffffffffffffffffffffffffffffffffffffff821415614acd57614acc614b09565b5b600182019050919050565b6000614ae3826149e0565b9150614aee836149e0565b925082614afe57614afd614b38565b5b828206905092915050565b7f4e487b7100000000000000000000000000000000000000000000000000000000600052601160045260246000fd5b7f4e487b7100000000000000000000000000000000000000000000000000000000600052601260045260246000fd5b7f4e487b7100000000000000000000000000000000000000000000000000000000600052602260045260246000fd5b7f4e487b7100000000000000000000000000000000000000000000000000000000600052604160045260246000fd5b6000601f19601f8301169050919050565b7f3c673e3c7465787420636c6173733d22636c732d3422207472616e73666f726d60008201527f3d227472616e736c6174652832302e3633203237332e373229223e415245413c60208201527f2f746578743e3c2f673e00000000000000000000000000000000000000000000604082015250565b7f3c2f746578743e3c2f673e000000000000000000000000000000000000000000600082015250565b7f596f752063616e20736574206d61726b657420636f6e7472616374206f6e6c7960008201527f206f6e6365210000000000000000000000000000000000000000000000000000602082015250565b7f4e6f7420656e6f75676820455448210000000000000000000000000000000000600082015250565b7f3c673e3c7465787420636c6173733d22636c732d3522207472616e73666f726d60008201527f3d227472616e736c617465283132302e3735203237332e373229223e00000000602082015250565b7f3c673e3c7465787420636c6173733d22636c732d3522207472616e73666f726d60008201527f3d227472616e736c617465283132302e3735203139332e323729223e00000000602082015250565b7f455243373231456e756d657261626c653a206f776e657220696e646578206f7560008201527f74206f6620626f756e6473000000000000000000000000000000000000000000602082015250565b7f4552433732313a207472616e7366657220746f206e6f6e20455243373231526560008201527f63656976657220696d706c656d656e7465720000000000000000000000000000602082015250565b7f4552433732313a207472616e736665722066726f6d20696e636f72726563742060008201527f6f776e6572000000000000000000000000000000000000000000000000000000602082015250565b7f4552433732313a20746f6b656e20616c7265616479206d696e74656400000000600082015250565b7f3c7465787420636c6173733d22636c732d3322207472616e73666f726d3d227460008201527f72616e736c6174652837302e32372034382e363729223e5449544c452044454560208201527f443c2f746578743e000000000000000000000000000000000000000000000000604082015250565b7f4552433732313a207472616e7366657220746f20746865207a65726f2061646460008201527f7265737300000000000000000000000000000000000000000000000000000000602082015250565b7f4552433732313a20617070726f766520746f2063616c6c657200000000000000600082015250565b7f596f75206d757374206265206f776e6572206f6620746865206e667421000000600082015250565b7f3c673e3c7465787420636c6173733d22636c732d3522207472616e73666f726d60008201527f3d227472616e736c617465283132302e3735203135332e303429223e00000000602082015250565b7f3c673e3c7465787420636c6173733d22636c732d3422207472616e73666f726d60008201527f3d227472616e736c6174652832302e3338203233332e343929223e444953545260208201527f4943543c2f746578743e3c2f673e000000000000000000000000000000000000604082015250565b7f4552433732313a206f70657261746f7220717565727920666f72206e6f6e657860008201527f697374656e7420746f6b656e0000000000000000000000000000000000000000602082015250565b7f546869732064656564206e6f7420666f722073616c6521000000000000000000600082015250565b7f3c672069643d224c617965725f322220646174612d6e616d653d224c6179657260008201527f2032223e3c672069643d224c617965725f312d322220646174612d6e616d653d60208201527f224c617965722031223e3c672069643d225658704b4142486455364e6d71483360408201527f414d35647977223e3c7061746820636c6173733d22636c732d312220643d224d60608201527f2e352e356832383076333630482e355a222f3e3c2f673e3c672069643d22487a60808201527f4b743771474873726a37516b5361655a5a3942223e3c7061746820636c61737360a08201527f3d22636c732d322220643d224d342e34352c352e39683237312e365637392e3760c08201527f48342e34355a222f3e3c2f673e0000000000000000000000000000000000000060e082015250565b7f4552433732313a20617070726f76652063616c6c6572206973206e6f74206f7760008201527f6e6572206e6f7220617070726f76656420666f7220616c6c0000000000000000602082015250565b7f4552433732313a2062616c616e636520717565727920666f7220746865207a6560008201527f726f206164647265737300000000000000000000000000000000000000000000602082015250565b7f4552433732313a206f776e657220717565727920666f72206e6f6e657869737460008201527f656e7420746f6b656e0000000000000000000000000000000000000000000000602082015250565b7f3c673e3c7465787420636c6173733d22636c732d3522207472616e73666f726d60008201527f3d227472616e736c617465283132302e3735203331332e393529223e00000000602082015250565b7f3c2f746578743e3c2f673e3c2f673e3c2f673e3c2f7376673e00000000000000600082015250565b7f4552433732313a206d696e7420746f20746865207a65726f2061646472657373600082015250565b7f596f752063616e27742062757920796f7572206f776e20646565642100000000600082015250565b7f4552433732313a20617070726f76656420717565727920666f72206e6f6e657860008201527f697374656e7420746f6b656e0000000000000000000000000000000000000000602082015250565b7f3c673e3c7465787420636c6173733d22636c732d3522207472616e73666f726d60008201527f3d227472616e736c617465283132302e3735203131322e383129223e00000000602082015250565b7f3c673e3c7465787420636c6173733d22636c732d3422207472616e73666f726d60008201527f3d227472616e736c6174652832302e3338203139332e323729223e434f554e5460208201527f593c2f746578743e3c2f673e0000000000000000000000000000000000000000604082015250565b7f596f7520617265206e6f74206f776e6572210000000000000000000000000000600082015250565b7f4552433732314d657461646174613a2055524920717565727920666f72206e6f60008201527f6e6578697374656e7420746f6b656e0000000000000000000000000000000000602082015250565b7f3c673e3c7465787420636c6173733d22636c732d3522207472616e73666f726d60008201527f3d227472616e736c617465283132302e3735203233332e343929223e00000000602082015250565b7f4552433732313a20617070726f76616c20746f2063757272656e74206f776e6560008201527f7200000000000000000000000000000000000000000000000000000000000000602082015250565b50565b7f4552433732313a207472616e736665722063616c6c6572206973206e6f74206f60008201527f776e6572206e6f7220617070726f766564000000000000000000000000000000602082015250565b7f455243373231456e756d657261626c653a20676c6f62616c20696e646578206f60008201527f7574206f6620626f756e64730000000000000000000000000000000000000000602082015250565b7f3c673e3c7465787420636c6173733d22636c732d3422207472616e73666f726d60008201527f3d227472616e736c6174652832302e3338203131322e383129223e444545442060208201527f49443c2f746578743e3c2f673e00000000000000000000000000000000000000604082015250565b7f546f6b656e206964206e6f742065786973747321000000000000000000000000600082015250565b7f3c673e3c7465787420636c6173733d22636c732d3422207472616e73666f726d60008201527f3d227472616e736c6174652832302e3338203135332e303429223e50524f564960208201527f4e43453c2f746578743e3c2f673e000000000000000000000000000000000000604082015250565b7f57726f6e67206164647265737321000000000000000000000000000000000000600082015250565b7f3c673e3c7465787420636c6173733d22636c732d3422207472616e73666f726d60008201527f3d227472616e736c6174652832302e3338203331332e393529223e434f4f524460208201527f494e415445533c2f746578743e3c2f673e000000000000000000000000000000604082015250565b7f3c73766720786d6c6e733d22687474703a2f2f7777772e77332e6f72672f323060008201527f30302f737667222076696577426f783d223020302032383120333631223e3c6460208201527f6566733e3c7374796c653e2e636c732d312c2e636c732d337b66696c6c3a236660408201527f66663b7d2e636c732d312c2e636c732d327b7374726f6b653a233030303b7d2e60608201527f636c732d327b66696c6c3a233636663b7374726f6b652d77696474683a302e3560808201527f70783b7d2e636c732d332c2e636c732d342c2e636c732d357b69736f6c61746960a08201527f6f6e3a69736f6c6174653b7d2e636c732d337b666f6e742d73697a653a32307060c08201527f783b6c65747465722d73706163696e673a302e31656d3b7d2e636c732d332c2e60e08201527f636c732d347b666f6e742d66616d696c793a436f75726965724e657750532d426101008201527f6f6c644d542c20436f7572696572204e65773b666f6e742d7765696768743a376101208201527f30303b7d2e636c732d347b666f6e742d73697a653a313270783b7d2e636c732d6101408201527f357b666f6e742d73697a653a313070783b666f6e742d66616d696c793a436f756101608201527f726965724e657750534d542c20436f7572696572204e65773b7d3c2f7374796c6101808201527f653e3c2f646566733e00000000000000000000000000000000000000000000006101a082015250565b615a7d81614976565b8114615a8857600080fd5b50565b615a9481614988565b8114615a9f57600080fd5b50565b615aab81614994565b8114615ab657600080fd5b50565b615ac2816149e0565b8114615acd57600080fd5b5056fe4142434445464748494a4b4c4d4e4f505152535455565758595a6162636465666768696a6b6c6d6e6f707172737475767778797a303132333435363738392b2fa2646970667358221220d770453dacc665bb8a7062b4feca27f33ebb4a8bf5299846668e3f01b86c4c2664736f6c63430008010033",
  "immutableReferences": {},
  "source": "// SPDX-License-Identifier: MIT\r\n\r\npragma solidity >=0.8.0 <0.9.0;\r\n\r\nimport \"../node_modules/@openzeppelin/contracts/token/ERC721/extensions/ERC721Enumerable.sol\";\r\nimport \"../node_modules/@openzeppelin/contracts/utils/Strings.sol\";\r\nimport \"./Base64.sol\";\r\n\r\ncontract DeedNFT is ERC721Enumerable {\r\n\r\n  struct TitleDeed {\r\n    uint256 ID;\r\n    uint256 price;\r\n    address owner;\r\n    string province;\r\n    string area;\r\n    string county;\r\n    string district;\r\n    string coordinates;\r\n    bool forSale;\r\n  }\r\n\r\n  address contractOwner;\r\n  address marketContract;\r\n  mapping (uint256 => TitleDeed) public allTitleDeeds;\r\n  \r\n  constructor() ERC721(\"Title Deed NFT\", \"DNFT\") {\r\n    contractOwner = msg.sender;\r\n  }\r\n\r\n  function setMarketContract(address _address) public {\r\n    require(marketContract == address(0), \"You can set market contract only once!\");\r\n    marketContract = _address;\r\n  }\r\n\r\n  function mint(\r\n    string memory _province,\r\n    string memory _area,\r\n    string memory _county,\r\n    string memory _district,\r\n    string memory _coordinates\r\n  ) public {\r\n    uint256 supply = totalSupply();\r\n    \r\n    TitleDeed memory newDeed = TitleDeed(\r\n      supply + 1,\r\n      0,\r\n      msg.sender,\r\n      _province,\r\n      _area,\r\n      _county,\r\n      _district,\r\n      _coordinates,\r\n      false\r\n    );\r\n    \r\n    allTitleDeeds[supply + 1] = newDeed;\r\n    _safeMint(msg.sender, supply + 1);\r\n    setApprovalForAll(marketContract, true);\r\n  }\r\n\r\n  modifier onlyOwner() {\r\n    require(msg.sender == contractOwner, \"You are not owner!\");\r\n    _;\r\n  }\r\n\r\n  function updateDeedForSale(uint256 _tokenId, uint256 _price, bool _forSale, address _sender) public {\r\n    require(_exists(_tokenId), \"Token id not exists!\");\r\n    require(ownerOf(_tokenId) == _sender, \"You must be owner of the nft!\");\r\n\r\n    TitleDeed storage deed = allTitleDeeds[_tokenId];\r\n    deed.price = _price;\r\n    deed.forSale = _forSale;\r\n  }\r\n\r\n  function balanceOfAdress(address _address) public view returns(uint256){\r\n    return balanceOf(_address);\r\n  }\r\n\r\n  function tokenOfOwner(address _address, uint256 _index) public view returns(uint256){\r\n    return tokenOfOwnerByIndex(_address, _index);\r\n  }\r\n\r\n  function approveToken(address _to, uint256 _tokenId) public {\r\n    approve(_to, _tokenId);\r\n  }\r\n\r\n  function buyTitleDeed(uint256 _tokenId, address _sender, uint256 _value) public returns(address) {\r\n    require(_sender != address(0), \"Wrong address!\");\r\n    require(_exists(_tokenId), \"Token id not exists!\");\r\n    address deedOwner = ownerOf(_tokenId);\r\n    require(deedOwner != address(0), \"Wrong address!\");\r\n    require(deedOwner != _sender, \"You can't buy your own deed!\");\r\n    TitleDeed storage deed = allTitleDeeds[_tokenId];\r\n    require(_value >= deed.price, \"Not enough ETH!\");\r\n    require(deed.forSale, \"This deed not for sale!\");\r\n\r\n    transferFrom(deedOwner, _sender, _tokenId);\r\n    deed.owner = _sender;\r\n    deed.forSale = false;\r\n    \r\n    return deedOwner;\r\n  }\r\n\r\n  function getDeed(uint256 _tokenId) public view returns(uint256, address, bool) {\r\n    TitleDeed memory deed = allTitleDeeds[_tokenId];\r\n    return (deed.price, deed.owner, deed.forSale);\r\n  }\r\n\r\n  function buildImage(uint256 _tokenId) public view returns(string memory) {\r\n      TitleDeed memory currentDeed = allTitleDeeds[_tokenId];\r\n      return Base64.encode(bytes(\r\n          abi.encodePacked(\r\n              '<svg xmlns=\"http://www.w3.org/2000/svg\" viewBox=\"0 0 281 361\"><defs><style>.cls-1,.cls-3{fill:#fff;}.cls-1,.cls-2{stroke:#000;}.cls-2{fill:#66f;stroke-width:0.5px;}.cls-3,.cls-4,.cls-5{isolation:isolate;}.cls-3{font-size:20px;letter-spacing:0.1em;}.cls-3,.cls-4{font-family:CourierNewPS-BoldMT, Courier New;font-weight:700;}.cls-4{font-size:12px;}.cls-5{font-size:10px;font-family:CourierNewPSMT, Courier New;}</style></defs>',\r\n              '<g id=\"Layer_2\" data-name=\"Layer 2\"><g id=\"Layer_1-2\" data-name=\"Layer 1\"><g id=\"VXpKABHdU6NmqH3AM5dyw\"><path class=\"cls-1\" d=\"M.5.5h280v360H.5Z\"/></g><g id=\"HzKt7qGHsrj7QkSaeZZ9B\"><path class=\"cls-2\" d=\"M4.45,5.9h271.6V79.7H4.45Z\"/></g>',\r\n              '<text class=\"cls-3\" transform=\"translate(70.27 48.67)\">TITLE DEED</text>',\r\n              '<g><text class=\"cls-4\" transform=\"translate(20.38 112.81)\">DEED ID</text></g>',\r\n              '<g><text class=\"cls-4\" transform=\"translate(20.38 153.04)\">PROVINCE</text></g>',\r\n              '<g><text class=\"cls-4\" transform=\"translate(20.38 193.27)\">COUNTY</text></g>',\r\n              '<g><text class=\"cls-4\" transform=\"translate(20.38 233.49)\">DISTRICT</text></g>',\r\n              '<g><text class=\"cls-4\" transform=\"translate(20.63 273.72)\">AREA</text></g>',\r\n              '<g><text class=\"cls-4\" transform=\"translate(20.38 313.95)\">COORDINATES</text></g>',\r\n              '<g><text class=\"cls-5\" transform=\"translate(120.75 153.04)\">', currentDeed.province ,'</text></g>',\r\n              '<g><text class=\"cls-5\" transform=\"translate(120.75 193.27)\">', currentDeed.county ,'</text></g>',\r\n              '<g><text class=\"cls-5\" transform=\"translate(120.75 233.49)\">', currentDeed.district ,'</text></g>',\r\n              '<g><text class=\"cls-5\" transform=\"translate(120.75 273.72)\">', currentDeed.area ,'</text></g>',\r\n              '<g><text class=\"cls-5\" transform=\"translate(120.75 313.95)\">', currentDeed.coordinates ,'</text></g>',\r\n              '<g><text class=\"cls-5\" transform=\"translate(120.75 112.81)\">', Strings.toString(currentDeed.ID) ,'</text></g></g></g></svg>'\r\n          )\r\n      ));\r\n  }\r\n\r\n  function withdraw(address to) public payable onlyOwner {\r\n    (bool os, ) = payable(to).call{value: address(this).balance}(\"\");\r\n    require(os);\r\n  }\r\n\r\n}",
  "sourcePath": "C:\\Users\\Fatih\\Desktop\\Fatih\\Projeler devler\\Blockchain Projects\\DeedNFTApp\\truffle\\contracts\\DeedNFT.sol",
  "compiler": {
    "name": "solc",
    "version": "0.8.1+commit.df193b15.Emscripten.clang"
  },
  "schemaVersion": "3.4.7",
  "updatedAt": "2022-05-19T16:32:15.917Z",
  "networkType": "ethereum",
  "devdoc": {
    "kind": "dev",
    "methods": {
      "approve(address,uint256)": {
        "details": "See {IERC721-approve}."
      },
      "balanceOf(address)": {
        "details": "See {IERC721-balanceOf}."
      },
      "getApproved(uint256)": {
        "details": "See {IERC721-getApproved}."
      },
      "isApprovedForAll(address,address)": {
        "details": "See {IERC721-isApprovedForAll}."
      },
      "name()": {
        "details": "See {IERC721Metadata-name}."
      },
      "ownerOf(uint256)": {
        "details": "See {IERC721-ownerOf}."
      },
      "safeTransferFrom(address,address,uint256)": {
        "details": "See {IERC721-safeTransferFrom}."
      },
      "safeTransferFrom(address,address,uint256,bytes)": {
        "details": "See {IERC721-safeTransferFrom}."
      },
      "setApprovalForAll(address,bool)": {
        "details": "See {IERC721-setApprovalForAll}."
      },
      "supportsInterface(bytes4)": {
        "details": "See {IERC165-supportsInterface}."
      },
      "symbol()": {
        "details": "See {IERC721Metadata-symbol}."
      },
      "tokenByIndex(uint256)": {
        "details": "See {IERC721Enumerable-tokenByIndex}."
      },
      "tokenOfOwnerByIndex(address,uint256)": {
        "details": "See {IERC721Enumerable-tokenOfOwnerByIndex}."
      },
      "tokenURI(uint256)": {
        "details": "See {IERC721Metadata-tokenURI}."
      },
      "totalSupply()": {
        "details": "See {IERC721Enumerable-totalSupply}."
      },
      "transferFrom(address,address,uint256)": {
        "details": "See {IERC721-transferFrom}."
      }
    },
    "version": 1
  },
  "userdoc": {
    "kind": "user",
    "methods": {},
    "version": 1
  }
}