{
  "contractName": "DeedNFT",
  "abi": [
    {
      "inputs": [],
      "stateMutability": "nonpayable",
      "type": "constructor"
    },
    {
      "anonymous": false,
      "inputs": [
        {
          "indexed": true,
          "internalType": "address",
          "name": "owner",
          "type": "address"
        },
        {
          "indexed": true,
          "internalType": "address",
          "name": "approved",
          "type": "address"
        },
        {
          "indexed": true,
          "internalType": "uint256",
          "name": "tokenId",
          "type": "uint256"
        }
      ],
      "name": "Approval",
      "type": "event"
    },
    {
      "anonymous": false,
      "inputs": [
        {
          "indexed": true,
          "internalType": "address",
          "name": "owner",
          "type": "address"
        },
        {
          "indexed": true,
          "internalType": "address",
          "name": "operator",
          "type": "address"
        },
        {
          "indexed": false,
          "internalType": "bool",
          "name": "approved",
          "type": "bool"
        }
      ],
      "name": "ApprovalForAll",
      "type": "event"
    },
    {
      "anonymous": false,
      "inputs": [
        {
          "indexed": true,
          "internalType": "address",
          "name": "previousOwner",
          "type": "address"
        },
        {
          "indexed": true,
          "internalType": "address",
          "name": "newOwner",
          "type": "address"
        }
      ],
      "name": "OwnershipTransferred",
      "type": "event"
    },
    {
      "anonymous": false,
      "inputs": [
        {
          "indexed": true,
          "internalType": "address",
          "name": "from",
          "type": "address"
        },
        {
          "indexed": true,
          "internalType": "address",
          "name": "to",
          "type": "address"
        },
        {
          "indexed": true,
          "internalType": "uint256",
          "name": "tokenId",
          "type": "uint256"
        }
      ],
      "name": "Transfer",
      "type": "event"
    },
    {
      "inputs": [
        {
          "internalType": "address",
          "name": "to",
          "type": "address"
        },
        {
          "internalType": "uint256",
          "name": "tokenId",
          "type": "uint256"
        }
      ],
      "name": "approve",
      "outputs": [],
      "stateMutability": "nonpayable",
      "type": "function"
    },
    {
      "inputs": [
        {
          "internalType": "address",
          "name": "owner",
          "type": "address"
        }
      ],
      "name": "balanceOf",
      "outputs": [
        {
          "internalType": "uint256",
          "name": "",
          "type": "uint256"
        }
      ],
      "stateMutability": "view",
      "type": "function"
    },
    {
      "inputs": [
        {
          "internalType": "uint256",
          "name": "tokenId",
          "type": "uint256"
        }
      ],
      "name": "getApproved",
      "outputs": [
        {
          "internalType": "address",
          "name": "",
          "type": "address"
        }
      ],
      "stateMutability": "view",
      "type": "function"
    },
    {
      "inputs": [
        {
          "internalType": "address",
          "name": "owner",
          "type": "address"
        },
        {
          "internalType": "address",
          "name": "operator",
          "type": "address"
        }
      ],
      "name": "isApprovedForAll",
      "outputs": [
        {
          "internalType": "bool",
          "name": "",
          "type": "bool"
        }
      ],
      "stateMutability": "view",
      "type": "function"
    },
    {
      "inputs": [],
      "name": "name",
      "outputs": [
        {
          "internalType": "string",
          "name": "",
          "type": "string"
        }
      ],
      "stateMutability": "view",
      "type": "function"
    },
    {
      "inputs": [
        {
          "internalType": "uint256",
          "name": "",
          "type": "uint256"
        }
      ],
      "name": "nftInfo",
      "outputs": [
        {
          "internalType": "uint256",
          "name": "ID",
          "type": "uint256"
        },
        {
          "internalType": "address",
          "name": "owner",
          "type": "address"
        },
        {
          "internalType": "bytes8",
          "name": "name",
          "type": "bytes8"
        },
        {
          "internalType": "bytes16",
          "name": "province",
          "type": "bytes16"
        },
        {
          "internalType": "bytes16",
          "name": "area",
          "type": "bytes16"
        },
        {
          "internalType": "bytes24",
          "name": "county",
          "type": "bytes24"
        },
        {
          "internalType": "bytes32",
          "name": "district",
          "type": "bytes32"
        },
        {
          "internalType": "bytes32",
          "name": "coordinates",
          "type": "bytes32"
        }
      ],
      "stateMutability": "view",
      "type": "function"
    },
    {
      "inputs": [],
      "name": "owner",
      "outputs": [
        {
          "internalType": "address",
          "name": "",
          "type": "address"
        }
      ],
      "stateMutability": "view",
      "type": "function"
    },
    {
      "inputs": [
        {
          "internalType": "uint256",
          "name": "tokenId",
          "type": "uint256"
        }
      ],
      "name": "ownerOf",
      "outputs": [
        {
          "internalType": "address",
          "name": "",
          "type": "address"
        }
      ],
      "stateMutability": "view",
      "type": "function"
    },
    {
      "inputs": [],
      "name": "renounceOwnership",
      "outputs": [],
      "stateMutability": "nonpayable",
      "type": "function"
    },
    {
      "inputs": [
        {
          "internalType": "address",
          "name": "from",
          "type": "address"
        },
        {
          "internalType": "address",
          "name": "to",
          "type": "address"
        },
        {
          "internalType": "uint256",
          "name": "tokenId",
          "type": "uint256"
        }
      ],
      "name": "safeTransferFrom",
      "outputs": [],
      "stateMutability": "nonpayable",
      "type": "function"
    },
    {
      "inputs": [
        {
          "internalType": "address",
          "name": "from",
          "type": "address"
        },
        {
          "internalType": "address",
          "name": "to",
          "type": "address"
        },
        {
          "internalType": "uint256",
          "name": "tokenId",
          "type": "uint256"
        },
        {
          "internalType": "bytes",
          "name": "_data",
          "type": "bytes"
        }
      ],
      "name": "safeTransferFrom",
      "outputs": [],
      "stateMutability": "nonpayable",
      "type": "function"
    },
    {
      "inputs": [
        {
          "internalType": "address",
          "name": "operator",
          "type": "address"
        },
        {
          "internalType": "bool",
          "name": "approved",
          "type": "bool"
        }
      ],
      "name": "setApprovalForAll",
      "outputs": [],
      "stateMutability": "nonpayable",
      "type": "function"
    },
    {
      "inputs": [
        {
          "internalType": "bytes4",
          "name": "interfaceId",
          "type": "bytes4"
        }
      ],
      "name": "supportsInterface",
      "outputs": [
        {
          "internalType": "bool",
          "name": "",
          "type": "bool"
        }
      ],
      "stateMutability": "view",
      "type": "function"
    },
    {
      "inputs": [],
      "name": "symbol",
      "outputs": [
        {
          "internalType": "string",
          "name": "",
          "type": "string"
        }
      ],
      "stateMutability": "view",
      "type": "function"
    },
    {
      "inputs": [
        {
          "internalType": "uint256",
          "name": "index",
          "type": "uint256"
        }
      ],
      "name": "tokenByIndex",
      "outputs": [
        {
          "internalType": "uint256",
          "name": "",
          "type": "uint256"
        }
      ],
      "stateMutability": "view",
      "type": "function"
    },
    {
      "inputs": [
        {
          "internalType": "address",
          "name": "owner",
          "type": "address"
        },
        {
          "internalType": "uint256",
          "name": "index",
          "type": "uint256"
        }
      ],
      "name": "tokenOfOwnerByIndex",
      "outputs": [
        {
          "internalType": "uint256",
          "name": "",
          "type": "uint256"
        }
      ],
      "stateMutability": "view",
      "type": "function"
    },
    {
      "inputs": [],
      "name": "totalSupply",
      "outputs": [
        {
          "internalType": "uint256",
          "name": "",
          "type": "uint256"
        }
      ],
      "stateMutability": "view",
      "type": "function"
    },
    {
      "inputs": [
        {
          "internalType": "address",
          "name": "from",
          "type": "address"
        },
        {
          "internalType": "address",
          "name": "to",
          "type": "address"
        },
        {
          "internalType": "uint256",
          "name": "tokenId",
          "type": "uint256"
        }
      ],
      "name": "transferFrom",
      "outputs": [],
      "stateMutability": "nonpayable",
      "type": "function"
    },
    {
      "inputs": [
        {
          "internalType": "address",
          "name": "newOwner",
          "type": "address"
        }
      ],
      "name": "transferOwnership",
      "outputs": [],
      "stateMutability": "nonpayable",
      "type": "function"
    },
    {
      "inputs": [
        {
          "internalType": "bytes16",
          "name": "_province",
          "type": "bytes16"
        },
        {
          "internalType": "bytes16",
          "name": "_area",
          "type": "bytes16"
        },
        {
          "internalType": "bytes24",
          "name": "_county",
          "type": "bytes24"
        },
        {
          "internalType": "bytes32",
          "name": "_district",
          "type": "bytes32"
        },
        {
          "internalType": "bytes32",
          "name": "_coordinates",
          "type": "bytes32"
        }
      ],
      "name": "mint",
      "outputs": [],
      "stateMutability": "payable",
      "type": "function"
    },
    {
      "inputs": [
        {
          "internalType": "uint256",
          "name": "_tokenId",
          "type": "uint256"
        }
      ],
      "name": "buildImage",
      "outputs": [
        {
          "internalType": "string",
          "name": "",
          "type": "string"
        }
      ],
      "stateMutability": "view",
      "type": "function"
    },
    {
      "inputs": [
        {
          "internalType": "uint256",
          "name": "_tokenId",
          "type": "uint256"
        }
      ],
      "name": "buildMetadata",
      "outputs": [
        {
          "internalType": "string",
          "name": "",
          "type": "string"
        }
      ],
      "stateMutability": "view",
      "type": "function"
    },
    {
      "inputs": [
        {
          "internalType": "uint256",
          "name": "_tokenId",
          "type": "uint256"
        }
      ],
      "name": "tokenURI",
      "outputs": [
        {
          "internalType": "string",
          "name": "",
          "type": "string"
        }
      ],
      "stateMutability": "view",
      "type": "function"
    },
    {
      "inputs": [],
      "name": "withdraw",
      "outputs": [],
      "stateMutability": "payable",
      "type": "function"
    }
  ],
  "bytecode": "0x60806040523480156200001157600080fd5b506040518060400160405280600881526020017f54617075204e46540000000000000000000000000000000000000000000000008152506040518060400160405280600481526020017f544e465400000000000000000000000000000000000000000000000000000000815250816000908051906020019062000096929190620001a6565b508060019080519060200190620000af929190620001a6565b505050620000d2620000c6620000d860201b60201c565b620000e060201b60201c565b620002bb565b600033905090565b6000600a60009054906101000a900473ffffffffffffffffffffffffffffffffffffffff16905081600a60006101000a81548173ffffffffffffffffffffffffffffffffffffffff021916908373ffffffffffffffffffffffffffffffffffffffff1602179055508173ffffffffffffffffffffffffffffffffffffffff168173ffffffffffffffffffffffffffffffffffffffff167f8be0079c531659141344cd1fd0a4f28419497f9722a3daafe3b4186f6b6457e060405160405180910390a35050565b828054620001b49062000256565b90600052602060002090601f016020900481019282620001d8576000855562000224565b82601f10620001f357805160ff191683800117855562000224565b8280016001018555821562000224579182015b828111156200022357825182559160200191906001019062000206565b5b50905062000233919062000237565b5090565b5b808211156200025257600081600090555060010162000238565b5090565b600060028204905060018216806200026f57607f821691505b602082108114156200028657620002856200028c565b5b50919050565b7f4e487b7100000000000000000000000000000000000000000000000000000000600052602260045260246000fd5b6155ad80620002cb6000396000f3fe60806040526004361061014b5760003560e01c80636352211e116100b6578063a22cb4651161006f578063a22cb465146104a3578063b88d4fde146104cc578063c87b56dd146104f5578063e985e9c514610532578063edf877041461056f578063f2fde38b146105ac5761014b565b80636352211e146103a05780636ed00715146103dd57806370a08231146103f9578063715018a6146104365780638da5cb5b1461044d57806395d89b41146104785761014b565b806323b872dd1161010857806323b872dd1461028d5780632ba80eba146102b65780632f745c59146102f35780633ccfd60b1461033057806342842e0e1461033a5780634f6ccce7146103635761014b565b806301ffc9a71461015057806306fdde031461018d578063081812fc146101b8578063095ea7b3146101f557806318160ddd1461021e5780631f8bc79014610249575b600080fd5b34801561015c57600080fd5b5061017760048036038101906101729190612f12565b6105d5565b6040516101849190613ad4565b60405180910390f35b34801561019957600080fd5b506101a261064f565b6040516101af9190613aef565b60405180910390f35b3480156101c457600080fd5b506101df60048036038101906101da9190612f64565b6106e1565b6040516101ec9190613a6d565b60405180910390f35b34801561020157600080fd5b5061021c60048036038101906102179190612e5f565b610766565b005b34801561022a57600080fd5b5061023361087e565b6040516102409190613d51565b60405180910390f35b34801561025557600080fd5b50610270600480360381019061026b9190612f64565b61088b565b604051610284989796959493929190613d6c565b60405180910390f35b34801561029957600080fd5b506102b460048036038101906102af9190612d59565b610927565b005b3480156102c257600080fd5b506102dd60048036038101906102d89190612f64565b610987565b6040516102ea9190613aef565b60405180910390f35b3480156102ff57600080fd5b5061031a60048036038101906103159190612e5f565b610bc9565b6040516103279190613d51565b60405180910390f35b610338610c6e565b005b34801561034657600080fd5b50610361600480360381019061035c9190612d59565b610d6a565b005b34801561036f57600080fd5b5061038a60048036038101906103859190612f64565b610d8a565b6040516103979190613d51565b60405180910390f35b3480156103ac57600080fd5b506103c760048036038101906103c29190612f64565b610e21565b6040516103d49190613a6d565b60405180910390f35b6103f760048036038101906103f29190612e9b565b610ed3565b005b34801561040557600080fd5b50610420600480360381019061041b9190612cf4565b611112565b60405161042d9190613d51565b60405180910390f35b34801561044257600080fd5b5061044b6111ca565b005b34801561045957600080fd5b50610462611252565b60405161046f9190613a6d565b60405180910390f35b34801561048457600080fd5b5061048d61127c565b60405161049a9190613aef565b60405180910390f35b3480156104af57600080fd5b506104ca60048036038101906104c59190612e23565b61130e565b005b3480156104d857600080fd5b506104f360048036038101906104ee9190612da8565b611324565b005b34801561050157600080fd5b5061051c60048036038101906105179190612f64565b611386565b6040516105299190613aef565b60405180910390f35b34801561053e57600080fd5b5061055960048036038101906105549190612d1d565b6113e0565b6040516105669190613ad4565b60405180910390f35b34801561057b57600080fd5b5061059660048036038101906105919190612f64565b611474565b6040516105a39190613aef565b60405180910390f35b3480156105b857600080fd5b506105d360048036038101906105ce9190612cf4565b61165e565b005b60007f780e9d63000000000000000000000000000000000000000000000000000000007bffffffffffffffffffffffffffffffffffffffffffffffffffffffff1916827bffffffffffffffffffffffffffffffffffffffffffffffffffffffff19161480610648575061064782611756565b5b9050919050565b60606000805461065e906140e7565b80601f016020809104026020016040519081016040528092919081815260200182805461068a906140e7565b80156106d75780601f106106ac576101008083540402835291602001916106d7565b820191906000526020600020905b8154815290600101906020018083116106ba57829003601f168201915b5050505050905090565b60006106ec82611838565b61072b576040517f08c379a000000000000000000000000000000000000000000000000000000000815260040161072290613c91565b60405180910390fd5b6004600083815260200190815260200160002060009054906101000a900473ffffffffffffffffffffffffffffffffffffffff169050919050565b600061077182610e21565b90508073ffffffffffffffffffffffffffffffffffffffff168373ffffffffffffffffffffffffffffffffffffffff1614156107e2576040517f08c379a00000000000000000000000000000000000000000000000000000000081526004016107d990613cf1565b60405180910390fd5b8073ffffffffffffffffffffffffffffffffffffffff166108016118a4565b73ffffffffffffffffffffffffffffffffffffffff161480610830575061082f8161082a6118a4565b6113e0565b5b61086f576040517f08c379a000000000000000000000000000000000000000000000000000000000815260040161086690613c11565b60405180910390fd5b61087983836118ac565b505050565b6000600880549050905090565b600b6020528060005260406000206000915090508060000154908060010160009054906101000a900473ffffffffffffffffffffffffffffffffffffffff16908060010160149054906101000a900460c01b908060020160009054906101000a900460801b908060020160109054906101000a900460801b908060030160009054906101000a900460401b908060040154908060050154905088565b6109386109326118a4565b82611965565b610977576040517f08c379a000000000000000000000000000000000000000000000000000000000815260040161096e90613d11565b60405180910390fd5b610982838383611a43565b505050565b60606000600b600084815260200190815260200160002060405180610100016040529081600082015481526020016001820160009054906101000a900473ffffffffffffffffffffffffffffffffffffffff1673ffffffffffffffffffffffffffffffffffffffff1673ffffffffffffffffffffffffffffffffffffffff1681526020016001820160149054906101000a900460c01b77ffffffffffffffffffffffffffffffffffffffffffffffff191677ffffffffffffffffffffffffffffffffffffffffffffffff191681526020016002820160009054906101000a900460801b6fffffffffffffffffffffffffffffffff19166fffffffffffffffffffffffffffffffff191681526020016002820160109054906101000a900460801b6fffffffffffffffffffffffffffffffff19166fffffffffffffffffffffffffffffffff191681526020016003820160009054906101000a900460401b67ffffffffffffffff191667ffffffffffffffff19168152602001600482015481526020016005820154815250509050610bc1610b33610b2e61016942610b2961087e565b611caa565b611cf0565b610b4f610b4a61016944610b4561087e565b611caa565b611cf0565b836000015184606001518560a001518660c0015187608001518860e00151610b95610b90610169446001610b8161087e565b610b8b9190613e8e565b611caa565b611cf0565b604051602001610bad99989796959493929190613807565b604051602081830303815290604052611e9d565b915050919050565b6000610bd483611112565b8210610c15576040517f08c379a0000000000000000000000000000000000000000000000000000000008152600401610c0c90613b11565b60405180910390fd5b600660008473ffffffffffffffffffffffffffffffffffffffff1673ffffffffffffffffffffffffffffffffffffffff168152602001908152602001600020600083815260200190815260200160002054905092915050565b610c766118a4565b73ffffffffffffffffffffffffffffffffffffffff16610c94611252565b73ffffffffffffffffffffffffffffffffffffffff1614610cea576040517f08c379a0000000000000000000000000000000000000000000000000000000008152600401610ce190613cb1565b60405180910390fd5b6000610cf4611252565b73ffffffffffffffffffffffffffffffffffffffff1647604051610d1790613a0a565b60006040518083038185875af1925050503d8060008114610d54576040519150601f19603f3d011682016040523d82523d6000602084013e610d59565b606091505b5050905080610d6757600080fd5b50565b610d8583838360405180602001604052806000815250611324565b505050565b6000610d9461087e565b8210610dd5576040517f08c379a0000000000000000000000000000000000000000000000000000000008152600401610dcc90613d31565b60405180910390fd5b60088281548110610e0f577f4e487b7100000000000000000000000000000000000000000000000000000000600052603260045260246000fd5b90600052602060002001549050919050565b6000806002600084815260200190815260200160002060009054906101000a900473ffffffffffffffffffffffffffffffffffffffff169050600073ffffffffffffffffffffffffffffffffffffffff168173ffffffffffffffffffffffffffffffffffffffff161415610eca576040517f08c379a0000000000000000000000000000000000000000000000000000000008152600401610ec190613c51565b60405180910390fd5b80915050919050565b6000610edd61087e565b90506000604051806101000160405280600184610efa9190613e8e565b81526020013373ffffffffffffffffffffffffffffffffffffffff1681526020017f2320544e4654202300000000000000000000000000000000000000000000000077ffffffffffffffffffffffffffffffffffffffffffffffff19168152602001886fffffffffffffffffffffffffffffffff19168152602001876fffffffffffffffffffffffffffffffff191681526020018667ffffffffffffffff1916815260200185815260200184815250905080600b6000600185610fbd9190613e8e565b81526020019081526020016000206000820151816000015560208201518160010160006101000a81548173ffffffffffffffffffffffffffffffffffffffff021916908373ffffffffffffffffffffffffffffffffffffffff16021790555060408201518160010160146101000a81548167ffffffffffffffff021916908360c01c021790555060608201518160020160006101000a8154816fffffffffffffffffffffffffffffffff021916908360801c021790555060808201518160020160106101000a8154816fffffffffffffffffffffffffffffffff021916908360801c021790555060a08201518160030160006101000a81548177ffffffffffffffffffffffffffffffffffffffffffffffff021916908360401c021790555060c0820151816004015560e08201518160050155905050611109336001846111049190613e8e565b612048565b50505050505050565b60008073ffffffffffffffffffffffffffffffffffffffff168273ffffffffffffffffffffffffffffffffffffffff161415611183576040517f08c379a000000000000000000000000000000000000000000000000000000000815260040161117a90613c31565b60405180910390fd5b600360008373ffffffffffffffffffffffffffffffffffffffff1673ffffffffffffffffffffffffffffffffffffffff168152602001908152602001600020549050919050565b6111d26118a4565b73ffffffffffffffffffffffffffffffffffffffff166111f0611252565b73ffffffffffffffffffffffffffffffffffffffff1614611246576040517f08c379a000000000000000000000000000000000000000000000000000000000815260040161123d90613cb1565b60405180910390fd5b6112506000612066565b565b6000600a60009054906101000a900473ffffffffffffffffffffffffffffffffffffffff16905090565b60606001805461128b906140e7565b80601f01602080910402602001604051908101604052809291908181526020018280546112b7906140e7565b80156113045780601f106112d957610100808354040283529160200191611304565b820191906000526020600020905b8154815290600101906020018083116112e757829003601f168201915b5050505050905090565b6113206113196118a4565b838361212c565b5050565b61133561132f6118a4565b83611965565b611374576040517f08c379a000000000000000000000000000000000000000000000000000000000815260040161136b90613d11565b60405180910390fd5b61138084848484612299565b50505050565b606061139182611838565b6113d0576040517f08c379a00000000000000000000000000000000000000000000000000000000081526004016113c790613cd1565b60405180910390fd5b6113d982611474565b9050919050565b6000600560008473ffffffffffffffffffffffffffffffffffffffff1673ffffffffffffffffffffffffffffffffffffffff16815260200190815260200160002060008373ffffffffffffffffffffffffffffffffffffffff1673ffffffffffffffffffffffffffffffffffffffff16815260200190815260200160002060009054906101000a900460ff16905092915050565b60606000600b600084815260200190815260200160002060405180610100016040529081600082015481526020016001820160009054906101000a900473ffffffffffffffffffffffffffffffffffffffff1673ffffffffffffffffffffffffffffffffffffffff1673ffffffffffffffffffffffffffffffffffffffff1681526020016001820160149054906101000a900460c01b77ffffffffffffffffffffffffffffffffffffffffffffffff191677ffffffffffffffffffffffffffffffffffffffffffffffff191681526020016002820160009054906101000a900460801b6fffffffffffffffffffffffffffffffff19166fffffffffffffffffffffffffffffffff191681526020016002820160109054906101000a900460801b6fffffffffffffffffffffffffffffffff19166fffffffffffffffffffffffffffffffff191681526020016003820160009054906101000a900460401b67ffffffffffffffff191667ffffffffffffffff19168152602001600482015481526020016005820154815250509050611637816040015161161285610987565b6040516020016116239291906137b3565b604051602081830303815290604052611e9d565b60405160200161164791906139e8565b604051602081830303815290604052915050919050565b6116666118a4565b73ffffffffffffffffffffffffffffffffffffffff16611684611252565b73ffffffffffffffffffffffffffffffffffffffff16146116da576040517f08c379a00000000000000000000000000000000000000000000000000000000081526004016116d190613cb1565b60405180910390fd5b600073ffffffffffffffffffffffffffffffffffffffff168173ffffffffffffffffffffffffffffffffffffffff16141561174a576040517f08c379a000000000000000000000000000000000000000000000000000000000815260040161174190613b51565b60405180910390fd5b61175381612066565b50565b60007f80ac58cd000000000000000000000000000000000000000000000000000000007bffffffffffffffffffffffffffffffffffffffffffffffffffffffff1916827bffffffffffffffffffffffffffffffffffffffffffffffffffffffff1916148061182157507f5b5e139f000000000000000000000000000000000000000000000000000000007bffffffffffffffffffffffffffffffffffffffffffffffffffffffff1916827bffffffffffffffffffffffffffffffffffffffffffffffffffffffff1916145b806118315750611830826122f5565b5b9050919050565b60008073ffffffffffffffffffffffffffffffffffffffff166002600084815260200190815260200160002060009054906101000a900473ffffffffffffffffffffffffffffffffffffffff1673ffffffffffffffffffffffffffffffffffffffff1614159050919050565b600033905090565b816004600083815260200190815260200160002060006101000a81548173ffffffffffffffffffffffffffffffffffffffff021916908373ffffffffffffffffffffffffffffffffffffffff160217905550808273ffffffffffffffffffffffffffffffffffffffff1661191f83610e21565b73ffffffffffffffffffffffffffffffffffffffff167f8c5be1e5ebec7d5bd14f71427d1e84f3dd0314c0f7b2291e5b200ac8c7c3b92560405160405180910390a45050565b600061197082611838565b6119af576040517f08c379a00000000000000000000000000000000000000000000000000000000081526004016119a690613bf1565b60405180910390fd5b60006119ba83610e21565b90508073ffffffffffffffffffffffffffffffffffffffff168473ffffffffffffffffffffffffffffffffffffffff161480611a2957508373ffffffffffffffffffffffffffffffffffffffff16611a11846106e1565b73ffffffffffffffffffffffffffffffffffffffff16145b80611a3a5750611a3981856113e0565b5b91505092915050565b8273ffffffffffffffffffffffffffffffffffffffff16611a6382610e21565b73ffffffffffffffffffffffffffffffffffffffff1614611ab9576040517f08c379a0000000000000000000000000000000000000000000000000000000008152600401611ab090613b71565b60405180910390fd5b600073ffffffffffffffffffffffffffffffffffffffff168273ffffffffffffffffffffffffffffffffffffffff161415611b29576040517f08c379a0000000000000000000000000000000000000000000000000000000008152600401611b2090613bb1565b60405180910390fd5b611b3483838361235f565b611b3f6000826118ac565b6001600360008573ffffffffffffffffffffffffffffffffffffffff1673ffffffffffffffffffffffffffffffffffffffff1681526020019081526020016000206000828254611b8f9190613f6f565b925050819055506001600360008473ffffffffffffffffffffffffffffffffffffffff1673ffffffffffffffffffffffffffffffffffffffff1681526020019081526020016000206000828254611be69190613e8e565b92505081905550816002600083815260200190815260200160002060006101000a81548173ffffffffffffffffffffffffffffffffffffffff021916908373ffffffffffffffffffffffffffffffffffffffff160217905550808273ffffffffffffffffffffffffffffffffffffffff168473ffffffffffffffffffffffffffffffffffffffff167fddf252ad1be2c89b69c2b068fc378daa952ba7f163c4a11628f55a4df523b3ef60405160405180910390a4611ca5838383612473565b505050565b60008342338585604051602001611cc49493929190613a1f565b6040516020818303038152906040528051906020012060001c611ce791906141e9565b90509392505050565b60606000821415611d38576040518060400160405280600181526020017f30000000000000000000000000000000000000000000000000000000000000008152509050611e98565b600082905060005b60008214611d6a578080611d539061414a565b915050600a82611d639190613ee4565b9150611d40565b60008167ffffffffffffffff811115611dac577f4e487b7100000000000000000000000000000000000000000000000000000000600052604160045260246000fd5b6040519080825280601f01601f191660200182016040528015611dde5781602001600182028036833780820191505090505b5090505b60008514611e9157600182611df79190613f6f565b9150600a85611e0691906141e9565b6030611e129190613e8e565b60f81b818381518110611e4e577f4e487b7100000000000000000000000000000000000000000000000000000000600052603260045260246000fd5b60200101907effffffffffffffffffffffffffffffffffffffffffffffffffffffffffffff1916908160001a905350600a85611e8a9190613ee4565b9450611de2565b8093505050505b919050565b6060600082511415611ec057604051806020016040528060008152509050612043565b60006040518060600160405280604081526020016155386040913990506000600360028551611eef9190613e8e565b611ef99190613ee4565b6004611f059190613f15565b90506000602082611f169190613e8e565b67ffffffffffffffff811115611f55577f4e487b7100000000000000000000000000000000000000000000000000000000600052604160045260246000fd5b6040519080825280601f01601f191660200182016040528015611f875781602001600182028036833780820191505090505b509050818152600183018586518101602084015b81831015612002576003830192508251603f8160121c1685015160f81b8252600182019150603f81600c1c1685015160f81b8252600182019150603f8160061c1685015160f81b8252600182019150603f811685015160f81b825260018201915050611f9b565b60038951066001811461201c576002811461202c57612037565b613d3d60f01b6002830352612037565b603d60f81b60018303525b50505050508093505050505b919050565b612062828260405180602001604052806000815250612478565b5050565b6000600a60009054906101000a900473ffffffffffffffffffffffffffffffffffffffff16905081600a60006101000a81548173ffffffffffffffffffffffffffffffffffffffff021916908373ffffffffffffffffffffffffffffffffffffffff1602179055508173ffffffffffffffffffffffffffffffffffffffff168173ffffffffffffffffffffffffffffffffffffffff167f8be0079c531659141344cd1fd0a4f28419497f9722a3daafe3b4186f6b6457e060405160405180910390a35050565b8173ffffffffffffffffffffffffffffffffffffffff168373ffffffffffffffffffffffffffffffffffffffff16141561219b576040517f08c379a000000000000000000000000000000000000000000000000000000000815260040161219290613bd1565b60405180910390fd5b80600560008573ffffffffffffffffffffffffffffffffffffffff1673ffffffffffffffffffffffffffffffffffffffff16815260200190815260200160002060008473ffffffffffffffffffffffffffffffffffffffff1673ffffffffffffffffffffffffffffffffffffffff16815260200190815260200160002060006101000a81548160ff0219169083151502179055508173ffffffffffffffffffffffffffffffffffffffff168373ffffffffffffffffffffffffffffffffffffffff167f17307eab39ab6107e8899845ad3d59bd9653f200f220920489ca2b5937696c318360405161228c9190613ad4565b60405180910390a3505050565b6122a4848484611a43565b6122b0848484846124d3565b6122ef576040517f08c379a00000000000000000000000000000000000000000000000000000000081526004016122e690613b31565b60405180910390fd5b50505050565b60007f01ffc9a7000000000000000000000000000000000000000000000000000000007bffffffffffffffffffffffffffffffffffffffffffffffffffffffff1916827bffffffffffffffffffffffffffffffffffffffffffffffffffffffff1916149050919050565b61236a83838361266a565b600073ffffffffffffffffffffffffffffffffffffffff168373ffffffffffffffffffffffffffffffffffffffff1614156123ad576123a88161266f565b6123ec565b8173ffffffffffffffffffffffffffffffffffffffff168373ffffffffffffffffffffffffffffffffffffffff16146123eb576123ea83826126b8565b5b5b600073ffffffffffffffffffffffffffffffffffffffff168273ffffffffffffffffffffffffffffffffffffffff16141561242f5761242a81612825565b61246e565b8273ffffffffffffffffffffffffffffffffffffffff168273ffffffffffffffffffffffffffffffffffffffff161461246d5761246c8282612968565b5b5b505050565b505050565b61248283836129e7565b61248f60008484846124d3565b6124ce576040517f08c379a00000000000000000000000000000000000000000000000000000000081526004016124c590613b31565b60405180910390fd5b505050565b60006124f48473ffffffffffffffffffffffffffffffffffffffff16612bc1565b1561265d578373ffffffffffffffffffffffffffffffffffffffff1663150b7a0261251d6118a4565b8786866040518563ffffffff1660e01b815260040161253f9493929190613a88565b602060405180830381600087803b15801561255957600080fd5b505af192505050801561258a57506040513d601f19601f820116820180604052508101906125879190612f3b565b60015b61260d573d80600081146125ba576040519150601f19603f3d011682016040523d82523d6000602084013e6125bf565b606091505b50600081511415612605576040517f08c379a00000000000000000000000000000000000000000000000000000000081526004016125fc90613b31565b60405180910390fd5b805181602001fd5b63150b7a0260e01b7bffffffffffffffffffffffffffffffffffffffffffffffffffffffff1916817bffffffffffffffffffffffffffffffffffffffffffffffffffffffff191614915050612662565b600190505b949350505050565b505050565b6008805490506009600083815260200190815260200160002081905550600881908060018154018082558091505060019003906000526020600020016000909190919091505550565b600060016126c584611112565b6126cf9190613f6f565b90506000600760008481526020019081526020016000205490508181146127b4576000600660008673ffffffffffffffffffffffffffffffffffffffff1673ffffffffffffffffffffffffffffffffffffffff168152602001908152602001600020600084815260200190815260200160002054905080600660008773ffffffffffffffffffffffffffffffffffffffff1673ffffffffffffffffffffffffffffffffffffffff168152602001908152602001600020600084815260200190815260200160002081905550816007600083815260200190815260200160002081905550505b6007600084815260200190815260200160002060009055600660008573ffffffffffffffffffffffffffffffffffffffff1673ffffffffffffffffffffffffffffffffffffffff16815260200190815260200160002060008381526020019081526020016000206000905550505050565b600060016008805490506128399190613f6f565b905060006009600084815260200190815260200160002054905060006008838154811061288f577f4e487b7100000000000000000000000000000000000000000000000000000000600052603260045260246000fd5b9060005260206000200154905080600883815481106128d7577f4e487b7100000000000000000000000000000000000000000000000000000000600052603260045260246000fd5b90600052602060002001819055508160096000838152602001908152602001600020819055506009600085815260200190815260200160002060009055600880548061294c577f4e487b7100000000000000000000000000000000000000000000000000000000600052603160045260246000fd5b6001900381819060005260206000200160009055905550505050565b600061297383611112565b905081600660008573ffffffffffffffffffffffffffffffffffffffff1673ffffffffffffffffffffffffffffffffffffffff168152602001908152602001600020600083815260200190815260200160002081905550806007600084815260200190815260200160002081905550505050565b600073ffffffffffffffffffffffffffffffffffffffff168273ffffffffffffffffffffffffffffffffffffffff161415612a57576040517f08c379a0000000000000000000000000000000000000000000000000000000008152600401612a4e90613c71565b60405180910390fd5b612a6081611838565b15612aa0576040517f08c379a0000000000000000000000000000000000000000000000000000000008152600401612a9790613b91565b60405180910390fd5b612aac6000838361235f565b6001600360008473ffffffffffffffffffffffffffffffffffffffff1673ffffffffffffffffffffffffffffffffffffffff1681526020019081526020016000206000828254612afc9190613e8e565b92505081905550816002600083815260200190815260200160002060006101000a81548173ffffffffffffffffffffffffffffffffffffffff021916908373ffffffffffffffffffffffffffffffffffffffff160217905550808273ffffffffffffffffffffffffffffffffffffffff16600073ffffffffffffffffffffffffffffffffffffffff167fddf252ad1be2c89b69c2b068fc378daa952ba7f163c4a11628f55a4df523b3ef60405160405180910390a4612bbd60008383612473565b5050565b6000808273ffffffffffffffffffffffffffffffffffffffff163b119050919050565b6000612bf7612bf284613e0f565b613dea565b905082815260208101848484011115612c0f57600080fd5b612c1a8482856140a5565b509392505050565b600081359050612c3181615496565b92915050565b600081359050612c46816154ad565b92915050565b600081359050612c5b816154c4565b92915050565b600081359050612c70816154db565b92915050565b600081359050612c85816154f2565b92915050565b600081359050612c9a81615509565b92915050565b600081519050612caf81615509565b92915050565b600082601f830112612cc657600080fd5b8135612cd6848260208601612be4565b91505092915050565b600081359050612cee81615520565b92915050565b600060208284031215612d0657600080fd5b6000612d1484828501612c22565b91505092915050565b60008060408385031215612d3057600080fd5b6000612d3e85828601612c22565b9250506020612d4f85828601612c22565b9150509250929050565b600080600060608486031215612d6e57600080fd5b6000612d7c86828701612c22565b9350506020612d8d86828701612c22565b9250506040612d9e86828701612cdf565b9150509250925092565b60008060008060808587031215612dbe57600080fd5b6000612dcc87828801612c22565b9450506020612ddd87828801612c22565b9350506040612dee87828801612cdf565b925050606085013567ffffffffffffffff811115612e0b57600080fd5b612e1787828801612cb5565b91505092959194509250565b60008060408385031215612e3657600080fd5b6000612e4485828601612c22565b9250506020612e5585828601612c37565b9150509250929050565b60008060408385031215612e7257600080fd5b6000612e8085828601612c22565b9250506020612e9185828601612cdf565b9150509250929050565b600080600080600060a08688031215612eb357600080fd5b6000612ec188828901612c4c565b9550506020612ed288828901612c4c565b9450506040612ee388828901612c61565b9350506060612ef488828901612c76565b9250506080612f0588828901612c76565b9150509295509295909350565b600060208284031215612f2457600080fd5b6000612f3284828501612c8b565b91505092915050565b600060208284031215612f4d57600080fd5b6000612f5b84828501612ca0565b91505092915050565b600060208284031215612f7657600080fd5b6000612f8484828501612cdf565b91505092915050565b612f9681613fa3565b82525050565b612fad612fa882613fa3565b614193565b82525050565b612fbc81613fb5565b82525050565b612fcb81613fc1565b82525050565b612fe2612fdd82613fc1565b6141a5565b82525050565b612ff181613fed565b82525050565b61300861300382613fed565b6141af565b82525050565b61301781614019565b82525050565b61302e61302982614019565b6141b9565b82525050565b61303d8161404f565b82525050565b61305461304f8261404f565b6141c3565b82525050565b600061306582613e40565b61306f8185613e56565b935061307f8185602086016140b4565b613088816142d6565b840191505092915050565b600061309e82613e4b565b6130a88185613e72565b93506130b88185602086016140b4565b6130c1816142d6565b840191505092915050565b60006130d782613e4b565b6130e18185613e83565b93506130f18185602086016140b4565b80840191505092915050565b600061310a606e83613e83565b9150613115826142f4565b606e82019050919050565b600061312d600983613e83565b91506131388261438f565b600982019050919050565b6000613150606883613e83565b915061315b826143b8565b606882019050919050565b6000613173602b83613e72565b915061317e82614453565b604082019050919050565b6000613196602f83613e83565b91506131a1826144a2565b602f82019050919050565b60006131b9603283613e72565b91506131c4826144f1565b604082019050919050565b60006131dc608583613e83565b91506131e782614540565b608582019050919050565b60006131ff604183613e83565b915061320a82614601565b604182019050919050565b6000613222602683613e72565b915061322d82614676565b604082019050919050565b6000613245602583613e72565b9150613250826146c5565b604082019050919050565b6000613268601c83613e72565b915061327382614714565b602082019050919050565b600061328b606783613e83565b91506132968261473d565b606782019050919050565b60006132ae606f83613e83565b91506132b9826147d8565b606f82019050919050565b60006132d1603383613e83565b91506132dc82614873565b603382019050919050565b60006132f4602483613e72565b91506132ff826148c2565b604082019050919050565b6000613317601983613e72565b915061332282614911565b602082019050919050565b600061333a602c83613e72565b91506133458261493a565b604082019050919050565b600061335d607a83613e83565b915061336882614989565b607a82019050919050565b6000613380601083613e83565b915061338b82614a24565b601082019050919050565b60006133a3603883613e72565b91506133ae82614a4d565b604082019050919050565b60006133c6602a83613e72565b91506133d182614a9c565b604082019050919050565b60006133e9602983613e72565b91506133f482614aeb565b604082019050919050565b600061340c606f83613e83565b915061341782614b3a565b606f82019050919050565b600061342f606883613e83565b915061343a82614bd5565b606882019050919050565b6000613452607383613e83565b915061345d82614c70565b607382019050919050565b6000613475600283613e83565b915061348082614d0b565b600282019050919050565b6000613498606f83613e83565b91506134a382614d34565b606f82019050919050565b60006134bb600783613e83565b91506134c682614dcf565b600782019050919050565b60006134de602083613e72565b91506134e982614df8565b602082019050919050565b6000613501600d83613e83565b915061350c82614e21565b600d82019050919050565b6000613524602c83613e72565b915061352f82614e4a565b604082019050919050565b6000613547602083613e72565b915061355282614e99565b602082019050919050565b600061356a602f83613e72565b915061357582614ec2565b604082019050919050565b600061358d602183613e72565b915061359882614f11565b604082019050919050565b60006135b0601d83613e83565b91506135bb82614f60565b601d82019050919050565b60006135d3606c83613e83565b91506135de82614f89565b606c82019050919050565b60006135f6600083613e67565b915061360182615024565b600082019050919050565b6000613619603183613e72565b915061362482615027565b604082019050919050565b600061363c602f83613e83565b915061364782615076565b602f82019050919050565b600061365f602c83613e72565b915061366a826150c5565b604082019050919050565b6000613682606883613e83565b915061368d82615114565b606882019050919050565b60006136a5606883613e83565b91506136b0826151af565b606882019050919050565b60006136c8606883613e83565b91506136d38261524a565b606882019050919050565b60006136eb600883613e83565b91506136f6826152e5565b600882019050919050565b600061370e600683613e83565b91506137198261530e565b600682019050919050565b6000613731607783613e83565b915061373c82615337565b607782019050919050565b6000613754601a83613e83565b915061375f826153d2565b601a82019050919050565b6000613777607283613e83565b9150613782826153fb565b607282019050919050565b6137968161409b565b82525050565b6137ad6137a88261409b565b6141df565b82525050565b60006137be82613120565b91506137ca8285613043565b6008820191506137d9826134f4565b91506137e482613747565b91506137f082846130cc565b91506137fb82613468565b91508190509392505050565b6000613812826131f2565b915061381d82613373565b9150613829828c6130cc565b9150613834826132c4565b915061383f82613373565b915061384b828b6130cc565b91506138568261362f565b915061386182613350565b915061386c826133ff565b91506138778261327e565b9150613883828a61379c565b602082019150613892826134ae565b915061389d826135c6565b91506138a882613675565b91506138b48289612fd1565b6010820191506138c3826134ae565b91506138ce826132a1565b91506138d982613698565b91506138e58288612ff7565b6018820191506138f4826134ae565b91506138ff8261348b565b915061390a82613422565b9150613916828761301d565b602082019150613925826134ae565b915061393082613724565b915061393b826136bb565b91506139478286612fd1565b601082019150613956826136de565b91506139618261376a565b915061396c82613143565b9150613978828561301d565b602082019150613987826134ae565b915061399282613373565b915061399e82846130cc565b91506139a982613189565b91506139b4826130fd565b91506139bf826131cf565b91506139ca82613445565b91506139d582613701565b91508190509a9950505050505050505050565b60006139f3826135a3565b91506139ff82846130cc565b915081905092915050565b6000613a15826135e9565b9150819050919050565b6000613a2b828761379c565b602082019150613a3b8286612f9c565b601482019150613a4b828561379c565b602082019150613a5b828461379c565b60208201915081905095945050505050565b6000602082019050613a826000830184612f8d565b92915050565b6000608082019050613a9d6000830187612f8d565b613aaa6020830186612f8d565b613ab7604083018561378d565b8181036060830152613ac9818461305a565b905095945050505050565b6000602082019050613ae96000830184612fb3565b92915050565b60006020820190508181036000830152613b098184613093565b905092915050565b60006020820190508181036000830152613b2a81613166565b9050919050565b60006020820190508181036000830152613b4a816131ac565b9050919050565b60006020820190508181036000830152613b6a81613215565b9050919050565b60006020820190508181036000830152613b8a81613238565b9050919050565b60006020820190508181036000830152613baa8161325b565b9050919050565b60006020820190508181036000830152613bca816132e7565b9050919050565b60006020820190508181036000830152613bea8161330a565b9050919050565b60006020820190508181036000830152613c0a8161332d565b9050919050565b60006020820190508181036000830152613c2a81613396565b9050919050565b60006020820190508181036000830152613c4a816133b9565b9050919050565b60006020820190508181036000830152613c6a816133dc565b9050919050565b60006020820190508181036000830152613c8a816134d1565b9050919050565b60006020820190508181036000830152613caa81613517565b9050919050565b60006020820190508181036000830152613cca8161353a565b9050919050565b60006020820190508181036000830152613cea8161355d565b9050919050565b60006020820190508181036000830152613d0a81613580565b9050919050565b60006020820190508181036000830152613d2a8161360c565b9050919050565b60006020820190508181036000830152613d4a81613652565b9050919050565b6000602082019050613d66600083018461378d565b92915050565b600061010082019050613d82600083018b61378d565b613d8f602083018a612f8d565b613d9c6040830189613034565b613da96060830188612fc2565b613db66080830187612fc2565b613dc360a0830186612fe8565b613dd060c083018561300e565b613ddd60e083018461300e565b9998505050505050505050565b6000613df4613e05565b9050613e008282614119565b919050565b6000604051905090565b600067ffffffffffffffff821115613e2a57613e296142a7565b5b613e33826142d6565b9050602081019050919050565b600081519050919050565b600081519050919050565b600082825260208201905092915050565b600081905092915050565b600082825260208201905092915050565b600081905092915050565b6000613e998261409b565b9150613ea48361409b565b9250827fffffffffffffffffffffffffffffffffffffffffffffffffffffffffffffffff03821115613ed957613ed861421a565b5b828201905092915050565b6000613eef8261409b565b9150613efa8361409b565b925082613f0a57613f09614249565b5b828204905092915050565b6000613f208261409b565b9150613f2b8361409b565b9250817fffffffffffffffffffffffffffffffffffffffffffffffffffffffffffffffff0483118215151615613f6457613f6361421a565b5b828202905092915050565b6000613f7a8261409b565b9150613f858361409b565b925082821015613f9857613f9761421a565b5b828203905092915050565b6000613fae8261407b565b9050919050565b60008115159050919050565b60007fffffffffffffffffffffffffffffffff0000000000000000000000000000000082169050919050565b60007fffffffffffffffffffffffffffffffffffffffffffffffff000000000000000082169050919050565b6000819050919050565b60007fffffffff0000000000000000000000000000000000000000000000000000000082169050919050565b60007fffffffffffffffff00000000000000000000000000000000000000000000000082169050919050565b600073ffffffffffffffffffffffffffffffffffffffff82169050919050565b6000819050919050565b82818337600083830152505050565b60005b838110156140d25780820151818401526020810190506140b7565b838111156140e1576000848401525b50505050565b600060028204905060018216806140ff57607f821691505b6020821081141561411357614112614278565b5b50919050565b614122826142d6565b810181811067ffffffffffffffff82111715614141576141406142a7565b5b80604052505050565b60006141558261409b565b91507fffffffffffffffffffffffffffffffffffffffffffffffffffffffffffffffff8214156141885761418761421a565b5b600182019050919050565b600061419e826141cd565b9050919050565b6000819050919050565b6000819050919050565b6000819050919050565b6000819050919050565b60006141d8826142e7565b9050919050565b6000819050919050565b60006141f48261409b565b91506141ff8361409b565b92508261420f5761420e614249565b5b828206905092915050565b7f4e487b7100000000000000000000000000000000000000000000000000000000600052601160045260246000fd5b7f4e487b7100000000000000000000000000000000000000000000000000000000600052601260045260246000fd5b7f4e487b7100000000000000000000000000000000000000000000000000000000600052602260045260246000fd5b7f4e487b7100000000000000000000000000000000000000000000000000000000600052604160045260246000fd5b6000601f19601f8301169050919050565b60008160601b9050919050565b7f3c7465787420783d22372220793d223234302e323433392220666f6e742d736960008201527f7a653d2231332220666f6e742d66616d696c793d22436f7572696572204e657760208201527f2c206d6f6e6f73706163652220666f6e742d7765696768743d22626f6c64223e60408201527f5361686962693a3c2f746578743e000000000000000000000000000000000000606082015250565b7f7b226e616d65223a220000000000000000000000000000000000000000000000600082015250565b7f3c7465787420783d2239352e33333333332220793d223138362e33333333332260008201527f20666f6e742d73697a653d2231332220666f6e742d66616d696c793d22436f7560208201527f72696572204e65772c206d6f6e6f73706163652220666f6e742d77656967687460408201527f3d22626f6c64223e000000000000000000000000000000000000000000000000606082015250565b7f455243373231456e756d657261626c653a206f776e657220696e646578206f7560008201527f74206f6620626f756e6473000000000000000000000000000000000000000000602082015250565b7f2c20313030252c20363025292220793d22323230222077696474683d2233303060008201527f22206865696768743d223830222f3e0000000000000000000000000000000000602082015250565b7f4552433732313a207472616e7366657220746f206e6f6e20455243373231526560008201527f63656976657220696d706c656d656e7465720000000000000000000000000000602082015250565b7f3c7465787420783d22372220793d223236302e343837382220666f6e742d736960008201527f7a653d2231332220666f6e742d66616d696c793d22436f7572696572204e657760208201527f2c206d6f6e6f73706163652220666f6e742d7765696768743d22626f6c64223e60408201527f3078303030303030303030303030303030303030303030303030303030303c2f60608201527f746578743e000000000000000000000000000000000000000000000000000000608082015250565b7f3c7376672077696474683d2233303022206865696768743d223330302220786d60008201527f6c6e733d22687474703a2f2f7777772e77332e6f72672f323030302f7376672260208201527f3e00000000000000000000000000000000000000000000000000000000000000604082015250565b7f4f776e61626c653a206e6577206f776e657220697320746865207a65726f206160008201527f6464726573730000000000000000000000000000000000000000000000000000602082015250565b7f4552433732313a207472616e736665722066726f6d20696e636f72726563742060008201527f6f776e6572000000000000000000000000000000000000000000000000000000602082015250565b7f4552433732313a20746f6b656e20616c7265616479206d696e74656400000000600082015250565b7f3c7465787420783d2239352e33333333332220793d2238352e3836393932222060008201527f666f6e742d73697a653d2231332220666f6e742d66616d696c793d22436f757260208201527f696572204e65772c206d6f6e6f73706163652220666f6e742d7765696768743d60408201527f22626f6c64223e00000000000000000000000000000000000000000000000000606082015250565b7f3c7465787420783d22372220793d223132352e38323131332220666f6e742d7360008201527f697a653d2231332220666f6e742d66616d696c793d22436f7572696572204e6560208201527f772c206d6f6e6f73706163652220666f6e742d7765696768743d22626f6c642260408201527f3ec4b06cc3a7653a3c2f746578743e0000000000000000000000000000000000606082015250565b7f2c20313030252c20363025292220783d22302220793d2230222077696474683d60008201527f2233303022206865696768743d223530222f3e00000000000000000000000000602082015250565b7f4552433732313a207472616e7366657220746f20746865207a65726f2061646460008201527f7265737300000000000000000000000000000000000000000000000000000000602082015250565b7f4552433732313a20617070726f766520746f2063616c6c657200000000000000600082015250565b7f4552433732313a206f70657261746f7220717565727920666f72206e6f6e657860008201527f697374656e7420746f6b656e0000000000000000000000000000000000000000602082015250565b7f3c7465787420783d2237392e35323038342220793d2233322e3331373037222060008201527f666f6e742d73697a653d2232342220666f6e742d66616d696c793d22436f757260208201527f696572204e65772c206d6f6e6f73706163652220666f6e742d7765696768743d60408201527f22626f6c64223e544150552053454e4544c4b03c2f746578743e000000000000606082015250565b7f3c726563742066696c6c3d2268736c2800000000000000000000000000000000600082015250565b7f4552433732313a20617070726f76652063616c6c6572206973206e6f74206f7760008201527f6e6572206e6f7220617070726f76656420666f7220616c6c0000000000000000602082015250565b7f4552433732313a2062616c616e636520717565727920666f7220746865207a6560008201527f726f206164647265737300000000000000000000000000000000000000000000602082015250565b7f4552433732313a206f776e657220717565727920666f72206e6f6e657869737460008201527f656e7420746f6b656e0000000000000000000000000000000000000000000000602082015250565b7f3c7465787420783d22372220793d2238352e33383231312220666f6e742d736960008201527f7a653d2231332220666f6e742d66616d696c793d22436f7572696572204e657760208201527f2c206d6f6e6f73706163652220666f6e742d7765696768743d22626f6c64223e60408201527f54617075204e6f3a3c2f746578743e0000000000000000000000000000000000606082015250565b7f3c7465787420783d2239352e33333333332220793d223134352e38323131332260008201527f20666f6e742d73697a653d2231332220666f6e742d66616d696c793d22436f7560208201527f72696572204e65772c206d6f6e6f73706163652220666f6e742d77656967687460408201527f3d22626f6c64223e000000000000000000000000000000000000000000000000606082015250565b7f3c7465787420783d22372220793d223238302e343837382220666f6e742d736960008201527f7a653d2231332220666f6e742d66616d696c793d22436f7572696572204e657760208201527f2c206d6f6e6f73706163652220666f6e742d7765696768743d22626f6c64223e60408201527f4661746968204261796b616c3c2f746578743e00000000000000000000000000606082015250565b7f227d000000000000000000000000000000000000000000000000000000000000600082015250565b7f3c7465787420783d22372220793d223134352e383634352220666f6e742d736960008201527f7a653d2231332220666f6e742d66616d696c793d22436f7572696572204e657760208201527f2c206d6f6e6f73706163652220666f6e742d7765696768743d22626f6c64223e60408201527f4d6168616c6c653a3c2f746578743e0000000000000000000000000000000000606082015250565b7f3c2f746578743e00000000000000000000000000000000000000000000000000600082015250565b7f4552433732313a206d696e7420746f20746865207a65726f2061646472657373600082015250565b7f222c2022696d616765223a202200000000000000000000000000000000000000600082015250565b7f4552433732313a20617070726f76656420717565727920666f72206e6f6e657860008201527f697374656e7420746f6b656e0000000000000000000000000000000000000000602082015250565b7f4f776e61626c653a2063616c6c6572206973206e6f7420746865206f776e6572600082015250565b7f4552433732314d657461646174613a2055524920717565727920666f72206e6f60008201527f6e6578697374656e7420746f6b656e0000000000000000000000000000000000602082015250565b7f4552433732313a20617070726f76616c20746f2063757272656e74206f776e6560008201527f7200000000000000000000000000000000000000000000000000000000000000602082015250565b7f646174613a6170706c69636174696f6e2f6a736f6e3b6261736536342c000000600082015250565b7f3c7465787420783d22372220793d223130352e38323131332220666f6e742d7360008201527f697a653d2231332220666f6e742d66616d696c793d22436f7572696572204e6560208201527f772c206d6f6e6f73706163652220666f6e742d7765696768743d22626f6c642260408201527f3ec4b06c3a3c2f746578743e0000000000000000000000000000000000000000606082015250565b50565b7f4552433732313a207472616e736665722063616c6c6572206973206e6f74206f60008201527f776e6572206e6f7220617070726f766564000000000000000000000000000000602082015250565b7f2c20313030252c20363025292220793d223530222077696474683d223330302260008201527f206865696768743d22313730222f3e0000000000000000000000000000000000602082015250565b7f455243373231456e756d657261626c653a20676c6f62616c20696e646578206f60008201527f7574206f6620626f756e64730000000000000000000000000000000000000000602082015250565b7f3c7465787420783d2239352e33333333332220793d223130352e38323131332260008201527f20666f6e742d73697a653d2231332220666f6e742d66616d696c793d22436f7560208201527f72696572204e65772c206d6f6e6f73706163652220666f6e742d77656967687460408201527f3d22626f6c64223e000000000000000000000000000000000000000000000000606082015250565b7f3c7465787420783d2239352e33333333332220793d223132352e38323131332260008201527f20666f6e742d73697a653d2231332220666f6e742d66616d696c793d22436f7560208201527f72696572204e65772c206d6f6e6f73706163652220666f6e742d77656967687460408201527f3d22626f6c64223e000000000000000000000000000000000000000000000000606082015250565b7f3c7465787420783d2239352e33333333332220793d223136362e33333333332260008201527f20666f6e742d73697a653d2231332220666f6e742d66616d696c793d22436f7560208201527f72696572204e65772c206d6f6e6f73706163652220666f6e742d77656967687460408201527f3d22626f6c64223e000000000000000000000000000000000000000000000000606082015250565b7f703c2f746578743e000000000000000000000000000000000000000000000000600082015250565b7f3c2f7376673e0000000000000000000000000000000000000000000000000000600082015250565b7f3c7465787420783d22372220793d223136362e33333333332220666f6e742d7360008201527f697a653d2231332220666f6e742d66616d696c793d22436f7572696572204e6560208201527f772c206d6f6e6f73706163652220666f6e742d7765696768743d22626f6c642260408201527f3e59c3bc7ac3b66cc3a7c3bc6dc3bc3a3c2f746578743e000000000000000000606082015250565b7f646174613a696d6167652f7376672b786d6c3b6261736536342c000000000000600082015250565b7f3c7465787420783d22372220793d223138362e33333333332220666f6e742d7360008201527f697a653d2231332220666f6e742d66616d696c793d22436f7572696572204e6560208201527f772c206d6f6e6f73706163652220666f6e742d7765696768743d22626f6c642260408201527f3e4b6f6f7264696e61743a3c2f746578743e0000000000000000000000000000606082015250565b61549f81613fa3565b81146154aa57600080fd5b50565b6154b681613fb5565b81146154c157600080fd5b50565b6154cd81613fc1565b81146154d857600080fd5b50565b6154e481613fed565b81146154ef57600080fd5b50565b6154fb81614019565b811461550657600080fd5b50565b61551281614023565b811461551d57600080fd5b50565b6155298161409b565b811461553457600080fd5b5056fe4142434445464748494a4b4c4d4e4f505152535455565758595a6162636465666768696a6b6c6d6e6f707172737475767778797a303132333435363738392b2fa2646970667358221220c378083cdf08b6fb2d590a0b63b4d2c0ff0b0494127acc01a10a7185e9bd4b4264736f6c63430008010033",
  "immutableReferences": {},
  "source": "// SPDX-License-Identifier: MIT\r\n\r\npragma solidity >=0.8.0 <0.9.0;\r\n\r\nimport \"@openzeppelin/contracts/token/ERC721/extensions/ERC721Enumerable.sol\";\r\nimport \"@openzeppelin/contracts/access/Ownable.sol\";\r\nimport \"./Base64.sol\";\r\n\r\ncontract DeedNFT is ERC721Enumerable, Ownable {\r\n  using Strings for uint256;\r\n\r\n  struct NFTInfo {\r\n    uint ID;\r\n    address owner;\r\n    bytes8 name;\r\n    bytes16 province;\r\n    bytes16 area;\r\n    bytes24 county;\r\n    bytes32 district;\r\n    bytes32 coordinates;\r\n  }\r\n\r\n  mapping (uint256 => NFTInfo) public nftInfo;\r\n  \r\n  constructor() ERC721(\"Tapu NFT\", \"TNFT\") {}\r\n\r\n  function mint(\r\n    bytes16 _province,\r\n    bytes16 _area,\r\n    bytes24 _county,\r\n    bytes32 _district,\r\n    bytes32 _coordinates\r\n  ) public payable {\r\n    uint256 supply = totalSupply();\r\n    \r\n    NFTInfo memory newDeed = NFTInfo(\r\n      supply + 1,\r\n      msg.sender,\r\n      '# TNFT #',\r\n      _province,\r\n      _area,\r\n      _county,\r\n      _district,\r\n      _coordinates\r\n    );\r\n    \r\n    nftInfo[supply + 1] = newDeed;\r\n    _safeMint(msg.sender, supply + 1);\r\n  }\r\n\r\n  function randomNum(uint256 _mod, uint256 _seed, uint _salt) internal view returns(uint256) {\r\n      return uint(keccak256(abi.encodePacked(block.timestamp, msg.sender, _seed, _salt))) % _mod;\r\n  }\r\n\r\n  function buildImage(uint256 _tokenId) public view returns(string memory) {\r\n      NFTInfo memory currentDeed = nftInfo[_tokenId];\r\n      return Base64.encode(bytes(\r\n          abi.encodePacked(\r\n              '<svg width=\"300\" height=\"300\" xmlns=\"http://www.w3.org/2000/svg\">',\r\n              '<rect fill=\"hsl(', randomNum(361, block.timestamp, totalSupply()).toString() ,', 100%, 60%)\" x=\"0\" y=\"0\" width=\"300\" height=\"50\"/>',\r\n              '<rect fill=\"hsl(', randomNum(361, block.difficulty, totalSupply()).toString() ,', 100%, 60%)\" y=\"50\" width=\"300\" height=\"170\"/>',\r\n              '<text x=\"79.52084\" y=\"32.31707\" font-size=\"24\" font-family=\"Courier New, monospace\" font-weight=\"bold\">TAPU SENED\\xc4\\xb0</text>',\r\n              '<text x=\"7\" y=\"85.38211\" font-size=\"13\" font-family=\"Courier New, monospace\" font-weight=\"bold\">Tapu No:</text>',\r\n              '<text x=\"95.33333\" y=\"85.86992\" font-size=\"13\" font-family=\"Courier New, monospace\" font-weight=\"bold\">', currentDeed.ID,'</text>',\r\n              '<text x=\"7\" y=\"105.82113\" font-size=\"13\" font-family=\"Courier New, monospace\" font-weight=\"bold\">\\xc4\\xb0l:</text>',\r\n              '<text x=\"95.33333\" y=\"105.82113\" font-size=\"13\" font-family=\"Courier New, monospace\" font-weight=\"bold\">', currentDeed.province,'</text>',\r\n              '<text x=\"7\" y=\"125.82113\" font-size=\"13\" font-family=\"Courier New, monospace\" font-weight=\"bold\">\\xc4\\xb0l\\xc3\\xa7e:</text>',\r\n              '<text x=\"95.33333\" y=\"125.82113\" font-size=\"13\" font-family=\"Courier New, monospace\" font-weight=\"bold\">', currentDeed.county,'</text>',\r\n              '<text x=\"7\" y=\"145.8645\" font-size=\"13\" font-family=\"Courier New, monospace\" font-weight=\"bold\">Mahalle:</text>',\r\n              '<text x=\"95.33333\" y=\"145.82113\" font-size=\"13\" font-family=\"Courier New, monospace\" font-weight=\"bold\">', currentDeed.district,'</text>',\r\n              '<text x=\"7\" y=\"166.33333\" font-size=\"13\" font-family=\"Courier New, monospace\" font-weight=\"bold\">Y\\xc3\\xbcz\\xc3\\xb6l\\xc3\\xa7\\xc3\\xbcm\\xc3\\xbc:</text>',\r\n              '<text x=\"95.33333\" y=\"166.33333\" font-size=\"13\" font-family=\"Courier New, monospace\" font-weight=\"bold\">', currentDeed.area,'p</text>',\r\n              '<text x=\"7\" y=\"186.33333\" font-size=\"13\" font-family=\"Courier New, monospace\" font-weight=\"bold\">Koordinat:</text>',\r\n              '<text x=\"95.33333\" y=\"186.33333\" font-size=\"13\" font-family=\"Courier New, monospace\" font-weight=\"bold\">', currentDeed.coordinates,'</text>',\r\n              '<rect fill=\"hsl(', randomNum(361, block.difficulty, totalSupply() + 1).toString() ,', 100%, 60%)\" y=\"220\" width=\"300\" height=\"80\"/>',\r\n              '<text x=\"7\" y=\"240.2439\" font-size=\"13\" font-family=\"Courier New, monospace\" font-weight=\"bold\">Sahibi:</text>',\r\n              '<text x=\"7\" y=\"260.4878\" font-size=\"13\" font-family=\"Courier New, monospace\" font-weight=\"bold\">0x0000000000000000000000000000</text>',\r\n              '<text x=\"7\" y=\"280.4878\" font-size=\"13\" font-family=\"Courier New, monospace\" font-weight=\"bold\">Fatih Baykal</text>',\r\n              '</svg>'\r\n          )\r\n      ));\r\n  }\r\n  \r\n  function buildMetadata(uint256 _tokenId) public view returns(string memory) {\r\n      NFTInfo memory currentDeed = nftInfo[_tokenId];\r\n      return string(abi.encodePacked(\r\n              'data:application/json;base64,', Base64.encode(bytes(abi.encodePacked(\r\n                          '{\"name\":\"', \r\n                          currentDeed.name,\r\n                          '\", \"image\": \"', \r\n                          'data:image/svg+xml;base64,', \r\n                          buildImage(_tokenId),\r\n                          '\"}')))));\r\n  }\r\n\r\n  function tokenURI(uint256 _tokenId) public view virtual override returns (string memory) {\r\n      require(_exists(_tokenId),\"ERC721Metadata: URI query for nonexistent token\");\r\n      return buildMetadata(_tokenId);\r\n  }\r\n\r\n  function withdraw() public payable onlyOwner {\r\n    (bool os, ) = payable(owner()).call{value: address(this).balance}(\"\");\r\n    require(os);\r\n  }\r\n}",
  "sourcePath": "C:/Users/User/Desktop/Solidity Projects/DeedNFT/contracts/DeedNFT.sol",
  "compiler": {
    "name": "solc",
    "version": "0.8.1+commit.df193b15.Emscripten.clang"
  },
  "schemaVersion": "3.4.1",
  "updatedAt": "2022-02-28T13:31:30.254Z",
  "devdoc": {
    "kind": "dev",
    "methods": {
      "approve(address,uint256)": {
        "details": "See {IERC721-approve}."
      },
      "balanceOf(address)": {
        "details": "See {IERC721-balanceOf}."
      },
      "getApproved(uint256)": {
        "details": "See {IERC721-getApproved}."
      },
      "isApprovedForAll(address,address)": {
        "details": "See {IERC721-isApprovedForAll}."
      },
      "name()": {
        "details": "See {IERC721Metadata-name}."
      },
      "owner()": {
        "details": "Returns the address of the current owner."
      },
      "ownerOf(uint256)": {
        "details": "See {IERC721-ownerOf}."
      },
      "renounceOwnership()": {
        "details": "Leaves the contract without owner. It will not be possible to call `onlyOwner` functions anymore. Can only be called by the current owner. NOTE: Renouncing ownership will leave the contract without an owner, thereby removing any functionality that is only available to the owner."
      },
      "safeTransferFrom(address,address,uint256)": {
        "details": "See {IERC721-safeTransferFrom}."
      },
      "safeTransferFrom(address,address,uint256,bytes)": {
        "details": "See {IERC721-safeTransferFrom}."
      },
      "setApprovalForAll(address,bool)": {
        "details": "See {IERC721-setApprovalForAll}."
      },
      "supportsInterface(bytes4)": {
        "details": "See {IERC165-supportsInterface}."
      },
      "symbol()": {
        "details": "See {IERC721Metadata-symbol}."
      },
      "tokenByIndex(uint256)": {
        "details": "See {IERC721Enumerable-tokenByIndex}."
      },
      "tokenOfOwnerByIndex(address,uint256)": {
        "details": "See {IERC721Enumerable-tokenOfOwnerByIndex}."
      },
      "totalSupply()": {
        "details": "See {IERC721Enumerable-totalSupply}."
      },
      "transferFrom(address,address,uint256)": {
        "details": "See {IERC721-transferFrom}."
      },
      "transferOwnership(address)": {
        "details": "Transfers ownership of the contract to a new account (`newOwner`). Can only be called by the current owner."
      }
    },
    "version": 1
  },
  "userdoc": {
    "kind": "user",
    "methods": {},
    "version": 1
  }
}